{
	"smartContract/safeLife.sol": {
		"safeLife": {
			"abi": [
				{
					"inputs": [],
					"stateMutability": "nonpayable",
					"type": "constructor"
				},
				{
					"anonymous": false,
					"inputs": [
						{
							"indexed": false,
							"internalType": "string",
							"name": "orderId",
							"type": "string"
						},
						{
							"indexed": false,
							"internalType": "string",
							"name": "buyer",
							"type": "string"
						},
						{
							"indexed": false,
							"internalType": "string",
							"name": "seller",
							"type": "string"
						},
						{
							"indexed": false,
							"internalType": "string",
							"name": "fromAdd",
							"type": "string"
						},
						{
							"indexed": false,
							"internalType": "string",
							"name": "toAdd",
							"type": "string"
						},
						{
							"indexed": false,
							"internalType": "string",
							"name": "role",
							"type": "string"
						}
					],
					"name": "logDrugInfo",
					"type": "event"
				},
				{
					"anonymous": false,
					"inputs": [
						{
							"indexed": false,
							"internalType": "string",
							"name": "productionId",
							"type": "string"
						},
						{
							"indexed": false,
							"internalType": "string",
							"name": "secretKey",
							"type": "string"
						},
						{
							"indexed": false,
							"internalType": "string",
							"name": "darNumber",
							"type": "string"
						},
						{
							"indexed": false,
							"internalType": "string",
							"name": "role",
							"type": "string"
						}
					],
					"name": "logQRCodeInfo",
					"type": "event"
				},
				{
					"inputs": [],
					"name": "buyer",
					"outputs": [
						{
							"internalType": "address",
							"name": "",
							"type": "address"
						}
					],
					"stateMutability": "view",
					"type": "function"
				},
				{
					"inputs": [
						{
							"internalType": "string",
							"name": "_productionId",
							"type": "string"
						},
						{
							"internalType": "string",
							"name": "_secretKey",
							"type": "string"
						},
						{
							"internalType": "string",
							"name": "_darNumber",
							"type": "string"
						}
					],
					"name": "createQR",
					"outputs": [],
					"stateMutability": "nonpayable",
					"type": "function"
				},
				{
					"inputs": [],
					"name": "getOrderDAR",
					"outputs": [
						{
							"internalType": "string",
							"name": "",
							"type": "string"
						},
						{
							"internalType": "string",
							"name": "",
							"type": "string"
						}
					],
					"stateMutability": "view",
					"type": "function"
				},
				{
					"inputs": [],
					"name": "getOrderInfo",
					"outputs": [
						{
							"internalType": "string",
							"name": "",
							"type": "string"
						},
						{
							"internalType": "string",
							"name": "",
							"type": "string"
						},
						{
							"internalType": "string",
							"name": "",
							"type": "string"
						}
					],
					"stateMutability": "view",
					"type": "function"
				},
				{
					"inputs": [],
					"name": "getOrderStatusInfo",
					"outputs": [
						{
							"internalType": "string",
							"name": "",
							"type": "string"
						},
						{
							"internalType": "string",
							"name": "",
							"type": "string"
						}
					],
					"stateMutability": "view",
					"type": "function"
				},
				{
					"inputs": [
						{
							"internalType": "string",
							"name": "_productionId",
							"type": "string"
						}
					],
					"name": "getQRInfo",
					"outputs": [
						{
							"internalType": "string",
							"name": "",
							"type": "string"
						},
						{
							"internalType": "string",
							"name": "",
							"type": "string"
						},
						{
							"internalType": "string",
							"name": "",
							"type": "string"
						}
					],
					"stateMutability": "view",
					"type": "function"
				},
				{
					"inputs": [
						{
							"internalType": "string",
							"name": "_orderId",
							"type": "string"
						}
					],
					"name": "getStoreDrugs",
					"outputs": [
						{
							"internalType": "string",
							"name": "",
							"type": "string"
						},
						{
							"internalType": "string",
							"name": "",
							"type": "string"
						},
						{
							"internalType": "string",
							"name": "",
							"type": "string"
						},
						{
							"internalType": "string",
							"name": "",
							"type": "string"
						},
						{
							"internalType": "string",
							"name": "",
							"type": "string"
						}
					],
					"stateMutability": "view",
					"type": "function"
				},
				{
					"inputs": [],
					"name": "isBuyer_",
					"outputs": [
						{
							"internalType": "bool",
							"name": "",
							"type": "bool"
						}
					],
					"stateMutability": "view",
					"type": "function"
				},
				{
					"inputs": [],
					"name": "isSeller_",
					"outputs": [
						{
							"internalType": "bool",
							"name": "",
							"type": "bool"
						}
					],
					"stateMutability": "view",
					"type": "function"
				},
				{
					"inputs": [],
					"name": "seller",
					"outputs": [
						{
							"internalType": "address",
							"name": "",
							"type": "address"
						}
					],
					"stateMutability": "view",
					"type": "function"
				},
				{
					"inputs": [
						{
							"internalType": "string",
							"name": "_orderId",
							"type": "string"
						},
						{
							"internalType": "string",
							"name": "_productionIdNums",
							"type": "string"
						}
					],
					"name": "setOrderDAR",
					"outputs": [],
					"stateMutability": "nonpayable",
					"type": "function"
				},
				{
					"inputs": [
						{
							"internalType": "string",
							"name": "_orderId",
							"type": "string"
						},
						{
							"internalType": "string",
							"name": "_status",
							"type": "string"
						},
						{
							"internalType": "string",
							"name": "_email",
							"type": "string"
						}
					],
					"name": "setOrderInfo",
					"outputs": [],
					"stateMutability": "nonpayable",
					"type": "function"
				},
				{
					"inputs": [
						{
							"internalType": "string",
							"name": "_orderId",
							"type": "string"
						},
						{
							"internalType": "string",
							"name": "_status",
							"type": "string"
						}
					],
					"name": "setOrderStatusInfo",
					"outputs": [],
					"stateMutability": "nonpayable",
					"type": "function"
				},
				{
					"inputs": [
						{
							"internalType": "string",
							"name": "_orderId",
							"type": "string"
						},
						{
							"internalType": "string",
							"name": "_buyer",
							"type": "string"
						},
						{
							"internalType": "string",
							"name": "_seller",
							"type": "string"
						},
						{
							"internalType": "string",
							"name": "_fromAdd",
							"type": "string"
						},
						{
							"internalType": "string",
							"name": "_toAdd",
							"type": "string"
						}
					],
					"name": "storeDrugs",
					"outputs": [],
					"stateMutability": "nonpayable",
					"type": "function"
				},
				{
					"inputs": [
						{
							"internalType": "string",
							"name": "_orderId",
							"type": "string"
						},
						{
							"internalType": "string",
							"name": "_buyer",
							"type": "string"
						},
						{
							"internalType": "string",
							"name": "_seller",
							"type": "string"
						},
						{
							"internalType": "string",
							"name": "_fromAdd",
							"type": "string"
						},
						{
							"internalType": "string",
							"name": "_toAdd",
							"type": "string"
						}
					],
					"name": "storeDrugsAgain",
					"outputs": [],
					"stateMutability": "nonpayable",
					"type": "function"
				}
			],
			"devdoc": {
				"kind": "dev",
				"methods": {},
				"version": 1
			},
			"evm": {
				"assembly": "    /* \"smartContract/safeLife.sol\":62:7258  contract safeLife{\r... */\n  mstore(0x40, 0x80)\n    /* \"smartContract/safeLife.sol\":1332:1389  constructor () public {\r... */\n  callvalue\n  dup1\n  iszero\n  tag_1\n  jumpi\n  0x00\n  dup1\n  revert\ntag_1:\n  pop\n    /* \"smartContract/safeLife.sol\":1372:1382  msg.sender */\n  caller\n    /* \"smartContract/safeLife.sol\":1363:1369  seller */\n  0x06\n  0x00\n    /* \"smartContract/safeLife.sol\":1363:1382  seller = msg.sender */\n  0x0100\n  exp\n  dup2\n  sload\n  dup2\n  0xffffffffffffffffffffffffffffffffffffffff\n  mul\n  not\n  and\n  swap1\n  dup4\n  0xffffffffffffffffffffffffffffffffffffffff\n  and\n  mul\n  or\n  swap1\n  sstore\n  pop\n    /* \"smartContract/safeLife.sol\":62:7258  contract safeLife{\r... */\n  dataSize(sub_0)\n  dup1\n  dataOffset(sub_0)\n  0x00\n  codecopy\n  0x00\n  return\nstop\n\nsub_0: assembly {\n        /* \"smartContract/safeLife.sol\":62:7258  contract safeLife{\r... */\n      mstore(0x40, 0x80)\n      callvalue\n      dup1\n      iszero\n      tag_1\n      jumpi\n      0x00\n      dup1\n      revert\n    tag_1:\n      pop\n      jumpi(tag_2, lt(calldatasize, 0x04))\n      shr(0xe0, calldataload(0x00))\n      dup1\n      0x622a0729\n      gt\n      tag_18\n      jumpi\n      dup1\n      0xb21847a0\n      gt\n      tag_19\n      jumpi\n      dup1\n      0xb21847a0\n      eq\n      tag_14\n      jumpi\n      dup1\n      0xcc728f1f\n      eq\n      tag_15\n      jumpi\n      dup1\n      0xf108067e\n      eq\n      tag_16\n      jumpi\n      dup1\n      0xf2b0597c\n      eq\n      tag_17\n      jumpi\n      jump(tag_2)\n    tag_19:\n      dup1\n      0x622a0729\n      eq\n      tag_10\n      jumpi\n      dup1\n      0x7150d8ae\n      eq\n      tag_11\n      jumpi\n      dup1\n      0x7c74d4f3\n      eq\n      tag_12\n      jumpi\n      dup1\n      0x9755963e\n      eq\n      tag_13\n      jumpi\n      jump(tag_2)\n    tag_18:\n      dup1\n      0x13e62883\n      gt\n      tag_20\n      jumpi\n      dup1\n      0x13e62883\n      eq\n      tag_6\n      jumpi\n      dup1\n      0x23d77734\n      eq\n      tag_7\n      jumpi\n      dup1\n      0x57c2eb05\n      eq\n      tag_8\n      jumpi\n      dup1\n      0x5def9740\n      eq\n      tag_9\n      jumpi\n      jump(tag_2)\n    tag_20:\n      dup1\n      0x01705ed5\n      eq\n      tag_3\n      jumpi\n      dup1\n      0x01efb6c8\n      eq\n      tag_4\n      jumpi\n      dup1\n      0x08551a53\n      eq\n      tag_5\n      jumpi\n    tag_2:\n      0x00\n      dup1\n      revert\n        /* \"smartContract/safeLife.sol\":4152:4277  function getOrderDAR() public view returns (string memory, string memory){\r... */\n    tag_3:\n      tag_21\n      tag_22\n      jump\t// in\n    tag_21:\n      mload(0x40)\n      tag_23\n      swap3\n      swap2\n      swap1\n      tag_24\n      jump\t// in\n    tag_23:\n      mload(0x40)\n      dup1\n      swap2\n      sub\n      swap1\n      return\n        /* \"smartContract/safeLife.sol\":3734:3871  function getOrderInfo() public view returns(string memory, string memory, string memory){\r... */\n    tag_4:\n      tag_25\n      tag_26\n      jump\t// in\n    tag_25:\n      mload(0x40)\n      tag_27\n      swap4\n      swap3\n      swap2\n      swap1\n      tag_28\n      jump\t// in\n    tag_27:\n      mload(0x40)\n      dup1\n      swap2\n      sub\n      swap1\n      return\n        /* \"smartContract/safeLife.sol\":1274:1295  address public seller */\n    tag_5:\n      tag_29\n      tag_30\n      jump\t// in\n    tag_29:\n      mload(0x40)\n      tag_31\n      swap2\n      swap1\n      tag_32\n      jump\t// in\n    tag_31:\n      mload(0x40)\n      dup1\n      swap2\n      sub\n      swap1\n      return\n        /* \"smartContract/safeLife.sol\":7047:7149  function isBuyer_() public view returns (bool) {\r... */\n    tag_6:\n      tag_33\n      tag_34\n      jump\t// in\n    tag_33:\n      mload(0x40)\n      tag_35\n      swap2\n      swap1\n      tag_36\n      jump\t// in\n    tag_35:\n      mload(0x40)\n      dup1\n      swap2\n      sub\n      swap1\n      return\n        /* \"smartContract/safeLife.sol\":3006:3337  function getStoreDrugs(string memory _orderId)public view returns(string memory, string memory, string memory, string memory, string memory){\r... */\n    tag_7:\n      tag_37\n      0x04\n      dup1\n      calldatasize\n      sub\n      dup2\n      add\n      swap1\n      tag_38\n      swap2\n      swap1\n      tag_39\n      jump\t// in\n    tag_38:\n      tag_40\n      jump\t// in\n    tag_37:\n      mload(0x40)\n      tag_41\n      swap6\n      swap5\n      swap4\n      swap3\n      swap2\n      swap1\n      tag_42\n      jump\t// in\n    tag_41:\n      mload(0x40)\n      dup1\n      swap2\n      sub\n      swap1\n      return\n        /* \"smartContract/safeLife.sol\":6809:6994  function setOrderDAR(string memory _orderId, string memory _productionIdNums) public\r... */\n    tag_8:\n      tag_43\n      0x04\n      dup1\n      calldatasize\n      sub\n      dup2\n      add\n      swap1\n      tag_44\n      swap2\n      swap1\n      tag_45\n      jump\t// in\n    tag_44:\n      tag_46\n      jump\t// in\n    tag_43:\n      stop\n        /* \"smartContract/safeLife.sol\":3951:4072  function getOrderStatusInfo() public view returns(string memory, string memory){\r... */\n    tag_9:\n      tag_47\n      tag_48\n      jump\t// in\n    tag_47:\n      mload(0x40)\n      tag_49\n      swap3\n      swap2\n      swap1\n      tag_24\n      jump\t// in\n    tag_49:\n      mload(0x40)\n      dup1\n      swap2\n      sub\n      swap1\n      return\n        /* \"smartContract/safeLife.sol\":3413:3658  function getQRInfo(string memory _productionId) public view returns(string memory, string memory, string memory){\r... */\n    tag_10:\n      tag_50\n      0x04\n      dup1\n      calldatasize\n      sub\n      dup2\n      add\n      swap1\n      tag_51\n      swap2\n      swap1\n      tag_39\n      jump\t// in\n    tag_51:\n      tag_52\n      jump\t// in\n    tag_50:\n      mload(0x40)\n      tag_53\n      swap4\n      swap3\n      swap2\n      swap1\n      tag_28\n      jump\t// in\n    tag_53:\n      mload(0x40)\n      dup1\n      swap2\n      sub\n      swap1\n      return\n        /* \"smartContract/safeLife.sol\":1301:1321  address public buyer */\n    tag_11:\n      tag_54\n      tag_55\n      jump\t// in\n    tag_54:\n      mload(0x40)\n      tag_56\n      swap2\n      swap1\n      tag_32\n      jump\t// in\n    tag_56:\n      mload(0x40)\n      dup1\n      swap2\n      sub\n      swap1\n      return\n        /* \"smartContract/safeLife.sol\":7161:7255  function isSeller_() public view returns (bool) {\r... */\n    tag_12:\n      tag_57\n      tag_58\n      jump\t// in\n    tag_57:\n      mload(0x40)\n      tag_59\n      swap2\n      swap1\n      tag_36\n      jump\t// in\n    tag_59:\n      mload(0x40)\n      dup1\n      swap2\n      sub\n      swap1\n      return\n        /* \"smartContract/safeLife.sol\":4382:4972  function storeDrugs(string memory _orderId, string memory _buyer, string memory _seller,  string memory _fromAdd, string memory _toAdd) public\r... */\n    tag_13:\n      tag_60\n      0x04\n      dup1\n      calldatasize\n      sub\n      dup2\n      add\n      swap1\n      tag_61\n      swap2\n      swap1\n      tag_62\n      jump\t// in\n    tag_61:\n      tag_63\n      jump\t// in\n    tag_60:\n      stop\n        /* \"smartContract/safeLife.sol\":5738:6219  function createQR(string memory _productionId, string memory _secretKey, string memory _darNumber) public\r... */\n    tag_14:\n      tag_64\n      0x04\n      dup1\n      calldatasize\n      sub\n      dup2\n      add\n      swap1\n      tag_65\n      swap2\n      swap1\n      tag_66\n      jump\t// in\n    tag_65:\n      tag_67\n      jump\t// in\n    tag_64:\n      stop\n        /* \"smartContract/safeLife.sol\":5066:5656  function storeDrugsAgain(string memory _orderId, string memory _buyer, string memory _seller,  string memory _fromAdd, string memory _toAdd) public\r... */\n    tag_15:\n      tag_68\n      0x04\n      dup1\n      calldatasize\n      sub\n      dup2\n      add\n      swap1\n      tag_69\n      swap2\n      swap1\n      tag_62\n      jump\t// in\n    tag_69:\n      tag_70\n      jump\t// in\n    tag_68:\n      stop\n        /* \"smartContract/safeLife.sol\":6570:6732  function setOrderStatusInfo(string memory _orderId, string memory _status) public\r... */\n    tag_16:\n      tag_71\n      0x04\n      dup1\n      calldatasize\n      sub\n      dup2\n      add\n      swap1\n      tag_72\n      swap2\n      swap1\n      tag_45\n      jump\t// in\n    tag_72:\n      tag_73\n      jump\t// in\n    tag_71:\n      stop\n        /* \"smartContract/safeLife.sol\":6290:6492  function setOrderInfo(string memory _orderId, string memory _status, string memory _email) public\r... */\n    tag_17:\n      tag_74\n      0x04\n      dup1\n      calldatasize\n      sub\n      dup2\n      add\n      swap1\n      tag_75\n      swap2\n      swap1\n      tag_66\n      jump\t// in\n    tag_75:\n      tag_76\n      jump\t// in\n    tag_74:\n      stop\n        /* \"smartContract/safeLife.sol\":4152:4277  function getOrderDAR() public view returns (string memory, string memory){\r... */\n    tag_22:\n        /* \"smartContract/safeLife.sol\":4196:4209  string memory */\n      0x60\n        /* \"smartContract/safeLife.sol\":4211:4224  string memory */\n      dup1\n        /* \"smartContract/safeLife.sol\":4243:4250  orderId */\n      0x01\n        /* \"smartContract/safeLife.sol\":4252:4268  productionIdNums */\n      0x03\n        /* \"smartContract/safeLife.sol\":4236:4269  return(orderId, productionIdNums) */\n      dup2\n      dup1\n      sload\n      tag_78\n      swap1\n      tag_79\n      jump\t// in\n    tag_78:\n      dup1\n      0x1f\n      add\n      0x20\n      dup1\n      swap2\n      div\n      mul\n      0x20\n      add\n      mload(0x40)\n      swap1\n      dup2\n      add\n      0x40\n      mstore\n      dup1\n      swap3\n      swap2\n      swap1\n      dup2\n      dup2\n      mstore\n      0x20\n      add\n      dup3\n      dup1\n      sload\n      tag_80\n      swap1\n      tag_79\n      jump\t// in\n    tag_80:\n      dup1\n      iszero\n      tag_81\n      jumpi\n      dup1\n      0x1f\n      lt\n      tag_82\n      jumpi\n      0x0100\n      dup1\n      dup4\n      sload\n      div\n      mul\n      dup4\n      mstore\n      swap2\n      0x20\n      add\n      swap2\n      jump(tag_81)\n    tag_82:\n      dup3\n      add\n      swap2\n      swap1\n      0x00\n      mstore\n      keccak256(0x00, 0x20)\n      swap1\n    tag_83:\n      dup2\n      sload\n      dup2\n      mstore\n      swap1\n      0x01\n      add\n      swap1\n      0x20\n      add\n      dup1\n      dup4\n      gt\n      tag_83\n      jumpi\n      dup3\n      swap1\n      sub\n      0x1f\n      and\n      dup3\n      add\n      swap2\n    tag_81:\n      pop\n      pop\n      pop\n      pop\n      pop\n      swap2\n      pop\n      dup1\n      dup1\n      sload\n      tag_84\n      swap1\n      tag_79\n      jump\t// in\n    tag_84:\n      dup1\n      0x1f\n      add\n      0x20\n      dup1\n      swap2\n      div\n      mul\n      0x20\n      add\n      mload(0x40)\n      swap1\n      dup2\n      add\n      0x40\n      mstore\n      dup1\n      swap3\n      swap2\n      swap1\n      dup2\n      dup2\n      mstore\n      0x20\n      add\n      dup3\n      dup1\n      sload\n      tag_85\n      swap1\n      tag_79\n      jump\t// in\n    tag_85:\n      dup1\n      iszero\n      tag_86\n      jumpi\n      dup1\n      0x1f\n      lt\n      tag_87\n      jumpi\n      0x0100\n      dup1\n      dup4\n      sload\n      div\n      mul\n      dup4\n      mstore\n      swap2\n      0x20\n      add\n      swap2\n      jump(tag_86)\n    tag_87:\n      dup3\n      add\n      swap2\n      swap1\n      0x00\n      mstore\n      keccak256(0x00, 0x20)\n      swap1\n    tag_88:\n      dup2\n      sload\n      dup2\n      mstore\n      swap1\n      0x01\n      add\n      swap1\n      0x20\n      add\n      dup1\n      dup4\n      gt\n      tag_88\n      jumpi\n      dup3\n      swap1\n      sub\n      0x1f\n      and\n      dup3\n      add\n      swap2\n    tag_86:\n      pop\n      pop\n      pop\n      pop\n      pop\n      swap1\n      pop\n      swap2\n      pop\n      swap2\n      pop\n        /* \"smartContract/safeLife.sol\":4152:4277  function getOrderDAR() public view returns (string memory, string memory){\r... */\n      swap1\n      swap2\n      jump\t// out\n        /* \"smartContract/safeLife.sol\":3734:3871  function getOrderInfo() public view returns(string memory, string memory, string memory){\r... */\n    tag_26:\n        /* \"smartContract/safeLife.sol\":3778:3791  string memory */\n      0x60\n        /* \"smartContract/safeLife.sol\":3793:3806  string memory */\n      dup1\n        /* \"smartContract/safeLife.sol\":3808:3821  string memory */\n      0x60\n        /* \"smartContract/safeLife.sol\":3840:3847  orderId */\n      0x01\n        /* \"smartContract/safeLife.sol\":3849:3855  status */\n      0x02\n        /* \"smartContract/safeLife.sol\":3857:3862  email */\n      0x00\n        /* \"smartContract/safeLife.sol\":3833:3863  return(orderId, status, email) */\n      dup3\n      dup1\n      sload\n      tag_90\n      swap1\n      tag_79\n      jump\t// in\n    tag_90:\n      dup1\n      0x1f\n      add\n      0x20\n      dup1\n      swap2\n      div\n      mul\n      0x20\n      add\n      mload(0x40)\n      swap1\n      dup2\n      add\n      0x40\n      mstore\n      dup1\n      swap3\n      swap2\n      swap1\n      dup2\n      dup2\n      mstore\n      0x20\n      add\n      dup3\n      dup1\n      sload\n      tag_91\n      swap1\n      tag_79\n      jump\t// in\n    tag_91:\n      dup1\n      iszero\n      tag_92\n      jumpi\n      dup1\n      0x1f\n      lt\n      tag_93\n      jumpi\n      0x0100\n      dup1\n      dup4\n      sload\n      div\n      mul\n      dup4\n      mstore\n      swap2\n      0x20\n      add\n      swap2\n      jump(tag_92)\n    tag_93:\n      dup3\n      add\n      swap2\n      swap1\n      0x00\n      mstore\n      keccak256(0x00, 0x20)\n      swap1\n    tag_94:\n      dup2\n      sload\n      dup2\n      mstore\n      swap1\n      0x01\n      add\n      swap1\n      0x20\n      add\n      dup1\n      dup4\n      gt\n      tag_94\n      jumpi\n      dup3\n      swap1\n      sub\n      0x1f\n      and\n      dup3\n      add\n      swap2\n    tag_92:\n      pop\n      pop\n      pop\n      pop\n      pop\n      swap3\n      pop\n      dup2\n      dup1\n      sload\n      tag_95\n      swap1\n      tag_79\n      jump\t// in\n    tag_95:\n      dup1\n      0x1f\n      add\n      0x20\n      dup1\n      swap2\n      div\n      mul\n      0x20\n      add\n      mload(0x40)\n      swap1\n      dup2\n      add\n      0x40\n      mstore\n      dup1\n      swap3\n      swap2\n      swap1\n      dup2\n      dup2\n      mstore\n      0x20\n      add\n      dup3\n      dup1\n      sload\n      tag_96\n      swap1\n      tag_79\n      jump\t// in\n    tag_96:\n      dup1\n      iszero\n      tag_97\n      jumpi\n      dup1\n      0x1f\n      lt\n      tag_98\n      jumpi\n      0x0100\n      dup1\n      dup4\n      sload\n      div\n      mul\n      dup4\n      mstore\n      swap2\n      0x20\n      add\n      swap2\n      jump(tag_97)\n    tag_98:\n      dup3\n      add\n      swap2\n      swap1\n      0x00\n      mstore\n      keccak256(0x00, 0x20)\n      swap1\n    tag_99:\n      dup2\n      sload\n      dup2\n      mstore\n      swap1\n      0x01\n      add\n      swap1\n      0x20\n      add\n      dup1\n      dup4\n      gt\n      tag_99\n      jumpi\n      dup3\n      swap1\n      sub\n      0x1f\n      and\n      dup3\n      add\n      swap2\n    tag_97:\n      pop\n      pop\n      pop\n      pop\n      pop\n      swap2\n      pop\n      dup1\n      dup1\n      sload\n      tag_100\n      swap1\n      tag_79\n      jump\t// in\n    tag_100:\n      dup1\n      0x1f\n      add\n      0x20\n      dup1\n      swap2\n      div\n      mul\n      0x20\n      add\n      mload(0x40)\n      swap1\n      dup2\n      add\n      0x40\n      mstore\n      dup1\n      swap3\n      swap2\n      swap1\n      dup2\n      dup2\n      mstore\n      0x20\n      add\n      dup3\n      dup1\n      sload\n      tag_101\n      swap1\n      tag_79\n      jump\t// in\n    tag_101:\n      dup1\n      iszero\n      tag_102\n      jumpi\n      dup1\n      0x1f\n      lt\n      tag_103\n      jumpi\n      0x0100\n      dup1\n      dup4\n      sload\n      div\n      mul\n      dup4\n      mstore\n      swap2\n      0x20\n      add\n      swap2\n      jump(tag_102)\n    tag_103:\n      dup3\n      add\n      swap2\n      swap1\n      0x00\n      mstore\n      keccak256(0x00, 0x20)\n      swap1\n    tag_104:\n      dup2\n      sload\n      dup2\n      mstore\n      swap1\n      0x01\n      add\n      swap1\n      0x20\n      add\n      dup1\n      dup4\n      gt\n      tag_104\n      jumpi\n      dup3\n      swap1\n      sub\n      0x1f\n      and\n      dup3\n      add\n      swap2\n    tag_102:\n      pop\n      pop\n      pop\n      pop\n      pop\n      swap1\n      pop\n      swap3\n      pop\n      swap3\n      pop\n      swap3\n      pop\n        /* \"smartContract/safeLife.sol\":3734:3871  function getOrderInfo() public view returns(string memory, string memory, string memory){\r... */\n      swap1\n      swap2\n      swap3\n      jump\t// out\n        /* \"smartContract/safeLife.sol\":1274:1295  address public seller */\n    tag_30:\n      0x06\n      0x00\n      swap1\n      sload\n      swap1\n      0x0100\n      exp\n      swap1\n      div\n      0xffffffffffffffffffffffffffffffffffffffff\n      and\n      dup2\n      jump\t// out\n        /* \"smartContract/safeLife.sol\":7047:7149  function isBuyer_() public view returns (bool) {\r... */\n    tag_34:\n        /* \"smartContract/safeLife.sol\":7088:7092  bool */\n      0x00\n        /* \"smartContract/safeLife.sol\":7126:7131  buyer */\n      0x07\n      0x00\n      swap1\n      sload\n      swap1\n      0x0100\n      exp\n      swap1\n      div\n      0xffffffffffffffffffffffffffffffffffffffff\n      and\n        /* \"smartContract/safeLife.sol\":7112:7131  msg.sender == buyer */\n      0xffffffffffffffffffffffffffffffffffffffff\n      and\n        /* \"smartContract/safeLife.sol\":7112:7122  msg.sender */\n      caller\n        /* \"smartContract/safeLife.sol\":7112:7131  msg.sender == buyer */\n      0xffffffffffffffffffffffffffffffffffffffff\n      and\n      eq\n        /* \"smartContract/safeLife.sol\":7105:7131  return msg.sender == buyer */\n      swap1\n      pop\n        /* \"smartContract/safeLife.sol\":7047:7149  function isBuyer_() public view returns (bool) {\r... */\n      swap1\n      jump\t// out\n        /* \"smartContract/safeLife.sol\":3006:3337  function getStoreDrugs(string memory _orderId)public view returns(string memory, string memory, string memory, string memory, string memory){\r... */\n    tag_40:\n        /* \"smartContract/safeLife.sol\":3072:3085  string memory */\n      0x60\n        /* \"smartContract/safeLife.sol\":3087:3100  string memory */\n      dup1\n        /* \"smartContract/safeLife.sol\":3102:3115  string memory */\n      0x60\n        /* \"smartContract/safeLife.sol\":3117:3130  string memory */\n      dup1\n        /* \"smartContract/safeLife.sol\":3132:3145  string memory */\n      0x60\n        /* \"smartContract/safeLife.sol\":3165:3179  pharmaceutical */\n      0x04\n        /* \"smartContract/safeLife.sol\":3180:3188  _orderId */\n      dup7\n        /* \"smartContract/safeLife.sol\":3165:3189  pharmaceutical[_orderId] */\n      mload(0x40)\n      tag_107\n      swap2\n      swap1\n      tag_108\n      jump\t// in\n    tag_107:\n      swap1\n      dup2\n      mstore\n      0x20\n      add\n      mload(0x40)\n      dup1\n      swap2\n      sub\n      swap1\n      keccak256\n        /* \"smartContract/safeLife.sol\":3165:3197  pharmaceutical[_orderId].orderId */\n      0x00\n      add\n        /* \"smartContract/safeLife.sol\":3199:3213  pharmaceutical */\n      0x04\n        /* \"smartContract/safeLife.sol\":3214:3222  _orderId */\n      dup8\n        /* \"smartContract/safeLife.sol\":3199:3223  pharmaceutical[_orderId] */\n      mload(0x40)\n      tag_109\n      swap2\n      swap1\n      tag_108\n      jump\t// in\n    tag_109:\n      swap1\n      dup2\n      mstore\n      0x20\n      add\n      mload(0x40)\n      dup1\n      swap2\n      sub\n      swap1\n      keccak256\n        /* \"smartContract/safeLife.sol\":3199:3229  pharmaceutical[_orderId].buyer */\n      0x01\n      add\n        /* \"smartContract/safeLife.sol\":3231:3245  pharmaceutical */\n      0x04\n        /* \"smartContract/safeLife.sol\":3246:3254  _orderId */\n      dup9\n        /* \"smartContract/safeLife.sol\":3231:3255  pharmaceutical[_orderId] */\n      mload(0x40)\n      tag_110\n      swap2\n      swap1\n      tag_108\n      jump\t// in\n    tag_110:\n      swap1\n      dup2\n      mstore\n      0x20\n      add\n      mload(0x40)\n      dup1\n      swap2\n      sub\n      swap1\n      keccak256\n        /* \"smartContract/safeLife.sol\":3231:3262  pharmaceutical[_orderId].seller */\n      0x02\n      add\n        /* \"smartContract/safeLife.sol\":3264:3278  pharmaceutical */\n      0x04\n        /* \"smartContract/safeLife.sol\":3279:3287  _orderId */\n      dup10\n        /* \"smartContract/safeLife.sol\":3264:3288  pharmaceutical[_orderId] */\n      mload(0x40)\n      tag_111\n      swap2\n      swap1\n      tag_108\n      jump\t// in\n    tag_111:\n      swap1\n      dup2\n      mstore\n      0x20\n      add\n      mload(0x40)\n      dup1\n      swap2\n      sub\n      swap1\n      keccak256\n        /* \"smartContract/safeLife.sol\":3264:3296  pharmaceutical[_orderId].fromAdd */\n      0x03\n      add\n        /* \"smartContract/safeLife.sol\":3298:3312  pharmaceutical */\n      0x04\n        /* \"smartContract/safeLife.sol\":3313:3321  _orderId */\n      dup11\n        /* \"smartContract/safeLife.sol\":3298:3322  pharmaceutical[_orderId] */\n      mload(0x40)\n      tag_112\n      swap2\n      swap1\n      tag_108\n      jump\t// in\n    tag_112:\n      swap1\n      dup2\n      mstore\n      0x20\n      add\n      mload(0x40)\n      dup1\n      swap2\n      sub\n      swap1\n      keccak256\n        /* \"smartContract/safeLife.sol\":3298:3328  pharmaceutical[_orderId].toAdd */\n      0x04\n      add\n        /* \"smartContract/safeLife.sol\":3157:3329  return (pharmaceutical[_orderId].orderId, pharmaceutical[_orderId].buyer, pharmaceutical[_orderId].seller, pharmaceutical[_orderId].fromAdd, pharmaceutical[_orderId].toAdd) */\n      dup5\n      dup1\n      sload\n      tag_113\n      swap1\n      tag_79\n      jump\t// in\n    tag_113:\n      dup1\n      0x1f\n      add\n      0x20\n      dup1\n      swap2\n      div\n      mul\n      0x20\n      add\n      mload(0x40)\n      swap1\n      dup2\n      add\n      0x40\n      mstore\n      dup1\n      swap3\n      swap2\n      swap1\n      dup2\n      dup2\n      mstore\n      0x20\n      add\n      dup3\n      dup1\n      sload\n      tag_114\n      swap1\n      tag_79\n      jump\t// in\n    tag_114:\n      dup1\n      iszero\n      tag_115\n      jumpi\n      dup1\n      0x1f\n      lt\n      tag_116\n      jumpi\n      0x0100\n      dup1\n      dup4\n      sload\n      div\n      mul\n      dup4\n      mstore\n      swap2\n      0x20\n      add\n      swap2\n      jump(tag_115)\n    tag_116:\n      dup3\n      add\n      swap2\n      swap1\n      0x00\n      mstore\n      keccak256(0x00, 0x20)\n      swap1\n    tag_117:\n      dup2\n      sload\n      dup2\n      mstore\n      swap1\n      0x01\n      add\n      swap1\n      0x20\n      add\n      dup1\n      dup4\n      gt\n      tag_117\n      jumpi\n      dup3\n      swap1\n      sub\n      0x1f\n      and\n      dup3\n      add\n      swap2\n    tag_115:\n      pop\n      pop\n      pop\n      pop\n      pop\n      swap5\n      pop\n      dup4\n      dup1\n      sload\n      tag_118\n      swap1\n      tag_79\n      jump\t// in\n    tag_118:\n      dup1\n      0x1f\n      add\n      0x20\n      dup1\n      swap2\n      div\n      mul\n      0x20\n      add\n      mload(0x40)\n      swap1\n      dup2\n      add\n      0x40\n      mstore\n      dup1\n      swap3\n      swap2\n      swap1\n      dup2\n      dup2\n      mstore\n      0x20\n      add\n      dup3\n      dup1\n      sload\n      tag_119\n      swap1\n      tag_79\n      jump\t// in\n    tag_119:\n      dup1\n      iszero\n      tag_120\n      jumpi\n      dup1\n      0x1f\n      lt\n      tag_121\n      jumpi\n      0x0100\n      dup1\n      dup4\n      sload\n      div\n      mul\n      dup4\n      mstore\n      swap2\n      0x20\n      add\n      swap2\n      jump(tag_120)\n    tag_121:\n      dup3\n      add\n      swap2\n      swap1\n      0x00\n      mstore\n      keccak256(0x00, 0x20)\n      swap1\n    tag_122:\n      dup2\n      sload\n      dup2\n      mstore\n      swap1\n      0x01\n      add\n      swap1\n      0x20\n      add\n      dup1\n      dup4\n      gt\n      tag_122\n      jumpi\n      dup3\n      swap1\n      sub\n      0x1f\n      and\n      dup3\n      add\n      swap2\n    tag_120:\n      pop\n      pop\n      pop\n      pop\n      pop\n      swap4\n      pop\n      dup3\n      dup1\n      sload\n      tag_123\n      swap1\n      tag_79\n      jump\t// in\n    tag_123:\n      dup1\n      0x1f\n      add\n      0x20\n      dup1\n      swap2\n      div\n      mul\n      0x20\n      add\n      mload(0x40)\n      swap1\n      dup2\n      add\n      0x40\n      mstore\n      dup1\n      swap3\n      swap2\n      swap1\n      dup2\n      dup2\n      mstore\n      0x20\n      add\n      dup3\n      dup1\n      sload\n      tag_124\n      swap1\n      tag_79\n      jump\t// in\n    tag_124:\n      dup1\n      iszero\n      tag_125\n      jumpi\n      dup1\n      0x1f\n      lt\n      tag_126\n      jumpi\n      0x0100\n      dup1\n      dup4\n      sload\n      div\n      mul\n      dup4\n      mstore\n      swap2\n      0x20\n      add\n      swap2\n      jump(tag_125)\n    tag_126:\n      dup3\n      add\n      swap2\n      swap1\n      0x00\n      mstore\n      keccak256(0x00, 0x20)\n      swap1\n    tag_127:\n      dup2\n      sload\n      dup2\n      mstore\n      swap1\n      0x01\n      add\n      swap1\n      0x20\n      add\n      dup1\n      dup4\n      gt\n      tag_127\n      jumpi\n      dup3\n      swap1\n      sub\n      0x1f\n      and\n      dup3\n      add\n      swap2\n    tag_125:\n      pop\n      pop\n      pop\n      pop\n      pop\n      swap3\n      pop\n      dup2\n      dup1\n      sload\n      tag_128\n      swap1\n      tag_79\n      jump\t// in\n    tag_128:\n      dup1\n      0x1f\n      add\n      0x20\n      dup1\n      swap2\n      div\n      mul\n      0x20\n      add\n      mload(0x40)\n      swap1\n      dup2\n      add\n      0x40\n      mstore\n      dup1\n      swap3\n      swap2\n      swap1\n      dup2\n      dup2\n      mstore\n      0x20\n      add\n      dup3\n      dup1\n      sload\n      tag_129\n      swap1\n      tag_79\n      jump\t// in\n    tag_129:\n      dup1\n      iszero\n      tag_130\n      jumpi\n      dup1\n      0x1f\n      lt\n      tag_131\n      jumpi\n      0x0100\n      dup1\n      dup4\n      sload\n      div\n      mul\n      dup4\n      mstore\n      swap2\n      0x20\n      add\n      swap2\n      jump(tag_130)\n    tag_131:\n      dup3\n      add\n      swap2\n      swap1\n      0x00\n      mstore\n      keccak256(0x00, 0x20)\n      swap1\n    tag_132:\n      dup2\n      sload\n      dup2\n      mstore\n      swap1\n      0x01\n      add\n      swap1\n      0x20\n      add\n      dup1\n      dup4\n      gt\n      tag_132\n      jumpi\n      dup3\n      swap1\n      sub\n      0x1f\n      and\n      dup3\n      add\n      swap2\n    tag_130:\n      pop\n      pop\n      pop\n      pop\n      pop\n      swap2\n      pop\n      dup1\n      dup1\n      sload\n      tag_133\n      swap1\n      tag_79\n      jump\t// in\n    tag_133:\n      dup1\n      0x1f\n      add\n      0x20\n      dup1\n      swap2\n      div\n      mul\n      0x20\n      add\n      mload(0x40)\n      swap1\n      dup2\n      add\n      0x40\n      mstore\n      dup1\n      swap3\n      swap2\n      swap1\n      dup2\n      dup2\n      mstore\n      0x20\n      add\n      dup3\n      dup1\n      sload\n      tag_134\n      swap1\n      tag_79\n      jump\t// in\n    tag_134:\n      dup1\n      iszero\n      tag_135\n      jumpi\n      dup1\n      0x1f\n      lt\n      tag_136\n      jumpi\n      0x0100\n      dup1\n      dup4\n      sload\n      div\n      mul\n      dup4\n      mstore\n      swap2\n      0x20\n      add\n      swap2\n      jump(tag_135)\n    tag_136:\n      dup3\n      add\n      swap2\n      swap1\n      0x00\n      mstore\n      keccak256(0x00, 0x20)\n      swap1\n    tag_137:\n      dup2\n      sload\n      dup2\n      mstore\n      swap1\n      0x01\n      add\n      swap1\n      0x20\n      add\n      dup1\n      dup4\n      gt\n      tag_137\n      jumpi\n      dup3\n      swap1\n      sub\n      0x1f\n      and\n      dup3\n      add\n      swap2\n    tag_135:\n      pop\n      pop\n      pop\n      pop\n      pop\n      swap1\n      pop\n      swap5\n      pop\n      swap5\n      pop\n      swap5\n      pop\n      swap5\n      pop\n      swap5\n      pop\n        /* \"smartContract/safeLife.sol\":3006:3337  function getStoreDrugs(string memory _orderId)public view returns(string memory, string memory, string memory, string memory, string memory){\r... */\n      swap2\n      swap4\n      swap6\n      swap1\n      swap3\n      swap5\n      pop\n      jump\t// out\n        /* \"smartContract/safeLife.sol\":6809:6994  function setOrderDAR(string memory _orderId, string memory _productionIdNums) public\r... */\n    tag_46:\n        /* \"smartContract/safeLife.sol\":1631:1641  msg.sender */\n      caller\n        /* \"smartContract/safeLife.sol\":1621:1641  seller == msg.sender */\n      0xffffffffffffffffffffffffffffffffffffffff\n      and\n        /* \"smartContract/safeLife.sol\":1621:1627  seller */\n      0x06\n      0x00\n      swap1\n      sload\n      swap1\n      0x0100\n      exp\n      swap1\n      div\n      0xffffffffffffffffffffffffffffffffffffffff\n      and\n        /* \"smartContract/safeLife.sol\":1621:1641  seller == msg.sender */\n      0xffffffffffffffffffffffffffffffffffffffff\n      and\n      eq\n        /* \"smartContract/safeLife.sol\":1612:1671  require (seller == msg.sender, \"Message from Manufacturer\") */\n      tag_139\n      jumpi\n      mload(0x40)\n      0x08c379a000000000000000000000000000000000000000000000000000000000\n      dup2\n      mstore\n      0x04\n      add\n      tag_140\n      swap1\n      tag_141\n      jump\t// in\n    tag_140:\n      mload(0x40)\n      dup1\n      swap2\n      sub\n      swap1\n      revert\n    tag_139:\n        /* \"smartContract/safeLife.sol\":6933:6941  _orderId */\n      dup2\n        /* \"smartContract/safeLife.sol\":6923:6930  orderId */\n      0x01\n        /* \"smartContract/safeLife.sol\":6923:6941  orderId = _orderId */\n      swap1\n      dup1\n      mload\n      swap1\n      0x20\n      add\n      swap1\n      tag_143\n      swap3\n      swap2\n      swap1\n      tag_144\n      jump\t// in\n    tag_143:\n      pop\n        /* \"smartContract/safeLife.sol\":6970:6987  _productionIdNums */\n      dup1\n        /* \"smartContract/safeLife.sol\":6951:6967  productionIdNums */\n      0x03\n        /* \"smartContract/safeLife.sol\":6951:6987  productionIdNums = _productionIdNums */\n      swap1\n      dup1\n      mload\n      swap1\n      0x20\n      add\n      swap1\n      tag_145\n      swap3\n      swap2\n      swap1\n      tag_144\n      jump\t// in\n    tag_145:\n      pop\n        /* \"smartContract/safeLife.sol\":6809:6994  function setOrderDAR(string memory _orderId, string memory _productionIdNums) public\r... */\n      pop\n      pop\n      jump\t// out\n        /* \"smartContract/safeLife.sol\":3951:4072  function getOrderStatusInfo() public view returns(string memory, string memory){\r... */\n    tag_48:\n        /* \"smartContract/safeLife.sol\":4001:4014  string memory */\n      0x60\n        /* \"smartContract/safeLife.sol\":4016:4029  string memory */\n      dup1\n        /* \"smartContract/safeLife.sol\":4048:4055  orderId */\n      0x01\n        /* \"smartContract/safeLife.sol\":4057:4063  status */\n      0x02\n        /* \"smartContract/safeLife.sol\":4041:4064  return(orderId, status) */\n      dup2\n      dup1\n      sload\n      tag_147\n      swap1\n      tag_79\n      jump\t// in\n    tag_147:\n      dup1\n      0x1f\n      add\n      0x20\n      dup1\n      swap2\n      div\n      mul\n      0x20\n      add\n      mload(0x40)\n      swap1\n      dup2\n      add\n      0x40\n      mstore\n      dup1\n      swap3\n      swap2\n      swap1\n      dup2\n      dup2\n      mstore\n      0x20\n      add\n      dup3\n      dup1\n      sload\n      tag_148\n      swap1\n      tag_79\n      jump\t// in\n    tag_148:\n      dup1\n      iszero\n      tag_149\n      jumpi\n      dup1\n      0x1f\n      lt\n      tag_150\n      jumpi\n      0x0100\n      dup1\n      dup4\n      sload\n      div\n      mul\n      dup4\n      mstore\n      swap2\n      0x20\n      add\n      swap2\n      jump(tag_149)\n    tag_150:\n      dup3\n      add\n      swap2\n      swap1\n      0x00\n      mstore\n      keccak256(0x00, 0x20)\n      swap1\n    tag_151:\n      dup2\n      sload\n      dup2\n      mstore\n      swap1\n      0x01\n      add\n      swap1\n      0x20\n      add\n      dup1\n      dup4\n      gt\n      tag_151\n      jumpi\n      dup3\n      swap1\n      sub\n      0x1f\n      and\n      dup3\n      add\n      swap2\n    tag_149:\n      pop\n      pop\n      pop\n      pop\n      pop\n      swap2\n      pop\n      dup1\n      dup1\n      sload\n      tag_152\n      swap1\n      tag_79\n      jump\t// in\n    tag_152:\n      dup1\n      0x1f\n      add\n      0x20\n      dup1\n      swap2\n      div\n      mul\n      0x20\n      add\n      mload(0x40)\n      swap1\n      dup2\n      add\n      0x40\n      mstore\n      dup1\n      swap3\n      swap2\n      swap1\n      dup2\n      dup2\n      mstore\n      0x20\n      add\n      dup3\n      dup1\n      sload\n      tag_153\n      swap1\n      tag_79\n      jump\t// in\n    tag_153:\n      dup1\n      iszero\n      tag_154\n      jumpi\n      dup1\n      0x1f\n      lt\n      tag_155\n      jumpi\n      0x0100\n      dup1\n      dup4\n      sload\n      div\n      mul\n      dup4\n      mstore\n      swap2\n      0x20\n      add\n      swap2\n      jump(tag_154)\n    tag_155:\n      dup3\n      add\n      swap2\n      swap1\n      0x00\n      mstore\n      keccak256(0x00, 0x20)\n      swap1\n    tag_156:\n      dup2\n      sload\n      dup2\n      mstore\n      swap1\n      0x01\n      add\n      swap1\n      0x20\n      add\n      dup1\n      dup4\n      gt\n      tag_156\n      jumpi\n      dup3\n      swap1\n      sub\n      0x1f\n      and\n      dup3\n      add\n      swap2\n    tag_154:\n      pop\n      pop\n      pop\n      pop\n      pop\n      swap1\n      pop\n      swap2\n      pop\n      swap2\n      pop\n        /* \"smartContract/safeLife.sol\":3951:4072  function getOrderStatusInfo() public view returns(string memory, string memory){\r... */\n      swap1\n      swap2\n      jump\t// out\n        /* \"smartContract/safeLife.sol\":3413:3658  function getQRInfo(string memory _productionId) public view returns(string memory, string memory, string memory){\r... */\n    tag_52:\n        /* \"smartContract/safeLife.sol\":3481:3494  string memory */\n      0x60\n        /* \"smartContract/safeLife.sol\":3496:3509  string memory */\n      dup1\n        /* \"smartContract/safeLife.sol\":3511:3524  string memory */\n      0x60\n        /* \"smartContract/safeLife.sol\":3543:3551  pharmaQR */\n      0x05\n        /* \"smartContract/safeLife.sol\":3552:3565  _productionId */\n      dup5\n        /* \"smartContract/safeLife.sol\":3543:3566  pharmaQR[_productionId] */\n      mload(0x40)\n      tag_158\n      swap2\n      swap1\n      tag_108\n      jump\t// in\n    tag_158:\n      swap1\n      dup2\n      mstore\n      0x20\n      add\n      mload(0x40)\n      dup1\n      swap2\n      sub\n      swap1\n      keccak256\n        /* \"smartContract/safeLife.sol\":3543:3579  pharmaQR[_productionId].productionId */\n      0x00\n      add\n        /* \"smartContract/safeLife.sol\":3581:3589  pharmaQR */\n      0x05\n        /* \"smartContract/safeLife.sol\":3590:3603  _productionId */\n      dup6\n        /* \"smartContract/safeLife.sol\":3581:3604  pharmaQR[_productionId] */\n      mload(0x40)\n      tag_159\n      swap2\n      swap1\n      tag_108\n      jump\t// in\n    tag_159:\n      swap1\n      dup2\n      mstore\n      0x20\n      add\n      mload(0x40)\n      dup1\n      swap2\n      sub\n      swap1\n      keccak256\n        /* \"smartContract/safeLife.sol\":3581:3614  pharmaQR[_productionId].secretKey */\n      0x01\n      add\n        /* \"smartContract/safeLife.sol\":3616:3624  pharmaQR */\n      0x05\n        /* \"smartContract/safeLife.sol\":3625:3638  _productionId */\n      dup7\n        /* \"smartContract/safeLife.sol\":3616:3639  pharmaQR[_productionId] */\n      mload(0x40)\n      tag_160\n      swap2\n      swap1\n      tag_108\n      jump\t// in\n    tag_160:\n      swap1\n      dup2\n      mstore\n      0x20\n      add\n      mload(0x40)\n      dup1\n      swap2\n      sub\n      swap1\n      keccak256\n        /* \"smartContract/safeLife.sol\":3616:3649  pharmaQR[_productionId].darNumber */\n      0x02\n      add\n        /* \"smartContract/safeLife.sol\":3536:3650  return(pharmaQR[_productionId].productionId, pharmaQR[_productionId].secretKey, pharmaQR[_productionId].darNumber) */\n      dup3\n      dup1\n      sload\n      tag_161\n      swap1\n      tag_79\n      jump\t// in\n    tag_161:\n      dup1\n      0x1f\n      add\n      0x20\n      dup1\n      swap2\n      div\n      mul\n      0x20\n      add\n      mload(0x40)\n      swap1\n      dup2\n      add\n      0x40\n      mstore\n      dup1\n      swap3\n      swap2\n      swap1\n      dup2\n      dup2\n      mstore\n      0x20\n      add\n      dup3\n      dup1\n      sload\n      tag_162\n      swap1\n      tag_79\n      jump\t// in\n    tag_162:\n      dup1\n      iszero\n      tag_163\n      jumpi\n      dup1\n      0x1f\n      lt\n      tag_164\n      jumpi\n      0x0100\n      dup1\n      dup4\n      sload\n      div\n      mul\n      dup4\n      mstore\n      swap2\n      0x20\n      add\n      swap2\n      jump(tag_163)\n    tag_164:\n      dup3\n      add\n      swap2\n      swap1\n      0x00\n      mstore\n      keccak256(0x00, 0x20)\n      swap1\n    tag_165:\n      dup2\n      sload\n      dup2\n      mstore\n      swap1\n      0x01\n      add\n      swap1\n      0x20\n      add\n      dup1\n      dup4\n      gt\n      tag_165\n      jumpi\n      dup3\n      swap1\n      sub\n      0x1f\n      and\n      dup3\n      add\n      swap2\n    tag_163:\n      pop\n      pop\n      pop\n      pop\n      pop\n      swap3\n      pop\n      dup2\n      dup1\n      sload\n      tag_166\n      swap1\n      tag_79\n      jump\t// in\n    tag_166:\n      dup1\n      0x1f\n      add\n      0x20\n      dup1\n      swap2\n      div\n      mul\n      0x20\n      add\n      mload(0x40)\n      swap1\n      dup2\n      add\n      0x40\n      mstore\n      dup1\n      swap3\n      swap2\n      swap1\n      dup2\n      dup2\n      mstore\n      0x20\n      add\n      dup3\n      dup1\n      sload\n      tag_167\n      swap1\n      tag_79\n      jump\t// in\n    tag_167:\n      dup1\n      iszero\n      tag_168\n      jumpi\n      dup1\n      0x1f\n      lt\n      tag_169\n      jumpi\n      0x0100\n      dup1\n      dup4\n      sload\n      div\n      mul\n      dup4\n      mstore\n      swap2\n      0x20\n      add\n      swap2\n      jump(tag_168)\n    tag_169:\n      dup3\n      add\n      swap2\n      swap1\n      0x00\n      mstore\n      keccak256(0x00, 0x20)\n      swap1\n    tag_170:\n      dup2\n      sload\n      dup2\n      mstore\n      swap1\n      0x01\n      add\n      swap1\n      0x20\n      add\n      dup1\n      dup4\n      gt\n      tag_170\n      jumpi\n      dup3\n      swap1\n      sub\n      0x1f\n      and\n      dup3\n      add\n      swap2\n    tag_168:\n      pop\n      pop\n      pop\n      pop\n      pop\n      swap2\n      pop\n      dup1\n      dup1\n      sload\n      tag_171\n      swap1\n      tag_79\n      jump\t// in\n    tag_171:\n      dup1\n      0x1f\n      add\n      0x20\n      dup1\n      swap2\n      div\n      mul\n      0x20\n      add\n      mload(0x40)\n      swap1\n      dup2\n      add\n      0x40\n      mstore\n      dup1\n      swap3\n      swap2\n      swap1\n      dup2\n      dup2\n      mstore\n      0x20\n      add\n      dup3\n      dup1\n      sload\n      tag_172\n      swap1\n      tag_79\n      jump\t// in\n    tag_172:\n      dup1\n      iszero\n      tag_173\n      jumpi\n      dup1\n      0x1f\n      lt\n      tag_174\n      jumpi\n      0x0100\n      dup1\n      dup4\n      sload\n      div\n      mul\n      dup4\n      mstore\n      swap2\n      0x20\n      add\n      swap2\n      jump(tag_173)\n    tag_174:\n      dup3\n      add\n      swap2\n      swap1\n      0x00\n      mstore\n      keccak256(0x00, 0x20)\n      swap1\n    tag_175:\n      dup2\n      sload\n      dup2\n      mstore\n      swap1\n      0x01\n      add\n      swap1\n      0x20\n      add\n      dup1\n      dup4\n      gt\n      tag_175\n      jumpi\n      dup3\n      swap1\n      sub\n      0x1f\n      and\n      dup3\n      add\n      swap2\n    tag_173:\n      pop\n      pop\n      pop\n      pop\n      pop\n      swap1\n      pop\n      swap3\n      pop\n      swap3\n      pop\n      swap3\n      pop\n        /* \"smartContract/safeLife.sol\":3413:3658  function getQRInfo(string memory _productionId) public view returns(string memory, string memory, string memory){\r... */\n      swap2\n      swap4\n      swap1\n      swap3\n      pop\n      jump\t// out\n        /* \"smartContract/safeLife.sol\":1301:1321  address public buyer */\n    tag_55:\n      0x07\n      0x00\n      swap1\n      sload\n      swap1\n      0x0100\n      exp\n      swap1\n      div\n      0xffffffffffffffffffffffffffffffffffffffff\n      and\n      dup2\n      jump\t// out\n        /* \"smartContract/safeLife.sol\":7161:7255  function isSeller_() public view returns (bool) {\r... */\n    tag_58:\n        /* \"smartContract/safeLife.sol\":7203:7207  bool */\n      0x00\n        /* \"smartContract/safeLife.sol\":7241:7247  seller */\n      0x06\n      0x00\n      swap1\n      sload\n      swap1\n      0x0100\n      exp\n      swap1\n      div\n      0xffffffffffffffffffffffffffffffffffffffff\n      and\n        /* \"smartContract/safeLife.sol\":7227:7247  msg.sender == seller */\n      0xffffffffffffffffffffffffffffffffffffffff\n      and\n        /* \"smartContract/safeLife.sol\":7227:7237  msg.sender */\n      caller\n        /* \"smartContract/safeLife.sol\":7227:7247  msg.sender == seller */\n      0xffffffffffffffffffffffffffffffffffffffff\n      and\n      eq\n        /* \"smartContract/safeLife.sol\":7220:7247  return msg.sender == seller */\n      swap1\n      pop\n        /* \"smartContract/safeLife.sol\":7161:7255  function isSeller_() public view returns (bool) {\r... */\n      swap1\n      jump\t// out\n        /* \"smartContract/safeLife.sol\":4382:4972  function storeDrugs(string memory _orderId, string memory _buyer, string memory _seller,  string memory _fromAdd, string memory _toAdd) public\r... */\n    tag_63:\n        /* \"smartContract/safeLife.sol\":1631:1641  msg.sender */\n      caller\n        /* \"smartContract/safeLife.sol\":1621:1641  seller == msg.sender */\n      0xffffffffffffffffffffffffffffffffffffffff\n      and\n        /* \"smartContract/safeLife.sol\":1621:1627  seller */\n      0x06\n      0x00\n      swap1\n      sload\n      swap1\n      0x0100\n      exp\n      swap1\n      div\n      0xffffffffffffffffffffffffffffffffffffffff\n      and\n        /* \"smartContract/safeLife.sol\":1621:1641  seller == msg.sender */\n      0xffffffffffffffffffffffffffffffffffffffff\n      and\n      eq\n        /* \"smartContract/safeLife.sol\":1612:1671  require (seller == msg.sender, \"Message from Manufacturer\") */\n      tag_178\n      jumpi\n      mload(0x40)\n      0x08c379a000000000000000000000000000000000000000000000000000000000\n      dup2\n      mstore\n      0x04\n      add\n      tag_179\n      swap1\n      tag_141\n      jump\t// in\n    tag_179:\n      mload(0x40)\n      dup1\n      swap2\n      sub\n      swap1\n      revert\n    tag_178:\n        /* \"smartContract/safeLife.sol\":4566:4574  _orderId */\n      dup5\n        /* \"smartContract/safeLife.sol\":2218:2236  Role.DepotIncharge */\n      0x01\n        /* \"smartContract/safeLife.sol\":2185:2236  pharmaceutical[_orderId].role != Role.DepotIncharge */\n      0x02\n      dup2\n      gt\n      iszero\n      tag_181\n      jumpi\n      mstore(0x00, 0x4e487b7100000000000000000000000000000000000000000000000000000000)\n      mstore(0x04, 0x21)\n      revert(0x00, 0x24)\n    tag_181:\n        /* \"smartContract/safeLife.sol\":2185:2199  pharmaceutical */\n      0x04\n        /* \"smartContract/safeLife.sol\":2200:2208  _orderId */\n      dup3\n        /* \"smartContract/safeLife.sol\":2185:2209  pharmaceutical[_orderId] */\n      mload(0x40)\n      tag_182\n      swap2\n      swap1\n      tag_108\n      jump\t// in\n    tag_182:\n      swap1\n      dup2\n      mstore\n      0x20\n      add\n      mload(0x40)\n      dup1\n      swap2\n      sub\n      swap1\n      keccak256\n        /* \"smartContract/safeLife.sol\":2185:2214  pharmaceutical[_orderId].role */\n      0x05\n      add\n      0x00\n      swap1\n      sload\n      swap1\n      0x0100\n      exp\n      swap1\n      div\n      0xff\n      and\n        /* \"smartContract/safeLife.sol\":2185:2236  pharmaceutical[_orderId].role != Role.DepotIncharge */\n      0x02\n      dup2\n      gt\n      iszero\n      tag_183\n      jumpi\n      mstore(0x00, 0x4e487b7100000000000000000000000000000000000000000000000000000000)\n      mstore(0x04, 0x21)\n      revert(0x00, 0x24)\n    tag_183:\n      eq\n      iszero\n        /* \"smartContract/safeLife.sol\":2175:2283  require ((pharmaceutical[_orderId].role != Role.DepotIncharge), \"Something is Wrong from DepotIncharge :( \") */\n      tag_184\n      jumpi\n      mload(0x40)\n      0x08c379a000000000000000000000000000000000000000000000000000000000\n      dup2\n      mstore\n      0x04\n      add\n      tag_185\n      swap1\n      tag_186\n      jump\t// in\n    tag_185:\n      mload(0x40)\n      dup1\n      swap2\n      sub\n      swap1\n      revert\n    tag_184:\n        /* \"smartContract/safeLife.sol\":4598:4606  _orderId */\n      dup6\n        /* \"smartContract/safeLife.sol\":2629:2644  Role.Pharmacist */\n      0x02\n        /* \"smartContract/safeLife.sol\":2596:2644  pharmaceutical[_orderId].role != Role.Pharmacist */\n      dup1\n      dup2\n      gt\n      iszero\n      tag_188\n      jumpi\n      mstore(0x00, 0x4e487b7100000000000000000000000000000000000000000000000000000000)\n      mstore(0x04, 0x21)\n      revert(0x00, 0x24)\n    tag_188:\n        /* \"smartContract/safeLife.sol\":2596:2610  pharmaceutical */\n      0x04\n        /* \"smartContract/safeLife.sol\":2611:2619  _orderId */\n      dup3\n        /* \"smartContract/safeLife.sol\":2596:2620  pharmaceutical[_orderId] */\n      mload(0x40)\n      tag_189\n      swap2\n      swap1\n      tag_108\n      jump\t// in\n    tag_189:\n      swap1\n      dup2\n      mstore\n      0x20\n      add\n      mload(0x40)\n      dup1\n      swap2\n      sub\n      swap1\n      keccak256\n        /* \"smartContract/safeLife.sol\":2596:2625  pharmaceutical[_orderId].role */\n      0x05\n      add\n      0x00\n      swap1\n      sload\n      swap1\n      0x0100\n      exp\n      swap1\n      div\n      0xff\n      and\n        /* \"smartContract/safeLife.sol\":2596:2644  pharmaceutical[_orderId].role != Role.Pharmacist */\n      0x02\n      dup2\n      gt\n      iszero\n      tag_190\n      jumpi\n      mstore(0x00, 0x4e487b7100000000000000000000000000000000000000000000000000000000)\n      mstore(0x04, 0x21)\n      revert(0x00, 0x24)\n    tag_190:\n      eq\n      iszero\n        /* \"smartContract/safeLife.sol\":2586:2688  require ((pharmaceutical[_orderId].role != Role.Pharmacist), \"Something is Wrong from Pharmacist :( \") */\n      tag_191\n      jumpi\n      mload(0x40)\n      0x08c379a000000000000000000000000000000000000000000000000000000000\n      dup2\n      mstore\n      0x04\n      add\n      tag_192\n      swap1\n      tag_193\n      jump\t// in\n    tag_192:\n      mload(0x40)\n      dup1\n      swap2\n      sub\n      swap1\n      revert\n    tag_191:\n        /* \"smartContract/safeLife.sol\":4659:4667  _orderId */\n      dup7\n        /* \"smartContract/safeLife.sol\":4624:4638  pharmaceutical */\n      0x04\n        /* \"smartContract/safeLife.sol\":4639:4647  _orderId */\n      dup9\n        /* \"smartContract/safeLife.sol\":4624:4648  pharmaceutical[_orderId] */\n      mload(0x40)\n      tag_195\n      swap2\n      swap1\n      tag_108\n      jump\t// in\n    tag_195:\n      swap1\n      dup2\n      mstore\n      0x20\n      add\n      mload(0x40)\n      dup1\n      swap2\n      sub\n      swap1\n      keccak256\n        /* \"smartContract/safeLife.sol\":4624:4656  pharmaceutical[_orderId].orderId */\n      0x00\n      add\n        /* \"smartContract/safeLife.sol\":4624:4667  pharmaceutical[_orderId].orderId = _orderId */\n      swap1\n      dup1\n      mload\n      swap1\n      0x20\n      add\n      swap1\n      tag_196\n      swap3\n      swap2\n      swap1\n      tag_144\n      jump\t// in\n    tag_196:\n      pop\n        /* \"smartContract/safeLife.sol\":4711:4717  _buyer */\n      dup6\n        /* \"smartContract/safeLife.sol\":4678:4692  pharmaceutical */\n      0x04\n        /* \"smartContract/safeLife.sol\":4693:4701  _orderId */\n      dup9\n        /* \"smartContract/safeLife.sol\":4678:4702  pharmaceutical[_orderId] */\n      mload(0x40)\n      tag_197\n      swap2\n      swap1\n      tag_108\n      jump\t// in\n    tag_197:\n      swap1\n      dup2\n      mstore\n      0x20\n      add\n      mload(0x40)\n      dup1\n      swap2\n      sub\n      swap1\n      keccak256\n        /* \"smartContract/safeLife.sol\":4678:4708  pharmaceutical[_orderId].buyer */\n      0x01\n      add\n        /* \"smartContract/safeLife.sol\":4678:4717  pharmaceutical[_orderId].buyer = _buyer */\n      swap1\n      dup1\n      mload\n      swap1\n      0x20\n      add\n      swap1\n      tag_198\n      swap3\n      swap2\n      swap1\n      tag_144\n      jump\t// in\n    tag_198:\n      pop\n        /* \"smartContract/safeLife.sol\":4762:4769  _seller */\n      dup5\n        /* \"smartContract/safeLife.sol\":4728:4742  pharmaceutical */\n      0x04\n        /* \"smartContract/safeLife.sol\":4743:4751  _orderId */\n      dup9\n        /* \"smartContract/safeLife.sol\":4728:4752  pharmaceutical[_orderId] */\n      mload(0x40)\n      tag_199\n      swap2\n      swap1\n      tag_108\n      jump\t// in\n    tag_199:\n      swap1\n      dup2\n      mstore\n      0x20\n      add\n      mload(0x40)\n      dup1\n      swap2\n      sub\n      swap1\n      keccak256\n        /* \"smartContract/safeLife.sol\":4728:4759  pharmaceutical[_orderId].seller */\n      0x02\n      add\n        /* \"smartContract/safeLife.sol\":4728:4769  pharmaceutical[_orderId].seller = _seller */\n      swap1\n      dup1\n      mload\n      swap1\n      0x20\n      add\n      swap1\n      tag_200\n      swap3\n      swap2\n      swap1\n      tag_144\n      jump\t// in\n    tag_200:\n      pop\n        /* \"smartContract/safeLife.sol\":4815:4823  _fromAdd */\n      dup4\n        /* \"smartContract/safeLife.sol\":4780:4794  pharmaceutical */\n      0x04\n        /* \"smartContract/safeLife.sol\":4795:4803  _orderId */\n      dup9\n        /* \"smartContract/safeLife.sol\":4780:4804  pharmaceutical[_orderId] */\n      mload(0x40)\n      tag_201\n      swap2\n      swap1\n      tag_108\n      jump\t// in\n    tag_201:\n      swap1\n      dup2\n      mstore\n      0x20\n      add\n      mload(0x40)\n      dup1\n      swap2\n      sub\n      swap1\n      keccak256\n        /* \"smartContract/safeLife.sol\":4780:4812  pharmaceutical[_orderId].fromAdd */\n      0x03\n      add\n        /* \"smartContract/safeLife.sol\":4780:4823  pharmaceutical[_orderId].fromAdd = _fromAdd */\n      swap1\n      dup1\n      mload\n      swap1\n      0x20\n      add\n      swap1\n      tag_202\n      swap3\n      swap2\n      swap1\n      tag_144\n      jump\t// in\n    tag_202:\n      pop\n        /* \"smartContract/safeLife.sol\":4867:4873  _toAdd */\n      dup3\n        /* \"smartContract/safeLife.sol\":4834:4848  pharmaceutical */\n      0x04\n        /* \"smartContract/safeLife.sol\":4849:4857  _orderId */\n      dup9\n        /* \"smartContract/safeLife.sol\":4834:4858  pharmaceutical[_orderId] */\n      mload(0x40)\n      tag_203\n      swap2\n      swap1\n      tag_108\n      jump\t// in\n    tag_203:\n      swap1\n      dup2\n      mstore\n      0x20\n      add\n      mload(0x40)\n      dup1\n      swap2\n      sub\n      swap1\n      keccak256\n        /* \"smartContract/safeLife.sol\":4834:4864  pharmaceutical[_orderId].toAdd */\n      0x04\n      add\n        /* \"smartContract/safeLife.sol\":4834:4873  pharmaceutical[_orderId].toAdd = _toAdd */\n      swap1\n      dup1\n      mload\n      swap1\n      0x20\n      add\n      swap1\n      tag_204\n      swap3\n      swap2\n      swap1\n      tag_144\n      jump\t// in\n    tag_204:\n      pop\n        /* \"smartContract/safeLife.sol\":4889:4964  logDrugInfo(_orderId, _buyer, _seller, _fromAdd, _toAdd, \"Depot In-charge\") */\n      0xca01b822d94f4b3dfa45d841ecfe8823af53b351e054ec8aace6ce43ad80b7ef\n        /* \"smartContract/safeLife.sol\":4901:4909  _orderId */\n      dup8\n        /* \"smartContract/safeLife.sol\":4911:4917  _buyer */\n      dup8\n        /* \"smartContract/safeLife.sol\":4919:4926  _seller */\n      dup8\n        /* \"smartContract/safeLife.sol\":4928:4936  _fromAdd */\n      dup8\n        /* \"smartContract/safeLife.sol\":4938:4944  _toAdd */\n      dup8\n        /* \"smartContract/safeLife.sol\":4889:4964  logDrugInfo(_orderId, _buyer, _seller, _fromAdd, _toAdd, \"Depot In-charge\") */\n      mload(0x40)\n      tag_205\n      swap6\n      swap5\n      swap4\n      swap3\n      swap2\n      swap1\n      tag_206\n      jump\t// in\n    tag_205:\n      mload(0x40)\n      dup1\n      swap2\n      sub\n      swap1\n      log1\n        /* \"smartContract/safeLife.sol\":2294:2295  _ */\n      pop\n        /* \"smartContract/safeLife.sol\":1683:1684  _ */\n      pop\n        /* \"smartContract/safeLife.sol\":4382:4972  function storeDrugs(string memory _orderId, string memory _buyer, string memory _seller,  string memory _fromAdd, string memory _toAdd) public\r... */\n      pop\n      pop\n      pop\n      pop\n      pop\n      jump\t// out\n        /* \"smartContract/safeLife.sol\":5738:6219  function createQR(string memory _productionId, string memory _secretKey, string memory _darNumber) public\r... */\n    tag_67:\n        /* \"smartContract/safeLife.sol\":1631:1641  msg.sender */\n      caller\n        /* \"smartContract/safeLife.sol\":1621:1641  seller == msg.sender */\n      0xffffffffffffffffffffffffffffffffffffffff\n      and\n        /* \"smartContract/safeLife.sol\":1621:1627  seller */\n      0x06\n      0x00\n      swap1\n      sload\n      swap1\n      0x0100\n      exp\n      swap1\n      div\n      0xffffffffffffffffffffffffffffffffffffffff\n      and\n        /* \"smartContract/safeLife.sol\":1621:1641  seller == msg.sender */\n      0xffffffffffffffffffffffffffffffffffffffff\n      and\n      eq\n        /* \"smartContract/safeLife.sol\":1612:1671  require (seller == msg.sender, \"Message from Manufacturer\") */\n      tag_208\n      jumpi\n      mload(0x40)\n      0x08c379a000000000000000000000000000000000000000000000000000000000\n      dup2\n      mstore\n      0x04\n      add\n      tag_209\n      swap1\n      tag_141\n      jump\t// in\n    tag_209:\n      mload(0x40)\n      dup1\n      swap2\n      sub\n      swap1\n      revert\n    tag_208:\n        /* \"smartContract/safeLife.sol\":5889:5902  _productionId */\n      dup3\n        /* \"smartContract/safeLife.sol\":2429:2447  Role.DepotIncharge */\n      0x01\n        /* \"smartContract/safeLife.sol\":2397:2447  pharmaQR[_productionId].role != Role.DepotIncharge */\n      0x02\n      dup2\n      gt\n      iszero\n      tag_211\n      jumpi\n      mstore(0x00, 0x4e487b7100000000000000000000000000000000000000000000000000000000)\n      mstore(0x04, 0x21)\n      revert(0x00, 0x24)\n    tag_211:\n        /* \"smartContract/safeLife.sol\":2397:2405  pharmaQR */\n      0x05\n        /* \"smartContract/safeLife.sol\":2406:2419  _productionId */\n      dup3\n        /* \"smartContract/safeLife.sol\":2397:2420  pharmaQR[_productionId] */\n      mload(0x40)\n      tag_212\n      swap2\n      swap1\n      tag_108\n      jump\t// in\n    tag_212:\n      swap1\n      dup2\n      mstore\n      0x20\n      add\n      mload(0x40)\n      dup1\n      swap2\n      sub\n      swap1\n      keccak256\n        /* \"smartContract/safeLife.sol\":2397:2425  pharmaQR[_productionId].role */\n      0x03\n      add\n      0x00\n      swap1\n      sload\n      swap1\n      0x0100\n      exp\n      swap1\n      div\n      0xff\n      and\n        /* \"smartContract/safeLife.sol\":2397:2447  pharmaQR[_productionId].role != Role.DepotIncharge */\n      0x02\n      dup2\n      gt\n      iszero\n      tag_213\n      jumpi\n      mstore(0x00, 0x4e487b7100000000000000000000000000000000000000000000000000000000)\n      mstore(0x04, 0x21)\n      revert(0x00, 0x24)\n    tag_213:\n      eq\n      iszero\n        /* \"smartContract/safeLife.sol\":2387:2494  require ((pharmaQR[_productionId].role != Role.DepotIncharge), \"Something is Wrong from DepotIncharge :( \") */\n      tag_214\n      jumpi\n      mload(0x40)\n      0x08c379a000000000000000000000000000000000000000000000000000000000\n      dup2\n      mstore\n      0x04\n      add\n      tag_215\n      swap1\n      tag_186\n      jump\t// in\n    tag_215:\n      mload(0x40)\n      dup1\n      swap2\n      sub\n      swap1\n      revert\n    tag_214:\n        /* \"smartContract/safeLife.sol\":5930:5943  _productionId */\n      dup4\n        /* \"smartContract/safeLife.sol\":2831:2846  Role.Pharmacist */\n      0x02\n        /* \"smartContract/safeLife.sol\":2799:2846  pharmaQR[_productionId].role != Role.Pharmacist */\n      dup1\n      dup2\n      gt\n      iszero\n      tag_217\n      jumpi\n      mstore(0x00, 0x4e487b7100000000000000000000000000000000000000000000000000000000)\n      mstore(0x04, 0x21)\n      revert(0x00, 0x24)\n    tag_217:\n        /* \"smartContract/safeLife.sol\":2799:2807  pharmaQR */\n      0x05\n        /* \"smartContract/safeLife.sol\":2808:2821  _productionId */\n      dup3\n        /* \"smartContract/safeLife.sol\":2799:2822  pharmaQR[_productionId] */\n      mload(0x40)\n      tag_218\n      swap2\n      swap1\n      tag_108\n      jump\t// in\n    tag_218:\n      swap1\n      dup2\n      mstore\n      0x20\n      add\n      mload(0x40)\n      dup1\n      swap2\n      sub\n      swap1\n      keccak256\n        /* \"smartContract/safeLife.sol\":2799:2827  pharmaQR[_productionId].role */\n      0x03\n      add\n      0x00\n      swap1\n      sload\n      swap1\n      0x0100\n      exp\n      swap1\n      div\n      0xff\n      and\n        /* \"smartContract/safeLife.sol\":2799:2846  pharmaQR[_productionId].role != Role.Pharmacist */\n      0x02\n      dup2\n      gt\n      iszero\n      tag_219\n      jumpi\n      mstore(0x00, 0x4e487b7100000000000000000000000000000000000000000000000000000000)\n      mstore(0x04, 0x21)\n      revert(0x00, 0x24)\n    tag_219:\n      eq\n      iszero\n        /* \"smartContract/safeLife.sol\":2789:2890  require ((pharmaQR[_productionId].role != Role.Pharmacist), \"Something is Wrong from Pharmacist :( \") */\n      tag_220\n      jumpi\n      mload(0x40)\n      0x08c379a000000000000000000000000000000000000000000000000000000000\n      dup2\n      mstore\n      0x04\n      add\n      tag_221\n      swap1\n      tag_193\n      jump\t// in\n    tag_221:\n      mload(0x40)\n      dup1\n      swap2\n      sub\n      swap1\n      revert\n    tag_220:\n        /* \"smartContract/safeLife.sol\":6000:6013  _productionId */\n      dup5\n        /* \"smartContract/safeLife.sol\":5961:5969  pharmaQR */\n      0x05\n        /* \"smartContract/safeLife.sol\":5970:5983  _productionId */\n      dup7\n        /* \"smartContract/safeLife.sol\":5961:5984  pharmaQR[_productionId] */\n      mload(0x40)\n      tag_223\n      swap2\n      swap1\n      tag_108\n      jump\t// in\n    tag_223:\n      swap1\n      dup2\n      mstore\n      0x20\n      add\n      mload(0x40)\n      dup1\n      swap2\n      sub\n      swap1\n      keccak256\n        /* \"smartContract/safeLife.sol\":5961:5997  pharmaQR[_productionId].productionId */\n      0x00\n      add\n        /* \"smartContract/safeLife.sol\":5961:6013  pharmaQR[_productionId].productionId = _productionId */\n      swap1\n      dup1\n      mload\n      swap1\n      0x20\n      add\n      swap1\n      tag_224\n      swap3\n      swap2\n      swap1\n      tag_144\n      jump\t// in\n    tag_224:\n      pop\n        /* \"smartContract/safeLife.sol\":6060:6070  _secretKey */\n      dup4\n        /* \"smartContract/safeLife.sol\":6024:6032  pharmaQR */\n      0x05\n        /* \"smartContract/safeLife.sol\":6033:6046  _productionId */\n      dup7\n        /* \"smartContract/safeLife.sol\":6024:6047  pharmaQR[_productionId] */\n      mload(0x40)\n      tag_225\n      swap2\n      swap1\n      tag_108\n      jump\t// in\n    tag_225:\n      swap1\n      dup2\n      mstore\n      0x20\n      add\n      mload(0x40)\n      dup1\n      swap2\n      sub\n      swap1\n      keccak256\n        /* \"smartContract/safeLife.sol\":6024:6057  pharmaQR[_productionId].secretKey */\n      0x01\n      add\n        /* \"smartContract/safeLife.sol\":6024:6070  pharmaQR[_productionId].secretKey = _secretKey */\n      swap1\n      dup1\n      mload\n      swap1\n      0x20\n      add\n      swap1\n      tag_226\n      swap3\n      swap2\n      swap1\n      tag_144\n      jump\t// in\n    tag_226:\n      pop\n        /* \"smartContract/safeLife.sol\":6117:6127  _darNumber */\n      dup3\n        /* \"smartContract/safeLife.sol\":6081:6089  pharmaQR */\n      0x05\n        /* \"smartContract/safeLife.sol\":6090:6103  _productionId */\n      dup7\n        /* \"smartContract/safeLife.sol\":6081:6104  pharmaQR[_productionId] */\n      mload(0x40)\n      tag_227\n      swap2\n      swap1\n      tag_108\n      jump\t// in\n    tag_227:\n      swap1\n      dup2\n      mstore\n      0x20\n      add\n      mload(0x40)\n      dup1\n      swap2\n      sub\n      swap1\n      keccak256\n        /* \"smartContract/safeLife.sol\":6081:6114  pharmaQR[_productionId].darNumber */\n      0x02\n      add\n        /* \"smartContract/safeLife.sol\":6081:6127  pharmaQR[_productionId].darNumber = _darNumber */\n      swap1\n      dup1\n      mload\n      swap1\n      0x20\n      add\n      swap1\n      tag_228\n      swap3\n      swap2\n      swap1\n      tag_144\n      jump\t// in\n    tag_228:\n      pop\n        /* \"smartContract/safeLife.sol\":6143:6211  logQRCodeInfo(_productionId, _secretKey, _darNumber, \"Manufacturer\") */\n      0xa53143509aa93494d734a0869ba24f59543e43a9685b510eff2b10cd7ea085d8\n        /* \"smartContract/safeLife.sol\":6157:6170  _productionId */\n      dup6\n        /* \"smartContract/safeLife.sol\":6172:6182  _secretKey */\n      dup6\n        /* \"smartContract/safeLife.sol\":6184:6194  _darNumber */\n      dup6\n        /* \"smartContract/safeLife.sol\":6143:6211  logQRCodeInfo(_productionId, _secretKey, _darNumber, \"Manufacturer\") */\n      mload(0x40)\n      tag_229\n      swap4\n      swap3\n      swap2\n      swap1\n      tag_230\n      jump\t// in\n    tag_229:\n      mload(0x40)\n      dup1\n      swap2\n      sub\n      swap1\n      log1\n        /* \"smartContract/safeLife.sol\":2505:2506  _ */\n      pop\n        /* \"smartContract/safeLife.sol\":1683:1684  _ */\n      pop\n        /* \"smartContract/safeLife.sol\":5738:6219  function createQR(string memory _productionId, string memory _secretKey, string memory _darNumber) public\r... */\n      pop\n      pop\n      pop\n      jump\t// out\n        /* \"smartContract/safeLife.sol\":5066:5656  function storeDrugsAgain(string memory _orderId, string memory _buyer, string memory _seller,  string memory _fromAdd, string memory _toAdd) public\r... */\n    tag_70:\n        /* \"smartContract/safeLife.sol\":1631:1641  msg.sender */\n      caller\n        /* \"smartContract/safeLife.sol\":1621:1641  seller == msg.sender */\n      0xffffffffffffffffffffffffffffffffffffffff\n      and\n        /* \"smartContract/safeLife.sol\":1621:1627  seller */\n      0x06\n      0x00\n      swap1\n      sload\n      swap1\n      0x0100\n      exp\n      swap1\n      div\n      0xffffffffffffffffffffffffffffffffffffffff\n      and\n        /* \"smartContract/safeLife.sol\":1621:1641  seller == msg.sender */\n      0xffffffffffffffffffffffffffffffffffffffff\n      and\n      eq\n        /* \"smartContract/safeLife.sol\":1612:1671  require (seller == msg.sender, \"Message from Manufacturer\") */\n      tag_232\n      jumpi\n      mload(0x40)\n      0x08c379a000000000000000000000000000000000000000000000000000000000\n      dup2\n      mstore\n      0x04\n      add\n      tag_233\n      swap1\n      tag_141\n      jump\t// in\n    tag_233:\n      mload(0x40)\n      dup1\n      swap2\n      sub\n      swap1\n      revert\n    tag_232:\n        /* \"smartContract/safeLife.sol\":5255:5263  _orderId */\n      dup5\n        /* \"smartContract/safeLife.sol\":2218:2236  Role.DepotIncharge */\n      0x01\n        /* \"smartContract/safeLife.sol\":2185:2236  pharmaceutical[_orderId].role != Role.DepotIncharge */\n      0x02\n      dup2\n      gt\n      iszero\n      tag_235\n      jumpi\n      mstore(0x00, 0x4e487b7100000000000000000000000000000000000000000000000000000000)\n      mstore(0x04, 0x21)\n      revert(0x00, 0x24)\n    tag_235:\n        /* \"smartContract/safeLife.sol\":2185:2199  pharmaceutical */\n      0x04\n        /* \"smartContract/safeLife.sol\":2200:2208  _orderId */\n      dup3\n        /* \"smartContract/safeLife.sol\":2185:2209  pharmaceutical[_orderId] */\n      mload(0x40)\n      tag_236\n      swap2\n      swap1\n      tag_108\n      jump\t// in\n    tag_236:\n      swap1\n      dup2\n      mstore\n      0x20\n      add\n      mload(0x40)\n      dup1\n      swap2\n      sub\n      swap1\n      keccak256\n        /* \"smartContract/safeLife.sol\":2185:2214  pharmaceutical[_orderId].role */\n      0x05\n      add\n      0x00\n      swap1\n      sload\n      swap1\n      0x0100\n      exp\n      swap1\n      div\n      0xff\n      and\n        /* \"smartContract/safeLife.sol\":2185:2236  pharmaceutical[_orderId].role != Role.DepotIncharge */\n      0x02\n      dup2\n      gt\n      iszero\n      tag_237\n      jumpi\n      mstore(0x00, 0x4e487b7100000000000000000000000000000000000000000000000000000000)\n      mstore(0x04, 0x21)\n      revert(0x00, 0x24)\n    tag_237:\n      eq\n      iszero\n        /* \"smartContract/safeLife.sol\":2175:2283  require ((pharmaceutical[_orderId].role != Role.DepotIncharge), \"Something is Wrong from DepotIncharge :( \") */\n      tag_238\n      jumpi\n      mload(0x40)\n      0x08c379a000000000000000000000000000000000000000000000000000000000\n      dup2\n      mstore\n      0x04\n      add\n      tag_239\n      swap1\n      tag_186\n      jump\t// in\n    tag_239:\n      mload(0x40)\n      dup1\n      swap2\n      sub\n      swap1\n      revert\n    tag_238:\n        /* \"smartContract/safeLife.sol\":5287:5295  _orderId */\n      dup6\n        /* \"smartContract/safeLife.sol\":2629:2644  Role.Pharmacist */\n      0x02\n        /* \"smartContract/safeLife.sol\":2596:2644  pharmaceutical[_orderId].role != Role.Pharmacist */\n      dup1\n      dup2\n      gt\n      iszero\n      tag_241\n      jumpi\n      mstore(0x00, 0x4e487b7100000000000000000000000000000000000000000000000000000000)\n      mstore(0x04, 0x21)\n      revert(0x00, 0x24)\n    tag_241:\n        /* \"smartContract/safeLife.sol\":2596:2610  pharmaceutical */\n      0x04\n        /* \"smartContract/safeLife.sol\":2611:2619  _orderId */\n      dup3\n        /* \"smartContract/safeLife.sol\":2596:2620  pharmaceutical[_orderId] */\n      mload(0x40)\n      tag_242\n      swap2\n      swap1\n      tag_108\n      jump\t// in\n    tag_242:\n      swap1\n      dup2\n      mstore\n      0x20\n      add\n      mload(0x40)\n      dup1\n      swap2\n      sub\n      swap1\n      keccak256\n        /* \"smartContract/safeLife.sol\":2596:2625  pharmaceutical[_orderId].role */\n      0x05\n      add\n      0x00\n      swap1\n      sload\n      swap1\n      0x0100\n      exp\n      swap1\n      div\n      0xff\n      and\n        /* \"smartContract/safeLife.sol\":2596:2644  pharmaceutical[_orderId].role != Role.Pharmacist */\n      0x02\n      dup2\n      gt\n      iszero\n      tag_243\n      jumpi\n      mstore(0x00, 0x4e487b7100000000000000000000000000000000000000000000000000000000)\n      mstore(0x04, 0x21)\n      revert(0x00, 0x24)\n    tag_243:\n      eq\n      iszero\n        /* \"smartContract/safeLife.sol\":2586:2688  require ((pharmaceutical[_orderId].role != Role.Pharmacist), \"Something is Wrong from Pharmacist :( \") */\n      tag_244\n      jumpi\n      mload(0x40)\n      0x08c379a000000000000000000000000000000000000000000000000000000000\n      dup2\n      mstore\n      0x04\n      add\n      tag_245\n      swap1\n      tag_193\n      jump\t// in\n    tag_245:\n      mload(0x40)\n      dup1\n      swap2\n      sub\n      swap1\n      revert\n    tag_244:\n        /* \"smartContract/safeLife.sol\":5348:5356  _orderId */\n      dup7\n        /* \"smartContract/safeLife.sol\":5313:5327  pharmaceutical */\n      0x04\n        /* \"smartContract/safeLife.sol\":5328:5336  _orderId */\n      dup9\n        /* \"smartContract/safeLife.sol\":5313:5337  pharmaceutical[_orderId] */\n      mload(0x40)\n      tag_247\n      swap2\n      swap1\n      tag_108\n      jump\t// in\n    tag_247:\n      swap1\n      dup2\n      mstore\n      0x20\n      add\n      mload(0x40)\n      dup1\n      swap2\n      sub\n      swap1\n      keccak256\n        /* \"smartContract/safeLife.sol\":5313:5345  pharmaceutical[_orderId].orderId */\n      0x00\n      add\n        /* \"smartContract/safeLife.sol\":5313:5356  pharmaceutical[_orderId].orderId = _orderId */\n      swap1\n      dup1\n      mload\n      swap1\n      0x20\n      add\n      swap1\n      tag_248\n      swap3\n      swap2\n      swap1\n      tag_144\n      jump\t// in\n    tag_248:\n      pop\n        /* \"smartContract/safeLife.sol\":5400:5406  _buyer */\n      dup6\n        /* \"smartContract/safeLife.sol\":5367:5381  pharmaceutical */\n      0x04\n        /* \"smartContract/safeLife.sol\":5382:5390  _orderId */\n      dup9\n        /* \"smartContract/safeLife.sol\":5367:5391  pharmaceutical[_orderId] */\n      mload(0x40)\n      tag_249\n      swap2\n      swap1\n      tag_108\n      jump\t// in\n    tag_249:\n      swap1\n      dup2\n      mstore\n      0x20\n      add\n      mload(0x40)\n      dup1\n      swap2\n      sub\n      swap1\n      keccak256\n        /* \"smartContract/safeLife.sol\":5367:5397  pharmaceutical[_orderId].buyer */\n      0x01\n      add\n        /* \"smartContract/safeLife.sol\":5367:5406  pharmaceutical[_orderId].buyer = _buyer */\n      swap1\n      dup1\n      mload\n      swap1\n      0x20\n      add\n      swap1\n      tag_250\n      swap3\n      swap2\n      swap1\n      tag_144\n      jump\t// in\n    tag_250:\n      pop\n        /* \"smartContract/safeLife.sol\":5451:5458  _seller */\n      dup5\n        /* \"smartContract/safeLife.sol\":5417:5431  pharmaceutical */\n      0x04\n        /* \"smartContract/safeLife.sol\":5432:5440  _orderId */\n      dup9\n        /* \"smartContract/safeLife.sol\":5417:5441  pharmaceutical[_orderId] */\n      mload(0x40)\n      tag_251\n      swap2\n      swap1\n      tag_108\n      jump\t// in\n    tag_251:\n      swap1\n      dup2\n      mstore\n      0x20\n      add\n      mload(0x40)\n      dup1\n      swap2\n      sub\n      swap1\n      keccak256\n        /* \"smartContract/safeLife.sol\":5417:5448  pharmaceutical[_orderId].seller */\n      0x02\n      add\n        /* \"smartContract/safeLife.sol\":5417:5458  pharmaceutical[_orderId].seller = _seller */\n      swap1\n      dup1\n      mload\n      swap1\n      0x20\n      add\n      swap1\n      tag_252\n      swap3\n      swap2\n      swap1\n      tag_144\n      jump\t// in\n    tag_252:\n      pop\n        /* \"smartContract/safeLife.sol\":5504:5512  _fromAdd */\n      dup4\n        /* \"smartContract/safeLife.sol\":5469:5483  pharmaceutical */\n      0x04\n        /* \"smartContract/safeLife.sol\":5484:5492  _orderId */\n      dup9\n        /* \"smartContract/safeLife.sol\":5469:5493  pharmaceutical[_orderId] */\n      mload(0x40)\n      tag_253\n      swap2\n      swap1\n      tag_108\n      jump\t// in\n    tag_253:\n      swap1\n      dup2\n      mstore\n      0x20\n      add\n      mload(0x40)\n      dup1\n      swap2\n      sub\n      swap1\n      keccak256\n        /* \"smartContract/safeLife.sol\":5469:5501  pharmaceutical[_orderId].fromAdd */\n      0x03\n      add\n        /* \"smartContract/safeLife.sol\":5469:5512  pharmaceutical[_orderId].fromAdd = _fromAdd */\n      swap1\n      dup1\n      mload\n      swap1\n      0x20\n      add\n      swap1\n      tag_254\n      swap3\n      swap2\n      swap1\n      tag_144\n      jump\t// in\n    tag_254:\n      pop\n        /* \"smartContract/safeLife.sol\":5556:5562  _toAdd */\n      dup3\n        /* \"smartContract/safeLife.sol\":5523:5537  pharmaceutical */\n      0x04\n        /* \"smartContract/safeLife.sol\":5538:5546  _orderId */\n      dup9\n        /* \"smartContract/safeLife.sol\":5523:5547  pharmaceutical[_orderId] */\n      mload(0x40)\n      tag_255\n      swap2\n      swap1\n      tag_108\n      jump\t// in\n    tag_255:\n      swap1\n      dup2\n      mstore\n      0x20\n      add\n      mload(0x40)\n      dup1\n      swap2\n      sub\n      swap1\n      keccak256\n        /* \"smartContract/safeLife.sol\":5523:5553  pharmaceutical[_orderId].toAdd */\n      0x04\n      add\n        /* \"smartContract/safeLife.sol\":5523:5562  pharmaceutical[_orderId].toAdd = _toAdd */\n      swap1\n      dup1\n      mload\n      swap1\n      0x20\n      add\n      swap1\n      tag_256\n      swap3\n      swap2\n      swap1\n      tag_144\n      jump\t// in\n    tag_256:\n      pop\n        /* \"smartContract/safeLife.sol\":5578:5648  logDrugInfo(_orderId, _buyer, _seller, _fromAdd, _toAdd, \"Pharmacist\") */\n      0xca01b822d94f4b3dfa45d841ecfe8823af53b351e054ec8aace6ce43ad80b7ef\n        /* \"smartContract/safeLife.sol\":5590:5598  _orderId */\n      dup8\n        /* \"smartContract/safeLife.sol\":5600:5606  _buyer */\n      dup8\n        /* \"smartContract/safeLife.sol\":5608:5615  _seller */\n      dup8\n        /* \"smartContract/safeLife.sol\":5617:5625  _fromAdd */\n      dup8\n        /* \"smartContract/safeLife.sol\":5627:5633  _toAdd */\n      dup8\n        /* \"smartContract/safeLife.sol\":5578:5648  logDrugInfo(_orderId, _buyer, _seller, _fromAdd, _toAdd, \"Pharmacist\") */\n      mload(0x40)\n      tag_257\n      swap6\n      swap5\n      swap4\n      swap3\n      swap2\n      swap1\n      tag_258\n      jump\t// in\n    tag_257:\n      mload(0x40)\n      dup1\n      swap2\n      sub\n      swap1\n      log1\n        /* \"smartContract/safeLife.sol\":2294:2295  _ */\n      pop\n        /* \"smartContract/safeLife.sol\":1683:1684  _ */\n      pop\n        /* \"smartContract/safeLife.sol\":5066:5656  function storeDrugsAgain(string memory _orderId, string memory _buyer, string memory _seller,  string memory _fromAdd, string memory _toAdd) public\r... */\n      pop\n      pop\n      pop\n      pop\n      pop\n      jump\t// out\n        /* \"smartContract/safeLife.sol\":6570:6732  function setOrderStatusInfo(string memory _orderId, string memory _status) public\r... */\n    tag_73:\n        /* \"smartContract/safeLife.sol\":1631:1641  msg.sender */\n      caller\n        /* \"smartContract/safeLife.sol\":1621:1641  seller == msg.sender */\n      0xffffffffffffffffffffffffffffffffffffffff\n      and\n        /* \"smartContract/safeLife.sol\":1621:1627  seller */\n      0x06\n      0x00\n      swap1\n      sload\n      swap1\n      0x0100\n      exp\n      swap1\n      div\n      0xffffffffffffffffffffffffffffffffffffffff\n      and\n        /* \"smartContract/safeLife.sol\":1621:1641  seller == msg.sender */\n      0xffffffffffffffffffffffffffffffffffffffff\n      and\n      eq\n        /* \"smartContract/safeLife.sol\":1612:1671  require (seller == msg.sender, \"Message from Manufacturer\") */\n      tag_260\n      jumpi\n      mload(0x40)\n      0x08c379a000000000000000000000000000000000000000000000000000000000\n      dup2\n      mstore\n      0x04\n      add\n      tag_261\n      swap1\n      tag_141\n      jump\t// in\n    tag_261:\n      mload(0x40)\n      dup1\n      swap2\n      sub\n      swap1\n      revert\n    tag_260:\n        /* \"smartContract/safeLife.sol\":6691:6699  _orderId */\n      dup2\n        /* \"smartContract/safeLife.sol\":6681:6688  orderId */\n      0x01\n        /* \"smartContract/safeLife.sol\":6681:6699  orderId = _orderId */\n      swap1\n      dup1\n      mload\n      swap1\n      0x20\n      add\n      swap1\n      tag_263\n      swap3\n      swap2\n      swap1\n      tag_144\n      jump\t// in\n    tag_263:\n      pop\n        /* \"smartContract/safeLife.sol\":6718:6725  _status */\n      dup1\n        /* \"smartContract/safeLife.sol\":6709:6715  status */\n      0x02\n        /* \"smartContract/safeLife.sol\":6709:6725  status = _status */\n      swap1\n      dup1\n      mload\n      swap1\n      0x20\n      add\n      swap1\n      tag_264\n      swap3\n      swap2\n      swap1\n      tag_144\n      jump\t// in\n    tag_264:\n      pop\n        /* \"smartContract/safeLife.sol\":6570:6732  function setOrderStatusInfo(string memory _orderId, string memory _status) public\r... */\n      pop\n      pop\n      jump\t// out\n        /* \"smartContract/safeLife.sol\":6290:6492  function setOrderInfo(string memory _orderId, string memory _status, string memory _email) public\r... */\n    tag_76:\n        /* \"smartContract/safeLife.sol\":1631:1641  msg.sender */\n      caller\n        /* \"smartContract/safeLife.sol\":1621:1641  seller == msg.sender */\n      0xffffffffffffffffffffffffffffffffffffffff\n      and\n        /* \"smartContract/safeLife.sol\":1621:1627  seller */\n      0x06\n      0x00\n      swap1\n      sload\n      swap1\n      0x0100\n      exp\n      swap1\n      div\n      0xffffffffffffffffffffffffffffffffffffffff\n      and\n        /* \"smartContract/safeLife.sol\":1621:1641  seller == msg.sender */\n      0xffffffffffffffffffffffffffffffffffffffff\n      and\n      eq\n        /* \"smartContract/safeLife.sol\":1612:1671  require (seller == msg.sender, \"Message from Manufacturer\") */\n      tag_266\n      jumpi\n      mload(0x40)\n      0x08c379a000000000000000000000000000000000000000000000000000000000\n      dup2\n      mstore\n      0x04\n      add\n      tag_267\n      swap1\n      tag_141\n      jump\t// in\n    tag_267:\n      mload(0x40)\n      dup1\n      swap2\n      sub\n      swap1\n      revert\n    tag_266:\n        /* \"smartContract/safeLife.sol\":6427:6435  _orderId */\n      dup3\n        /* \"smartContract/safeLife.sol\":6417:6424  orderId */\n      0x01\n        /* \"smartContract/safeLife.sol\":6417:6435  orderId = _orderId */\n      swap1\n      dup1\n      mload\n      swap1\n      0x20\n      add\n      swap1\n      tag_269\n      swap3\n      swap2\n      swap1\n      tag_144\n      jump\t// in\n    tag_269:\n      pop\n        /* \"smartContract/safeLife.sol\":6454:6461  _status */\n      dup2\n        /* \"smartContract/safeLife.sol\":6445:6451  status */\n      0x02\n        /* \"smartContract/safeLife.sol\":6445:6461  status = _status */\n      swap1\n      dup1\n      mload\n      swap1\n      0x20\n      add\n      swap1\n      tag_270\n      swap3\n      swap2\n      swap1\n      tag_144\n      jump\t// in\n    tag_270:\n      pop\n        /* \"smartContract/safeLife.sol\":6479:6485  _email */\n      dup1\n        /* \"smartContract/safeLife.sol\":6471:6476  email */\n      0x00\n        /* \"smartContract/safeLife.sol\":6471:6485  email = _email */\n      swap1\n      dup1\n      mload\n      swap1\n      0x20\n      add\n      swap1\n      tag_271\n      swap3\n      swap2\n      swap1\n      tag_144\n      jump\t// in\n    tag_271:\n      pop\n        /* \"smartContract/safeLife.sol\":6290:6492  function setOrderInfo(string memory _orderId, string memory _status, string memory _email) public\r... */\n      pop\n      pop\n      pop\n      jump\t// out\n    tag_144:\n      dup3\n      dup1\n      sload\n      tag_272\n      swap1\n      tag_79\n      jump\t// in\n    tag_272:\n      swap1\n      0x00\n      mstore\n      keccak256(0x00, 0x20)\n      swap1\n      0x1f\n      add\n      0x20\n      swap1\n      div\n      dup2\n      add\n      swap3\n      dup3\n      tag_274\n      jumpi\n      0x00\n      dup6\n      sstore\n      jump(tag_273)\n    tag_274:\n      dup3\n      0x1f\n      lt\n      tag_275\n      jumpi\n      dup1\n      mload\n      not(0xff)\n      and\n      dup4\n      dup1\n      add\n      or\n      dup6\n      sstore\n      jump(tag_273)\n    tag_275:\n      dup3\n      dup1\n      add\n      0x01\n      add\n      dup6\n      sstore\n      dup3\n      iszero\n      tag_273\n      jumpi\n      swap2\n      dup3\n      add\n    tag_276:\n      dup3\n      dup2\n      gt\n      iszero\n      tag_277\n      jumpi\n      dup3\n      mload\n      dup3\n      sstore\n      swap2\n      0x20\n      add\n      swap2\n      swap1\n      0x01\n      add\n      swap1\n      jump(tag_276)\n    tag_277:\n    tag_273:\n      pop\n      swap1\n      pop\n      tag_278\n      swap2\n      swap1\n      tag_279\n      jump\t// in\n    tag_278:\n      pop\n      swap1\n      jump\t// out\n    tag_279:\n    tag_280:\n      dup1\n      dup3\n      gt\n      iszero\n      tag_281\n      jumpi\n      0x00\n      dup2\n      0x00\n      swap1\n      sstore\n      pop\n      0x01\n      add\n      jump(tag_280)\n    tag_281:\n      pop\n      swap1\n      jump\t// out\n        /* \"#utility.yul\":7:352   */\n    tag_283:\n      0x00\n        /* \"#utility.yul\":110:176   */\n      tag_285\n        /* \"#utility.yul\":126:175   */\n      tag_286\n        /* \"#utility.yul\":168:174   */\n      dup5\n        /* \"#utility.yul\":126:175   */\n      tag_287\n      jump\t// in\n    tag_286:\n        /* \"#utility.yul\":110:176   */\n      tag_288\n      jump\t// in\n    tag_285:\n        /* \"#utility.yul\":101:176   */\n      swap1\n      pop\n        /* \"#utility.yul\":199:205   */\n      dup3\n        /* \"#utility.yul\":192:197   */\n      dup2\n        /* \"#utility.yul\":185:206   */\n      mstore\n        /* \"#utility.yul\":237:241   */\n      0x20\n        /* \"#utility.yul\":230:235   */\n      dup2\n        /* \"#utility.yul\":226:242   */\n      add\n        /* \"#utility.yul\":275:278   */\n      dup5\n        /* \"#utility.yul\":266:272   */\n      dup5\n        /* \"#utility.yul\":261:264   */\n      dup5\n        /* \"#utility.yul\":257:273   */\n      add\n        /* \"#utility.yul\":254:279   */\n      gt\n        /* \"#utility.yul\":251:253   */\n      iszero\n      tag_289\n      jumpi\n        /* \"#utility.yul\":292:293   */\n      0x00\n        /* \"#utility.yul\":289:290   */\n      dup1\n        /* \"#utility.yul\":282:294   */\n      revert\n        /* \"#utility.yul\":251:253   */\n    tag_289:\n        /* \"#utility.yul\":305:346   */\n      tag_290\n        /* \"#utility.yul\":339:345   */\n      dup5\n        /* \"#utility.yul\":334:337   */\n      dup3\n        /* \"#utility.yul\":329:332   */\n      dup6\n        /* \"#utility.yul\":305:346   */\n      tag_291\n      jump\t// in\n    tag_290:\n        /* \"#utility.yul\":91:352   */\n      pop\n      swap4\n      swap3\n      pop\n      pop\n      pop\n      jump\t// out\n        /* \"#utility.yul\":372:645   */\n    tag_292:\n      0x00\n        /* \"#utility.yul\":477:480   */\n      dup3\n        /* \"#utility.yul\":470:474   */\n      0x1f\n        /* \"#utility.yul\":462:468   */\n      dup4\n        /* \"#utility.yul\":458:475   */\n      add\n        /* \"#utility.yul\":454:481   */\n      slt\n        /* \"#utility.yul\":444:446   */\n      tag_294\n      jumpi\n        /* \"#utility.yul\":495:496   */\n      0x00\n        /* \"#utility.yul\":492:493   */\n      dup1\n        /* \"#utility.yul\":485:497   */\n      revert\n        /* \"#utility.yul\":444:446   */\n    tag_294:\n        /* \"#utility.yul\":535:541   */\n      dup2\n        /* \"#utility.yul\":522:542   */\n      calldataload\n        /* \"#utility.yul\":560:639   */\n      tag_295\n        /* \"#utility.yul\":635:638   */\n      dup5\n        /* \"#utility.yul\":627:633   */\n      dup3\n        /* \"#utility.yul\":620:624   */\n      0x20\n        /* \"#utility.yul\":612:618   */\n      dup7\n        /* \"#utility.yul\":608:625   */\n      add\n        /* \"#utility.yul\":560:639   */\n      tag_283\n      jump\t// in\n    tag_295:\n        /* \"#utility.yul\":551:639   */\n      swap2\n      pop\n        /* \"#utility.yul\":434:645   */\n      pop\n      swap3\n      swap2\n      pop\n      pop\n      jump\t// out\n        /* \"#utility.yul\":651:1026   */\n    tag_39:\n      0x00\n        /* \"#utility.yul\":769:771   */\n      0x20\n        /* \"#utility.yul\":757:766   */\n      dup3\n        /* \"#utility.yul\":748:755   */\n      dup5\n        /* \"#utility.yul\":744:767   */\n      sub\n        /* \"#utility.yul\":740:772   */\n      slt\n        /* \"#utility.yul\":737:739   */\n      iszero\n      tag_297\n      jumpi\n        /* \"#utility.yul\":785:786   */\n      0x00\n        /* \"#utility.yul\":782:783   */\n      dup1\n        /* \"#utility.yul\":775:787   */\n      revert\n        /* \"#utility.yul\":737:739   */\n    tag_297:\n        /* \"#utility.yul\":856:857   */\n      0x00\n        /* \"#utility.yul\":845:854   */\n      dup3\n        /* \"#utility.yul\":841:858   */\n      add\n        /* \"#utility.yul\":828:859   */\n      calldataload\n        /* \"#utility.yul\":886:904   */\n      0xffffffffffffffff\n        /* \"#utility.yul\":878:884   */\n      dup2\n        /* \"#utility.yul\":875:905   */\n      gt\n        /* \"#utility.yul\":872:874   */\n      iszero\n      tag_298\n      jumpi\n        /* \"#utility.yul\":918:919   */\n      0x00\n        /* \"#utility.yul\":915:916   */\n      dup1\n        /* \"#utility.yul\":908:920   */\n      revert\n        /* \"#utility.yul\":872:874   */\n    tag_298:\n        /* \"#utility.yul\":946:1009   */\n      tag_299\n        /* \"#utility.yul\":1001:1008   */\n      dup5\n        /* \"#utility.yul\":992:998   */\n      dup3\n        /* \"#utility.yul\":981:990   */\n      dup6\n        /* \"#utility.yul\":977:999   */\n      add\n        /* \"#utility.yul\":946:1009   */\n      tag_292\n      jump\t// in\n    tag_299:\n        /* \"#utility.yul\":936:1009   */\n      swap2\n      pop\n        /* \"#utility.yul\":799:1019   */\n      pop\n        /* \"#utility.yul\":727:1026   */\n      swap3\n      swap2\n      pop\n      pop\n      jump\t// out\n        /* \"#utility.yul\":1032:1665   */\n    tag_45:\n      0x00\n      dup1\n        /* \"#utility.yul\":1177:1179   */\n      0x40\n        /* \"#utility.yul\":1165:1174   */\n      dup4\n        /* \"#utility.yul\":1156:1163   */\n      dup6\n        /* \"#utility.yul\":1152:1175   */\n      sub\n        /* \"#utility.yul\":1148:1180   */\n      slt\n        /* \"#utility.yul\":1145:1147   */\n      iszero\n      tag_301\n      jumpi\n        /* \"#utility.yul\":1193:1194   */\n      0x00\n        /* \"#utility.yul\":1190:1191   */\n      dup1\n        /* \"#utility.yul\":1183:1195   */\n      revert\n        /* \"#utility.yul\":1145:1147   */\n    tag_301:\n        /* \"#utility.yul\":1264:1265   */\n      0x00\n        /* \"#utility.yul\":1253:1262   */\n      dup4\n        /* \"#utility.yul\":1249:1266   */\n      add\n        /* \"#utility.yul\":1236:1267   */\n      calldataload\n        /* \"#utility.yul\":1294:1312   */\n      0xffffffffffffffff\n        /* \"#utility.yul\":1286:1292   */\n      dup2\n        /* \"#utility.yul\":1283:1313   */\n      gt\n        /* \"#utility.yul\":1280:1282   */\n      iszero\n      tag_302\n      jumpi\n        /* \"#utility.yul\":1326:1327   */\n      0x00\n        /* \"#utility.yul\":1323:1324   */\n      dup1\n        /* \"#utility.yul\":1316:1328   */\n      revert\n        /* \"#utility.yul\":1280:1282   */\n    tag_302:\n        /* \"#utility.yul\":1354:1417   */\n      tag_303\n        /* \"#utility.yul\":1409:1416   */\n      dup6\n        /* \"#utility.yul\":1400:1406   */\n      dup3\n        /* \"#utility.yul\":1389:1398   */\n      dup7\n        /* \"#utility.yul\":1385:1407   */\n      add\n        /* \"#utility.yul\":1354:1417   */\n      tag_292\n      jump\t// in\n    tag_303:\n        /* \"#utility.yul\":1344:1417   */\n      swap3\n      pop\n        /* \"#utility.yul\":1207:1427   */\n      pop\n        /* \"#utility.yul\":1494:1496   */\n      0x20\n        /* \"#utility.yul\":1483:1492   */\n      dup4\n        /* \"#utility.yul\":1479:1497   */\n      add\n        /* \"#utility.yul\":1466:1498   */\n      calldataload\n        /* \"#utility.yul\":1525:1543   */\n      0xffffffffffffffff\n        /* \"#utility.yul\":1517:1523   */\n      dup2\n        /* \"#utility.yul\":1514:1544   */\n      gt\n        /* \"#utility.yul\":1511:1513   */\n      iszero\n      tag_304\n      jumpi\n        /* \"#utility.yul\":1557:1558   */\n      0x00\n        /* \"#utility.yul\":1554:1555   */\n      dup1\n        /* \"#utility.yul\":1547:1559   */\n      revert\n        /* \"#utility.yul\":1511:1513   */\n    tag_304:\n        /* \"#utility.yul\":1585:1648   */\n      tag_305\n        /* \"#utility.yul\":1640:1647   */\n      dup6\n        /* \"#utility.yul\":1631:1637   */\n      dup3\n        /* \"#utility.yul\":1620:1629   */\n      dup7\n        /* \"#utility.yul\":1616:1638   */\n      add\n        /* \"#utility.yul\":1585:1648   */\n      tag_292\n      jump\t// in\n    tag_305:\n        /* \"#utility.yul\":1575:1648   */\n      swap2\n      pop\n        /* \"#utility.yul\":1437:1658   */\n      pop\n        /* \"#utility.yul\":1135:1665   */\n      swap3\n      pop\n      swap3\n      swap1\n      pop\n      jump\t// out\n        /* \"#utility.yul\":1671:2562   */\n    tag_66:\n      0x00\n      dup1\n      0x00\n        /* \"#utility.yul\":1843:1845   */\n      0x60\n        /* \"#utility.yul\":1831:1840   */\n      dup5\n        /* \"#utility.yul\":1822:1829   */\n      dup7\n        /* \"#utility.yul\":1818:1841   */\n      sub\n        /* \"#utility.yul\":1814:1846   */\n      slt\n        /* \"#utility.yul\":1811:1813   */\n      iszero\n      tag_307\n      jumpi\n        /* \"#utility.yul\":1859:1860   */\n      0x00\n        /* \"#utility.yul\":1856:1857   */\n      dup1\n        /* \"#utility.yul\":1849:1861   */\n      revert\n        /* \"#utility.yul\":1811:1813   */\n    tag_307:\n        /* \"#utility.yul\":1930:1931   */\n      0x00\n        /* \"#utility.yul\":1919:1928   */\n      dup5\n        /* \"#utility.yul\":1915:1932   */\n      add\n        /* \"#utility.yul\":1902:1933   */\n      calldataload\n        /* \"#utility.yul\":1960:1978   */\n      0xffffffffffffffff\n        /* \"#utility.yul\":1952:1958   */\n      dup2\n        /* \"#utility.yul\":1949:1979   */\n      gt\n        /* \"#utility.yul\":1946:1948   */\n      iszero\n      tag_308\n      jumpi\n        /* \"#utility.yul\":1992:1993   */\n      0x00\n        /* \"#utility.yul\":1989:1990   */\n      dup1\n        /* \"#utility.yul\":1982:1994   */\n      revert\n        /* \"#utility.yul\":1946:1948   */\n    tag_308:\n        /* \"#utility.yul\":2020:2083   */\n      tag_309\n        /* \"#utility.yul\":2075:2082   */\n      dup7\n        /* \"#utility.yul\":2066:2072   */\n      dup3\n        /* \"#utility.yul\":2055:2064   */\n      dup8\n        /* \"#utility.yul\":2051:2073   */\n      add\n        /* \"#utility.yul\":2020:2083   */\n      tag_292\n      jump\t// in\n    tag_309:\n        /* \"#utility.yul\":2010:2083   */\n      swap4\n      pop\n        /* \"#utility.yul\":1873:2093   */\n      pop\n        /* \"#utility.yul\":2160:2162   */\n      0x20\n        /* \"#utility.yul\":2149:2158   */\n      dup5\n        /* \"#utility.yul\":2145:2163   */\n      add\n        /* \"#utility.yul\":2132:2164   */\n      calldataload\n        /* \"#utility.yul\":2191:2209   */\n      0xffffffffffffffff\n        /* \"#utility.yul\":2183:2189   */\n      dup2\n        /* \"#utility.yul\":2180:2210   */\n      gt\n        /* \"#utility.yul\":2177:2179   */\n      iszero\n      tag_310\n      jumpi\n        /* \"#utility.yul\":2223:2224   */\n      0x00\n        /* \"#utility.yul\":2220:2221   */\n      dup1\n        /* \"#utility.yul\":2213:2225   */\n      revert\n        /* \"#utility.yul\":2177:2179   */\n    tag_310:\n        /* \"#utility.yul\":2251:2314   */\n      tag_311\n        /* \"#utility.yul\":2306:2313   */\n      dup7\n        /* \"#utility.yul\":2297:2303   */\n      dup3\n        /* \"#utility.yul\":2286:2295   */\n      dup8\n        /* \"#utility.yul\":2282:2304   */\n      add\n        /* \"#utility.yul\":2251:2314   */\n      tag_292\n      jump\t// in\n    tag_311:\n        /* \"#utility.yul\":2241:2314   */\n      swap3\n      pop\n        /* \"#utility.yul\":2103:2324   */\n      pop\n        /* \"#utility.yul\":2391:2393   */\n      0x40\n        /* \"#utility.yul\":2380:2389   */\n      dup5\n        /* \"#utility.yul\":2376:2394   */\n      add\n        /* \"#utility.yul\":2363:2395   */\n      calldataload\n        /* \"#utility.yul\":2422:2440   */\n      0xffffffffffffffff\n        /* \"#utility.yul\":2414:2420   */\n      dup2\n        /* \"#utility.yul\":2411:2441   */\n      gt\n        /* \"#utility.yul\":2408:2410   */\n      iszero\n      tag_312\n      jumpi\n        /* \"#utility.yul\":2454:2455   */\n      0x00\n        /* \"#utility.yul\":2451:2452   */\n      dup1\n        /* \"#utility.yul\":2444:2456   */\n      revert\n        /* \"#utility.yul\":2408:2410   */\n    tag_312:\n        /* \"#utility.yul\":2482:2545   */\n      tag_313\n        /* \"#utility.yul\":2537:2544   */\n      dup7\n        /* \"#utility.yul\":2528:2534   */\n      dup3\n        /* \"#utility.yul\":2517:2526   */\n      dup8\n        /* \"#utility.yul\":2513:2535   */\n      add\n        /* \"#utility.yul\":2482:2545   */\n      tag_292\n      jump\t// in\n    tag_313:\n        /* \"#utility.yul\":2472:2545   */\n      swap2\n      pop\n        /* \"#utility.yul\":2334:2555   */\n      pop\n        /* \"#utility.yul\":1801:2562   */\n      swap3\n      pop\n      swap3\n      pop\n      swap3\n      jump\t// out\n        /* \"#utility.yul\":2568:3977   */\n    tag_62:\n      0x00\n      dup1\n      0x00\n      dup1\n      0x00\n        /* \"#utility.yul\":2794:2797   */\n      0xa0\n        /* \"#utility.yul\":2782:2791   */\n      dup7\n        /* \"#utility.yul\":2773:2780   */\n      dup9\n        /* \"#utility.yul\":2769:2792   */\n      sub\n        /* \"#utility.yul\":2765:2798   */\n      slt\n        /* \"#utility.yul\":2762:2764   */\n      iszero\n      tag_315\n      jumpi\n        /* \"#utility.yul\":2811:2812   */\n      0x00\n        /* \"#utility.yul\":2808:2809   */\n      dup1\n        /* \"#utility.yul\":2801:2813   */\n      revert\n        /* \"#utility.yul\":2762:2764   */\n    tag_315:\n        /* \"#utility.yul\":2882:2883   */\n      0x00\n        /* \"#utility.yul\":2871:2880   */\n      dup7\n        /* \"#utility.yul\":2867:2884   */\n      add\n        /* \"#utility.yul\":2854:2885   */\n      calldataload\n        /* \"#utility.yul\":2912:2930   */\n      0xffffffffffffffff\n        /* \"#utility.yul\":2904:2910   */\n      dup2\n        /* \"#utility.yul\":2901:2931   */\n      gt\n        /* \"#utility.yul\":2898:2900   */\n      iszero\n      tag_316\n      jumpi\n        /* \"#utility.yul\":2944:2945   */\n      0x00\n        /* \"#utility.yul\":2941:2942   */\n      dup1\n        /* \"#utility.yul\":2934:2946   */\n      revert\n        /* \"#utility.yul\":2898:2900   */\n    tag_316:\n        /* \"#utility.yul\":2972:3035   */\n      tag_317\n        /* \"#utility.yul\":3027:3034   */\n      dup9\n        /* \"#utility.yul\":3018:3024   */\n      dup3\n        /* \"#utility.yul\":3007:3016   */\n      dup10\n        /* \"#utility.yul\":3003:3025   */\n      add\n        /* \"#utility.yul\":2972:3035   */\n      tag_292\n      jump\t// in\n    tag_317:\n        /* \"#utility.yul\":2962:3035   */\n      swap6\n      pop\n        /* \"#utility.yul\":2825:3045   */\n      pop\n        /* \"#utility.yul\":3112:3114   */\n      0x20\n        /* \"#utility.yul\":3101:3110   */\n      dup7\n        /* \"#utility.yul\":3097:3115   */\n      add\n        /* \"#utility.yul\":3084:3116   */\n      calldataload\n        /* \"#utility.yul\":3143:3161   */\n      0xffffffffffffffff\n        /* \"#utility.yul\":3135:3141   */\n      dup2\n        /* \"#utility.yul\":3132:3162   */\n      gt\n        /* \"#utility.yul\":3129:3131   */\n      iszero\n      tag_318\n      jumpi\n        /* \"#utility.yul\":3175:3176   */\n      0x00\n        /* \"#utility.yul\":3172:3173   */\n      dup1\n        /* \"#utility.yul\":3165:3177   */\n      revert\n        /* \"#utility.yul\":3129:3131   */\n    tag_318:\n        /* \"#utility.yul\":3203:3266   */\n      tag_319\n        /* \"#utility.yul\":3258:3265   */\n      dup9\n        /* \"#utility.yul\":3249:3255   */\n      dup3\n        /* \"#utility.yul\":3238:3247   */\n      dup10\n        /* \"#utility.yul\":3234:3256   */\n      add\n        /* \"#utility.yul\":3203:3266   */\n      tag_292\n      jump\t// in\n    tag_319:\n        /* \"#utility.yul\":3193:3266   */\n      swap5\n      pop\n        /* \"#utility.yul\":3055:3276   */\n      pop\n        /* \"#utility.yul\":3343:3345   */\n      0x40\n        /* \"#utility.yul\":3332:3341   */\n      dup7\n        /* \"#utility.yul\":3328:3346   */\n      add\n        /* \"#utility.yul\":3315:3347   */\n      calldataload\n        /* \"#utility.yul\":3374:3392   */\n      0xffffffffffffffff\n        /* \"#utility.yul\":3366:3372   */\n      dup2\n        /* \"#utility.yul\":3363:3393   */\n      gt\n        /* \"#utility.yul\":3360:3362   */\n      iszero\n      tag_320\n      jumpi\n        /* \"#utility.yul\":3406:3407   */\n      0x00\n        /* \"#utility.yul\":3403:3404   */\n      dup1\n        /* \"#utility.yul\":3396:3408   */\n      revert\n        /* \"#utility.yul\":3360:3362   */\n    tag_320:\n        /* \"#utility.yul\":3434:3497   */\n      tag_321\n        /* \"#utility.yul\":3489:3496   */\n      dup9\n        /* \"#utility.yul\":3480:3486   */\n      dup3\n        /* \"#utility.yul\":3469:3478   */\n      dup10\n        /* \"#utility.yul\":3465:3487   */\n      add\n        /* \"#utility.yul\":3434:3497   */\n      tag_292\n      jump\t// in\n    tag_321:\n        /* \"#utility.yul\":3424:3497   */\n      swap4\n      pop\n        /* \"#utility.yul\":3286:3507   */\n      pop\n        /* \"#utility.yul\":3574:3576   */\n      0x60\n        /* \"#utility.yul\":3563:3572   */\n      dup7\n        /* \"#utility.yul\":3559:3577   */\n      add\n        /* \"#utility.yul\":3546:3578   */\n      calldataload\n        /* \"#utility.yul\":3605:3623   */\n      0xffffffffffffffff\n        /* \"#utility.yul\":3597:3603   */\n      dup2\n        /* \"#utility.yul\":3594:3624   */\n      gt\n        /* \"#utility.yul\":3591:3593   */\n      iszero\n      tag_322\n      jumpi\n        /* \"#utility.yul\":3637:3638   */\n      0x00\n        /* \"#utility.yul\":3634:3635   */\n      dup1\n        /* \"#utility.yul\":3627:3639   */\n      revert\n        /* \"#utility.yul\":3591:3593   */\n    tag_322:\n        /* \"#utility.yul\":3665:3728   */\n      tag_323\n        /* \"#utility.yul\":3720:3727   */\n      dup9\n        /* \"#utility.yul\":3711:3717   */\n      dup3\n        /* \"#utility.yul\":3700:3709   */\n      dup10\n        /* \"#utility.yul\":3696:3718   */\n      add\n        /* \"#utility.yul\":3665:3728   */\n      tag_292\n      jump\t// in\n    tag_323:\n        /* \"#utility.yul\":3655:3728   */\n      swap3\n      pop\n        /* \"#utility.yul\":3517:3738   */\n      pop\n        /* \"#utility.yul\":3805:3808   */\n      0x80\n        /* \"#utility.yul\":3794:3803   */\n      dup7\n        /* \"#utility.yul\":3790:3809   */\n      add\n        /* \"#utility.yul\":3777:3810   */\n      calldataload\n        /* \"#utility.yul\":3837:3855   */\n      0xffffffffffffffff\n        /* \"#utility.yul\":3829:3835   */\n      dup2\n        /* \"#utility.yul\":3826:3856   */\n      gt\n        /* \"#utility.yul\":3823:3825   */\n      iszero\n      tag_324\n      jumpi\n        /* \"#utility.yul\":3869:3870   */\n      0x00\n        /* \"#utility.yul\":3866:3867   */\n      dup1\n        /* \"#utility.yul\":3859:3871   */\n      revert\n        /* \"#utility.yul\":3823:3825   */\n    tag_324:\n        /* \"#utility.yul\":3897:3960   */\n      tag_325\n        /* \"#utility.yul\":3952:3959   */\n      dup9\n        /* \"#utility.yul\":3943:3949   */\n      dup3\n        /* \"#utility.yul\":3932:3941   */\n      dup10\n        /* \"#utility.yul\":3928:3950   */\n      add\n        /* \"#utility.yul\":3897:3960   */\n      tag_292\n      jump\t// in\n    tag_325:\n        /* \"#utility.yul\":3887:3960   */\n      swap2\n      pop\n        /* \"#utility.yul\":3748:3970   */\n      pop\n        /* \"#utility.yul\":2752:3977   */\n      swap3\n      swap6\n      pop\n      swap3\n      swap6\n      swap1\n      swap4\n      pop\n      jump\t// out\n        /* \"#utility.yul\":3983:4101   */\n    tag_326:\n        /* \"#utility.yul\":4070:4094   */\n      tag_328\n        /* \"#utility.yul\":4088:4093   */\n      dup2\n        /* \"#utility.yul\":4070:4094   */\n      tag_329\n      jump\t// in\n    tag_328:\n        /* \"#utility.yul\":4065:4068   */\n      dup3\n        /* \"#utility.yul\":4058:4095   */\n      mstore\n        /* \"#utility.yul\":4048:4101   */\n      pop\n      pop\n      jump\t// out\n        /* \"#utility.yul\":4107:4216   */\n    tag_330:\n        /* \"#utility.yul\":4188:4209   */\n      tag_332\n        /* \"#utility.yul\":4203:4208   */\n      dup2\n        /* \"#utility.yul\":4188:4209   */\n      tag_333\n      jump\t// in\n    tag_332:\n        /* \"#utility.yul\":4183:4186   */\n      dup3\n        /* \"#utility.yul\":4176:4210   */\n      mstore\n        /* \"#utility.yul\":4166:4216   */\n      pop\n      pop\n      jump\t// out\n        /* \"#utility.yul\":4222:4586   */\n    tag_334:\n      0x00\n        /* \"#utility.yul\":4338:4377   */\n      tag_336\n        /* \"#utility.yul\":4371:4376   */\n      dup3\n        /* \"#utility.yul\":4338:4377   */\n      tag_337\n      jump\t// in\n    tag_336:\n        /* \"#utility.yul\":4393:4464   */\n      tag_338\n        /* \"#utility.yul\":4457:4463   */\n      dup2\n        /* \"#utility.yul\":4452:4455   */\n      dup6\n        /* \"#utility.yul\":4393:4464   */\n      tag_339\n      jump\t// in\n    tag_338:\n        /* \"#utility.yul\":4386:4464   */\n      swap4\n      pop\n        /* \"#utility.yul\":4473:4525   */\n      tag_340\n        /* \"#utility.yul\":4518:4524   */\n      dup2\n        /* \"#utility.yul\":4513:4516   */\n      dup6\n        /* \"#utility.yul\":4506:4510   */\n      0x20\n        /* \"#utility.yul\":4499:4504   */\n      dup7\n        /* \"#utility.yul\":4495:4511   */\n      add\n        /* \"#utility.yul\":4473:4525   */\n      tag_341\n      jump\t// in\n    tag_340:\n        /* \"#utility.yul\":4550:4579   */\n      tag_342\n        /* \"#utility.yul\":4572:4578   */\n      dup2\n        /* \"#utility.yul\":4550:4579   */\n      tag_343\n      jump\t// in\n    tag_342:\n        /* \"#utility.yul\":4545:4548   */\n      dup5\n        /* \"#utility.yul\":4541:4580   */\n      add\n        /* \"#utility.yul\":4534:4580   */\n      swap2\n      pop\n        /* \"#utility.yul\":4314:4586   */\n      pop\n      swap3\n      swap2\n      pop\n      pop\n      jump\t// out\n        /* \"#utility.yul\":4592:4969   */\n    tag_344:\n      0x00\n        /* \"#utility.yul\":4726:4765   */\n      tag_346\n        /* \"#utility.yul\":4759:4764   */\n      dup3\n        /* \"#utility.yul\":4726:4765   */\n      tag_337\n      jump\t// in\n    tag_346:\n        /* \"#utility.yul\":4781:4870   */\n      tag_347\n        /* \"#utility.yul\":4863:4869   */\n      dup2\n        /* \"#utility.yul\":4858:4861   */\n      dup6\n        /* \"#utility.yul\":4781:4870   */\n      tag_348\n      jump\t// in\n    tag_347:\n        /* \"#utility.yul\":4774:4870   */\n      swap4\n      pop\n        /* \"#utility.yul\":4879:4931   */\n      tag_349\n        /* \"#utility.yul\":4924:4930   */\n      dup2\n        /* \"#utility.yul\":4919:4922   */\n      dup6\n        /* \"#utility.yul\":4912:4916   */\n      0x20\n        /* \"#utility.yul\":4905:4910   */\n      dup7\n        /* \"#utility.yul\":4901:4917   */\n      add\n        /* \"#utility.yul\":4879:4931   */\n      tag_341\n      jump\t// in\n    tag_349:\n        /* \"#utility.yul\":4956:4962   */\n      dup1\n        /* \"#utility.yul\":4951:4954   */\n      dup5\n        /* \"#utility.yul\":4947:4963   */\n      add\n        /* \"#utility.yul\":4940:4963   */\n      swap2\n      pop\n        /* \"#utility.yul\":4702:4969   */\n      pop\n      swap3\n      swap2\n      pop\n      pop\n      jump\t// out\n        /* \"#utility.yul\":4975:5341   */\n    tag_350:\n      0x00\n        /* \"#utility.yul\":5138:5205   */\n      tag_352\n        /* \"#utility.yul\":5202:5204   */\n      0x29\n        /* \"#utility.yul\":5197:5200   */\n      dup4\n        /* \"#utility.yul\":5138:5205   */\n      tag_339\n      jump\t// in\n    tag_352:\n        /* \"#utility.yul\":5131:5205   */\n      swap2\n      pop\n        /* \"#utility.yul\":5214:5307   */\n      tag_353\n        /* \"#utility.yul\":5303:5306   */\n      dup3\n        /* \"#utility.yul\":5214:5307   */\n      tag_354\n      jump\t// in\n    tag_353:\n        /* \"#utility.yul\":5332:5334   */\n      0x40\n        /* \"#utility.yul\":5327:5330   */\n      dup3\n        /* \"#utility.yul\":5323:5335   */\n      add\n        /* \"#utility.yul\":5316:5335   */\n      swap1\n      pop\n        /* \"#utility.yul\":5121:5341   */\n      swap2\n      swap1\n      pop\n      jump\t// out\n        /* \"#utility.yul\":5347:5713   */\n    tag_355:\n      0x00\n        /* \"#utility.yul\":5510:5577   */\n      tag_357\n        /* \"#utility.yul\":5574:5576   */\n      0x0f\n        /* \"#utility.yul\":5569:5572   */\n      dup4\n        /* \"#utility.yul\":5510:5577   */\n      tag_339\n      jump\t// in\n    tag_357:\n        /* \"#utility.yul\":5503:5577   */\n      swap2\n      pop\n        /* \"#utility.yul\":5586:5679   */\n      tag_358\n        /* \"#utility.yul\":5675:5678   */\n      dup3\n        /* \"#utility.yul\":5586:5679   */\n      tag_359\n      jump\t// in\n    tag_358:\n        /* \"#utility.yul\":5704:5706   */\n      0x20\n        /* \"#utility.yul\":5699:5702   */\n      dup3\n        /* \"#utility.yul\":5695:5707   */\n      add\n        /* \"#utility.yul\":5688:5707   */\n      swap1\n      pop\n        /* \"#utility.yul\":5493:5713   */\n      swap2\n      swap1\n      pop\n      jump\t// out\n        /* \"#utility.yul\":5719:6085   */\n    tag_360:\n      0x00\n        /* \"#utility.yul\":5882:5949   */\n      tag_362\n        /* \"#utility.yul\":5946:5948   */\n      0x0a\n        /* \"#utility.yul\":5941:5944   */\n      dup4\n        /* \"#utility.yul\":5882:5949   */\n      tag_339\n      jump\t// in\n    tag_362:\n        /* \"#utility.yul\":5875:5949   */\n      swap2\n      pop\n        /* \"#utility.yul\":5958:6051   */\n      tag_363\n        /* \"#utility.yul\":6047:6050   */\n      dup3\n        /* \"#utility.yul\":5958:6051   */\n      tag_364\n      jump\t// in\n    tag_363:\n        /* \"#utility.yul\":6076:6078   */\n      0x20\n        /* \"#utility.yul\":6071:6074   */\n      dup3\n        /* \"#utility.yul\":6067:6079   */\n      add\n        /* \"#utility.yul\":6060:6079   */\n      swap1\n      pop\n        /* \"#utility.yul\":5865:6085   */\n      swap2\n      swap1\n      pop\n      jump\t// out\n        /* \"#utility.yul\":6091:6457   */\n    tag_365:\n      0x00\n        /* \"#utility.yul\":6254:6321   */\n      tag_367\n        /* \"#utility.yul\":6318:6320   */\n      0x26\n        /* \"#utility.yul\":6313:6316   */\n      dup4\n        /* \"#utility.yul\":6254:6321   */\n      tag_339\n      jump\t// in\n    tag_367:\n        /* \"#utility.yul\":6247:6321   */\n      swap2\n      pop\n        /* \"#utility.yul\":6330:6423   */\n      tag_368\n        /* \"#utility.yul\":6419:6422   */\n      dup3\n        /* \"#utility.yul\":6330:6423   */\n      tag_369\n      jump\t// in\n    tag_368:\n        /* \"#utility.yul\":6448:6450   */\n      0x40\n        /* \"#utility.yul\":6443:6446   */\n      dup3\n        /* \"#utility.yul\":6439:6451   */\n      add\n        /* \"#utility.yul\":6432:6451   */\n      swap1\n      pop\n        /* \"#utility.yul\":6237:6457   */\n      swap2\n      swap1\n      pop\n      jump\t// out\n        /* \"#utility.yul\":6463:6829   */\n    tag_370:\n      0x00\n        /* \"#utility.yul\":6626:6693   */\n      tag_372\n        /* \"#utility.yul\":6690:6692   */\n      0x0c\n        /* \"#utility.yul\":6685:6688   */\n      dup4\n        /* \"#utility.yul\":6626:6693   */\n      tag_339\n      jump\t// in\n    tag_372:\n        /* \"#utility.yul\":6619:6693   */\n      swap2\n      pop\n        /* \"#utility.yul\":6702:6795   */\n      tag_373\n        /* \"#utility.yul\":6791:6794   */\n      dup3\n        /* \"#utility.yul\":6702:6795   */\n      tag_374\n      jump\t// in\n    tag_373:\n        /* \"#utility.yul\":6820:6822   */\n      0x20\n        /* \"#utility.yul\":6815:6818   */\n      dup3\n        /* \"#utility.yul\":6811:6823   */\n      add\n        /* \"#utility.yul\":6804:6823   */\n      swap1\n      pop\n        /* \"#utility.yul\":6609:6829   */\n      swap2\n      swap1\n      pop\n      jump\t// out\n        /* \"#utility.yul\":6835:7201   */\n    tag_375:\n      0x00\n        /* \"#utility.yul\":6998:7065   */\n      tag_377\n        /* \"#utility.yul\":7062:7064   */\n      0x19\n        /* \"#utility.yul\":7057:7060   */\n      dup4\n        /* \"#utility.yul\":6998:7065   */\n      tag_339\n      jump\t// in\n    tag_377:\n        /* \"#utility.yul\":6991:7065   */\n      swap2\n      pop\n        /* \"#utility.yul\":7074:7167   */\n      tag_378\n        /* \"#utility.yul\":7163:7166   */\n      dup3\n        /* \"#utility.yul\":7074:7167   */\n      tag_379\n      jump\t// in\n    tag_378:\n        /* \"#utility.yul\":7192:7194   */\n      0x20\n        /* \"#utility.yul\":7187:7190   */\n      dup3\n        /* \"#utility.yul\":7183:7195   */\n      add\n        /* \"#utility.yul\":7176:7195   */\n      swap1\n      pop\n        /* \"#utility.yul\":6981:7201   */\n      swap2\n      swap1\n      pop\n      jump\t// out\n        /* \"#utility.yul\":7207:7482   */\n    tag_108:\n      0x00\n        /* \"#utility.yul\":7361:7456   */\n      tag_381\n        /* \"#utility.yul\":7452:7455   */\n      dup3\n        /* \"#utility.yul\":7443:7449   */\n      dup5\n        /* \"#utility.yul\":7361:7456   */\n      tag_344\n      jump\t// in\n    tag_381:\n        /* \"#utility.yul\":7354:7456   */\n      swap2\n      pop\n        /* \"#utility.yul\":7473:7476   */\n      dup2\n        /* \"#utility.yul\":7466:7476   */\n      swap1\n      pop\n        /* \"#utility.yul\":7343:7482   */\n      swap3\n      swap2\n      pop\n      pop\n      jump\t// out\n        /* \"#utility.yul\":7488:7710   */\n    tag_32:\n      0x00\n        /* \"#utility.yul\":7619:7621   */\n      0x20\n        /* \"#utility.yul\":7608:7617   */\n      dup3\n        /* \"#utility.yul\":7604:7622   */\n      add\n        /* \"#utility.yul\":7596:7622   */\n      swap1\n      pop\n        /* \"#utility.yul\":7632:7703   */\n      tag_383\n        /* \"#utility.yul\":7700:7701   */\n      0x00\n        /* \"#utility.yul\":7689:7698   */\n      dup4\n        /* \"#utility.yul\":7685:7702   */\n      add\n        /* \"#utility.yul\":7676:7682   */\n      dup5\n        /* \"#utility.yul\":7632:7703   */\n      tag_326\n      jump\t// in\n    tag_383:\n        /* \"#utility.yul\":7586:7710   */\n      swap3\n      swap2\n      pop\n      pop\n      jump\t// out\n        /* \"#utility.yul\":7716:7926   */\n    tag_36:\n      0x00\n        /* \"#utility.yul\":7841:7843   */\n      0x20\n        /* \"#utility.yul\":7830:7839   */\n      dup3\n        /* \"#utility.yul\":7826:7844   */\n      add\n        /* \"#utility.yul\":7818:7844   */\n      swap1\n      pop\n        /* \"#utility.yul\":7854:7919   */\n      tag_385\n        /* \"#utility.yul\":7916:7917   */\n      0x00\n        /* \"#utility.yul\":7905:7914   */\n      dup4\n        /* \"#utility.yul\":7901:7918   */\n      add\n        /* \"#utility.yul\":7892:7898   */\n      dup5\n        /* \"#utility.yul\":7854:7919   */\n      tag_330\n      jump\t// in\n    tag_385:\n        /* \"#utility.yul\":7808:7926   */\n      swap3\n      swap2\n      pop\n      pop\n      jump\t// out\n        /* \"#utility.yul\":7932:8446   */\n    tag_24:\n      0x00\n        /* \"#utility.yul\":8131:8133   */\n      0x40\n        /* \"#utility.yul\":8120:8129   */\n      dup3\n        /* \"#utility.yul\":8116:8134   */\n      add\n        /* \"#utility.yul\":8108:8134   */\n      swap1\n      pop\n        /* \"#utility.yul\":8180:8189   */\n      dup2\n        /* \"#utility.yul\":8174:8178   */\n      dup2\n        /* \"#utility.yul\":8170:8190   */\n      sub\n        /* \"#utility.yul\":8166:8167   */\n      0x00\n        /* \"#utility.yul\":8155:8164   */\n      dup4\n        /* \"#utility.yul\":8151:8168   */\n      add\n        /* \"#utility.yul\":8144:8191   */\n      mstore\n        /* \"#utility.yul\":8208:8286   */\n      tag_387\n        /* \"#utility.yul\":8281:8285   */\n      dup2\n        /* \"#utility.yul\":8272:8278   */\n      dup6\n        /* \"#utility.yul\":8208:8286   */\n      tag_334\n      jump\t// in\n    tag_387:\n        /* \"#utility.yul\":8200:8286   */\n      swap1\n      pop\n        /* \"#utility.yul\":8333:8342   */\n      dup2\n        /* \"#utility.yul\":8327:8331   */\n      dup2\n        /* \"#utility.yul\":8323:8343   */\n      sub\n        /* \"#utility.yul\":8318:8320   */\n      0x20\n        /* \"#utility.yul\":8307:8316   */\n      dup4\n        /* \"#utility.yul\":8303:8321   */\n      add\n        /* \"#utility.yul\":8296:8344   */\n      mstore\n        /* \"#utility.yul\":8361:8439   */\n      tag_388\n        /* \"#utility.yul\":8434:8438   */\n      dup2\n        /* \"#utility.yul\":8425:8431   */\n      dup5\n        /* \"#utility.yul\":8361:8439   */\n      tag_334\n      jump\t// in\n    tag_388:\n        /* \"#utility.yul\":8353:8439   */\n      swap1\n      pop\n        /* \"#utility.yul\":8098:8446   */\n      swap4\n      swap3\n      pop\n      pop\n      pop\n      jump\t// out\n        /* \"#utility.yul\":8452:9167   */\n    tag_28:\n      0x00\n        /* \"#utility.yul\":8699:8701   */\n      0x60\n        /* \"#utility.yul\":8688:8697   */\n      dup3\n        /* \"#utility.yul\":8684:8702   */\n      add\n        /* \"#utility.yul\":8676:8702   */\n      swap1\n      pop\n        /* \"#utility.yul\":8748:8757   */\n      dup2\n        /* \"#utility.yul\":8742:8746   */\n      dup2\n        /* \"#utility.yul\":8738:8758   */\n      sub\n        /* \"#utility.yul\":8734:8735   */\n      0x00\n        /* \"#utility.yul\":8723:8732   */\n      dup4\n        /* \"#utility.yul\":8719:8736   */\n      add\n        /* \"#utility.yul\":8712:8759   */\n      mstore\n        /* \"#utility.yul\":8776:8854   */\n      tag_390\n        /* \"#utility.yul\":8849:8853   */\n      dup2\n        /* \"#utility.yul\":8840:8846   */\n      dup7\n        /* \"#utility.yul\":8776:8854   */\n      tag_334\n      jump\t// in\n    tag_390:\n        /* \"#utility.yul\":8768:8854   */\n      swap1\n      pop\n        /* \"#utility.yul\":8901:8910   */\n      dup2\n        /* \"#utility.yul\":8895:8899   */\n      dup2\n        /* \"#utility.yul\":8891:8911   */\n      sub\n        /* \"#utility.yul\":8886:8888   */\n      0x20\n        /* \"#utility.yul\":8875:8884   */\n      dup4\n        /* \"#utility.yul\":8871:8889   */\n      add\n        /* \"#utility.yul\":8864:8912   */\n      mstore\n        /* \"#utility.yul\":8929:9007   */\n      tag_391\n        /* \"#utility.yul\":9002:9006   */\n      dup2\n        /* \"#utility.yul\":8993:8999   */\n      dup6\n        /* \"#utility.yul\":8929:9007   */\n      tag_334\n      jump\t// in\n    tag_391:\n        /* \"#utility.yul\":8921:9007   */\n      swap1\n      pop\n        /* \"#utility.yul\":9054:9063   */\n      dup2\n        /* \"#utility.yul\":9048:9052   */\n      dup2\n        /* \"#utility.yul\":9044:9064   */\n      sub\n        /* \"#utility.yul\":9039:9041   */\n      0x40\n        /* \"#utility.yul\":9028:9037   */\n      dup4\n        /* \"#utility.yul\":9024:9042   */\n      add\n        /* \"#utility.yul\":9017:9065   */\n      mstore\n        /* \"#utility.yul\":9082:9160   */\n      tag_392\n        /* \"#utility.yul\":9155:9159   */\n      dup2\n        /* \"#utility.yul\":9146:9152   */\n      dup5\n        /* \"#utility.yul\":9082:9160   */\n      tag_334\n      jump\t// in\n    tag_392:\n        /* \"#utility.yul\":9074:9160   */\n      swap1\n      pop\n        /* \"#utility.yul\":8666:9167   */\n      swap5\n      swap4\n      pop\n      pop\n      pop\n      pop\n      jump\t// out\n        /* \"#utility.yul\":9173:10292   */\n    tag_42:\n      0x00\n        /* \"#utility.yul\":9516:9519   */\n      0xa0\n        /* \"#utility.yul\":9505:9514   */\n      dup3\n        /* \"#utility.yul\":9501:9520   */\n      add\n        /* \"#utility.yul\":9493:9520   */\n      swap1\n      pop\n        /* \"#utility.yul\":9566:9575   */\n      dup2\n        /* \"#utility.yul\":9560:9564   */\n      dup2\n        /* \"#utility.yul\":9556:9576   */\n      sub\n        /* \"#utility.yul\":9552:9553   */\n      0x00\n        /* \"#utility.yul\":9541:9550   */\n      dup4\n        /* \"#utility.yul\":9537:9554   */\n      add\n        /* \"#utility.yul\":9530:9577   */\n      mstore\n        /* \"#utility.yul\":9594:9672   */\n      tag_394\n        /* \"#utility.yul\":9667:9671   */\n      dup2\n        /* \"#utility.yul\":9658:9664   */\n      dup9\n        /* \"#utility.yul\":9594:9672   */\n      tag_334\n      jump\t// in\n    tag_394:\n        /* \"#utility.yul\":9586:9672   */\n      swap1\n      pop\n        /* \"#utility.yul\":9719:9728   */\n      dup2\n        /* \"#utility.yul\":9713:9717   */\n      dup2\n        /* \"#utility.yul\":9709:9729   */\n      sub\n        /* \"#utility.yul\":9704:9706   */\n      0x20\n        /* \"#utility.yul\":9693:9702   */\n      dup4\n        /* \"#utility.yul\":9689:9707   */\n      add\n        /* \"#utility.yul\":9682:9730   */\n      mstore\n        /* \"#utility.yul\":9747:9825   */\n      tag_395\n        /* \"#utility.yul\":9820:9824   */\n      dup2\n        /* \"#utility.yul\":9811:9817   */\n      dup8\n        /* \"#utility.yul\":9747:9825   */\n      tag_334\n      jump\t// in\n    tag_395:\n        /* \"#utility.yul\":9739:9825   */\n      swap1\n      pop\n        /* \"#utility.yul\":9872:9881   */\n      dup2\n        /* \"#utility.yul\":9866:9870   */\n      dup2\n        /* \"#utility.yul\":9862:9882   */\n      sub\n        /* \"#utility.yul\":9857:9859   */\n      0x40\n        /* \"#utility.yul\":9846:9855   */\n      dup4\n        /* \"#utility.yul\":9842:9860   */\n      add\n        /* \"#utility.yul\":9835:9883   */\n      mstore\n        /* \"#utility.yul\":9900:9978   */\n      tag_396\n        /* \"#utility.yul\":9973:9977   */\n      dup2\n        /* \"#utility.yul\":9964:9970   */\n      dup7\n        /* \"#utility.yul\":9900:9978   */\n      tag_334\n      jump\t// in\n    tag_396:\n        /* \"#utility.yul\":9892:9978   */\n      swap1\n      pop\n        /* \"#utility.yul\":10025:10034   */\n      dup2\n        /* \"#utility.yul\":10019:10023   */\n      dup2\n        /* \"#utility.yul\":10015:10035   */\n      sub\n        /* \"#utility.yul\":10010:10012   */\n      0x60\n        /* \"#utility.yul\":9999:10008   */\n      dup4\n        /* \"#utility.yul\":9995:10013   */\n      add\n        /* \"#utility.yul\":9988:10036   */\n      mstore\n        /* \"#utility.yul\":10053:10131   */\n      tag_397\n        /* \"#utility.yul\":10126:10130   */\n      dup2\n        /* \"#utility.yul\":10117:10123   */\n      dup6\n        /* \"#utility.yul\":10053:10131   */\n      tag_334\n      jump\t// in\n    tag_397:\n        /* \"#utility.yul\":10045:10131   */\n      swap1\n      pop\n        /* \"#utility.yul\":10179:10188   */\n      dup2\n        /* \"#utility.yul\":10173:10177   */\n      dup2\n        /* \"#utility.yul\":10169:10189   */\n      sub\n        /* \"#utility.yul\":10163:10166   */\n      0x80\n        /* \"#utility.yul\":10152:10161   */\n      dup4\n        /* \"#utility.yul\":10148:10167   */\n      add\n        /* \"#utility.yul\":10141:10190   */\n      mstore\n        /* \"#utility.yul\":10207:10285   */\n      tag_398\n        /* \"#utility.yul\":10280:10284   */\n      dup2\n        /* \"#utility.yul\":10271:10277   */\n      dup5\n        /* \"#utility.yul\":10207:10285   */\n      tag_334\n      jump\t// in\n    tag_398:\n        /* \"#utility.yul\":10199:10285   */\n      swap1\n      pop\n        /* \"#utility.yul\":9483:10292   */\n      swap7\n      swap6\n      pop\n      pop\n      pop\n      pop\n      pop\n      pop\n      jump\t// out\n        /* \"#utility.yul\":10298:11725   */\n    tag_206:\n      0x00\n        /* \"#utility.yul\":10742:10745   */\n      0xc0\n        /* \"#utility.yul\":10731:10740   */\n      dup3\n        /* \"#utility.yul\":10727:10746   */\n      add\n        /* \"#utility.yul\":10719:10746   */\n      swap1\n      pop\n        /* \"#utility.yul\":10792:10801   */\n      dup2\n        /* \"#utility.yul\":10786:10790   */\n      dup2\n        /* \"#utility.yul\":10782:10802   */\n      sub\n        /* \"#utility.yul\":10778:10779   */\n      0x00\n        /* \"#utility.yul\":10767:10776   */\n      dup4\n        /* \"#utility.yul\":10763:10780   */\n      add\n        /* \"#utility.yul\":10756:10803   */\n      mstore\n        /* \"#utility.yul\":10820:10898   */\n      tag_400\n        /* \"#utility.yul\":10893:10897   */\n      dup2\n        /* \"#utility.yul\":10884:10890   */\n      dup9\n        /* \"#utility.yul\":10820:10898   */\n      tag_334\n      jump\t// in\n    tag_400:\n        /* \"#utility.yul\":10812:10898   */\n      swap1\n      pop\n        /* \"#utility.yul\":10945:10954   */\n      dup2\n        /* \"#utility.yul\":10939:10943   */\n      dup2\n        /* \"#utility.yul\":10935:10955   */\n      sub\n        /* \"#utility.yul\":10930:10932   */\n      0x20\n        /* \"#utility.yul\":10919:10928   */\n      dup4\n        /* \"#utility.yul\":10915:10933   */\n      add\n        /* \"#utility.yul\":10908:10956   */\n      mstore\n        /* \"#utility.yul\":10973:11051   */\n      tag_401\n        /* \"#utility.yul\":11046:11050   */\n      dup2\n        /* \"#utility.yul\":11037:11043   */\n      dup8\n        /* \"#utility.yul\":10973:11051   */\n      tag_334\n      jump\t// in\n    tag_401:\n        /* \"#utility.yul\":10965:11051   */\n      swap1\n      pop\n        /* \"#utility.yul\":11098:11107   */\n      dup2\n        /* \"#utility.yul\":11092:11096   */\n      dup2\n        /* \"#utility.yul\":11088:11108   */\n      sub\n        /* \"#utility.yul\":11083:11085   */\n      0x40\n        /* \"#utility.yul\":11072:11081   */\n      dup4\n        /* \"#utility.yul\":11068:11086   */\n      add\n        /* \"#utility.yul\":11061:11109   */\n      mstore\n        /* \"#utility.yul\":11126:11204   */\n      tag_402\n        /* \"#utility.yul\":11199:11203   */\n      dup2\n        /* \"#utility.yul\":11190:11196   */\n      dup7\n        /* \"#utility.yul\":11126:11204   */\n      tag_334\n      jump\t// in\n    tag_402:\n        /* \"#utility.yul\":11118:11204   */\n      swap1\n      pop\n        /* \"#utility.yul\":11251:11260   */\n      dup2\n        /* \"#utility.yul\":11245:11249   */\n      dup2\n        /* \"#utility.yul\":11241:11261   */\n      sub\n        /* \"#utility.yul\":11236:11238   */\n      0x60\n        /* \"#utility.yul\":11225:11234   */\n      dup4\n        /* \"#utility.yul\":11221:11239   */\n      add\n        /* \"#utility.yul\":11214:11262   */\n      mstore\n        /* \"#utility.yul\":11279:11357   */\n      tag_403\n        /* \"#utility.yul\":11352:11356   */\n      dup2\n        /* \"#utility.yul\":11343:11349   */\n      dup6\n        /* \"#utility.yul\":11279:11357   */\n      tag_334\n      jump\t// in\n    tag_403:\n        /* \"#utility.yul\":11271:11357   */\n      swap1\n      pop\n        /* \"#utility.yul\":11405:11414   */\n      dup2\n        /* \"#utility.yul\":11399:11403   */\n      dup2\n        /* \"#utility.yul\":11395:11415   */\n      sub\n        /* \"#utility.yul\":11389:11392   */\n      0x80\n        /* \"#utility.yul\":11378:11387   */\n      dup4\n        /* \"#utility.yul\":11374:11393   */\n      add\n        /* \"#utility.yul\":11367:11416   */\n      mstore\n        /* \"#utility.yul\":11433:11511   */\n      tag_404\n        /* \"#utility.yul\":11506:11510   */\n      dup2\n        /* \"#utility.yul\":11497:11503   */\n      dup5\n        /* \"#utility.yul\":11433:11511   */\n      tag_334\n      jump\t// in\n    tag_404:\n        /* \"#utility.yul\":11425:11511   */\n      swap1\n      pop\n        /* \"#utility.yul\":11559:11568   */\n      dup2\n        /* \"#utility.yul\":11553:11557   */\n      dup2\n        /* \"#utility.yul\":11549:11569   */\n      sub\n        /* \"#utility.yul\":11543:11546   */\n      0xa0\n        /* \"#utility.yul\":11532:11541   */\n      dup4\n        /* \"#utility.yul\":11528:11547   */\n      add\n        /* \"#utility.yul\":11521:11570   */\n      mstore\n        /* \"#utility.yul\":11587:11718   */\n      tag_405\n        /* \"#utility.yul\":11713:11717   */\n      dup2\n        /* \"#utility.yul\":11587:11718   */\n      tag_355\n      jump\t// in\n    tag_405:\n        /* \"#utility.yul\":11579:11718   */\n      swap1\n      pop\n        /* \"#utility.yul\":10709:11725   */\n      swap7\n      swap6\n      pop\n      pop\n      pop\n      pop\n      pop\n      pop\n      jump\t// out\n        /* \"#utility.yul\":11731:13158   */\n    tag_258:\n      0x00\n        /* \"#utility.yul\":12175:12178   */\n      0xc0\n        /* \"#utility.yul\":12164:12173   */\n      dup3\n        /* \"#utility.yul\":12160:12179   */\n      add\n        /* \"#utility.yul\":12152:12179   */\n      swap1\n      pop\n        /* \"#utility.yul\":12225:12234   */\n      dup2\n        /* \"#utility.yul\":12219:12223   */\n      dup2\n        /* \"#utility.yul\":12215:12235   */\n      sub\n        /* \"#utility.yul\":12211:12212   */\n      0x00\n        /* \"#utility.yul\":12200:12209   */\n      dup4\n        /* \"#utility.yul\":12196:12213   */\n      add\n        /* \"#utility.yul\":12189:12236   */\n      mstore\n        /* \"#utility.yul\":12253:12331   */\n      tag_407\n        /* \"#utility.yul\":12326:12330   */\n      dup2\n        /* \"#utility.yul\":12317:12323   */\n      dup9\n        /* \"#utility.yul\":12253:12331   */\n      tag_334\n      jump\t// in\n    tag_407:\n        /* \"#utility.yul\":12245:12331   */\n      swap1\n      pop\n        /* \"#utility.yul\":12378:12387   */\n      dup2\n        /* \"#utility.yul\":12372:12376   */\n      dup2\n        /* \"#utility.yul\":12368:12388   */\n      sub\n        /* \"#utility.yul\":12363:12365   */\n      0x20\n        /* \"#utility.yul\":12352:12361   */\n      dup4\n        /* \"#utility.yul\":12348:12366   */\n      add\n        /* \"#utility.yul\":12341:12389   */\n      mstore\n        /* \"#utility.yul\":12406:12484   */\n      tag_408\n        /* \"#utility.yul\":12479:12483   */\n      dup2\n        /* \"#utility.yul\":12470:12476   */\n      dup8\n        /* \"#utility.yul\":12406:12484   */\n      tag_334\n      jump\t// in\n    tag_408:\n        /* \"#utility.yul\":12398:12484   */\n      swap1\n      pop\n        /* \"#utility.yul\":12531:12540   */\n      dup2\n        /* \"#utility.yul\":12525:12529   */\n      dup2\n        /* \"#utility.yul\":12521:12541   */\n      sub\n        /* \"#utility.yul\":12516:12518   */\n      0x40\n        /* \"#utility.yul\":12505:12514   */\n      dup4\n        /* \"#utility.yul\":12501:12519   */\n      add\n        /* \"#utility.yul\":12494:12542   */\n      mstore\n        /* \"#utility.yul\":12559:12637   */\n      tag_409\n        /* \"#utility.yul\":12632:12636   */\n      dup2\n        /* \"#utility.yul\":12623:12629   */\n      dup7\n        /* \"#utility.yul\":12559:12637   */\n      tag_334\n      jump\t// in\n    tag_409:\n        /* \"#utility.yul\":12551:12637   */\n      swap1\n      pop\n        /* \"#utility.yul\":12684:12693   */\n      dup2\n        /* \"#utility.yul\":12678:12682   */\n      dup2\n        /* \"#utility.yul\":12674:12694   */\n      sub\n        /* \"#utility.yul\":12669:12671   */\n      0x60\n        /* \"#utility.yul\":12658:12667   */\n      dup4\n        /* \"#utility.yul\":12654:12672   */\n      add\n        /* \"#utility.yul\":12647:12695   */\n      mstore\n        /* \"#utility.yul\":12712:12790   */\n      tag_410\n        /* \"#utility.yul\":12785:12789   */\n      dup2\n        /* \"#utility.yul\":12776:12782   */\n      dup6\n        /* \"#utility.yul\":12712:12790   */\n      tag_334\n      jump\t// in\n    tag_410:\n        /* \"#utility.yul\":12704:12790   */\n      swap1\n      pop\n        /* \"#utility.yul\":12838:12847   */\n      dup2\n        /* \"#utility.yul\":12832:12836   */\n      dup2\n        /* \"#utility.yul\":12828:12848   */\n      sub\n        /* \"#utility.yul\":12822:12825   */\n      0x80\n        /* \"#utility.yul\":12811:12820   */\n      dup4\n        /* \"#utility.yul\":12807:12826   */\n      add\n        /* \"#utility.yul\":12800:12849   */\n      mstore\n        /* \"#utility.yul\":12866:12944   */\n      tag_411\n        /* \"#utility.yul\":12939:12943   */\n      dup2\n        /* \"#utility.yul\":12930:12936   */\n      dup5\n        /* \"#utility.yul\":12866:12944   */\n      tag_334\n      jump\t// in\n    tag_411:\n        /* \"#utility.yul\":12858:12944   */\n      swap1\n      pop\n        /* \"#utility.yul\":12992:13001   */\n      dup2\n        /* \"#utility.yul\":12986:12990   */\n      dup2\n        /* \"#utility.yul\":12982:13002   */\n      sub\n        /* \"#utility.yul\":12976:12979   */\n      0xa0\n        /* \"#utility.yul\":12965:12974   */\n      dup4\n        /* \"#utility.yul\":12961:12980   */\n      add\n        /* \"#utility.yul\":12954:13003   */\n      mstore\n        /* \"#utility.yul\":13020:13151   */\n      tag_412\n        /* \"#utility.yul\":13146:13150   */\n      dup2\n        /* \"#utility.yul\":13020:13151   */\n      tag_360\n      jump\t// in\n    tag_412:\n        /* \"#utility.yul\":13012:13151   */\n      swap1\n      pop\n        /* \"#utility.yul\":12142:13158   */\n      swap7\n      swap6\n      pop\n      pop\n      pop\n      pop\n      pop\n      pop\n      jump\t// out\n        /* \"#utility.yul\":13164:14187   */\n    tag_230:\n      0x00\n        /* \"#utility.yul\":13512:13515   */\n      0x80\n        /* \"#utility.yul\":13501:13510   */\n      dup3\n        /* \"#utility.yul\":13497:13516   */\n      add\n        /* \"#utility.yul\":13489:13516   */\n      swap1\n      pop\n        /* \"#utility.yul\":13562:13571   */\n      dup2\n        /* \"#utility.yul\":13556:13560   */\n      dup2\n        /* \"#utility.yul\":13552:13572   */\n      sub\n        /* \"#utility.yul\":13548:13549   */\n      0x00\n        /* \"#utility.yul\":13537:13546   */\n      dup4\n        /* \"#utility.yul\":13533:13550   */\n      add\n        /* \"#utility.yul\":13526:13573   */\n      mstore\n        /* \"#utility.yul\":13590:13668   */\n      tag_414\n        /* \"#utility.yul\":13663:13667   */\n      dup2\n        /* \"#utility.yul\":13654:13660   */\n      dup7\n        /* \"#utility.yul\":13590:13668   */\n      tag_334\n      jump\t// in\n    tag_414:\n        /* \"#utility.yul\":13582:13668   */\n      swap1\n      pop\n        /* \"#utility.yul\":13715:13724   */\n      dup2\n        /* \"#utility.yul\":13709:13713   */\n      dup2\n        /* \"#utility.yul\":13705:13725   */\n      sub\n        /* \"#utility.yul\":13700:13702   */\n      0x20\n        /* \"#utility.yul\":13689:13698   */\n      dup4\n        /* \"#utility.yul\":13685:13703   */\n      add\n        /* \"#utility.yul\":13678:13726   */\n      mstore\n        /* \"#utility.yul\":13743:13821   */\n      tag_415\n        /* \"#utility.yul\":13816:13820   */\n      dup2\n        /* \"#utility.yul\":13807:13813   */\n      dup6\n        /* \"#utility.yul\":13743:13821   */\n      tag_334\n      jump\t// in\n    tag_415:\n        /* \"#utility.yul\":13735:13821   */\n      swap1\n      pop\n        /* \"#utility.yul\":13868:13877   */\n      dup2\n        /* \"#utility.yul\":13862:13866   */\n      dup2\n        /* \"#utility.yul\":13858:13878   */\n      sub\n        /* \"#utility.yul\":13853:13855   */\n      0x40\n        /* \"#utility.yul\":13842:13851   */\n      dup4\n        /* \"#utility.yul\":13838:13856   */\n      add\n        /* \"#utility.yul\":13831:13879   */\n      mstore\n        /* \"#utility.yul\":13896:13974   */\n      tag_416\n        /* \"#utility.yul\":13969:13973   */\n      dup2\n        /* \"#utility.yul\":13960:13966   */\n      dup5\n        /* \"#utility.yul\":13896:13974   */\n      tag_334\n      jump\t// in\n    tag_416:\n        /* \"#utility.yul\":13888:13974   */\n      swap1\n      pop\n        /* \"#utility.yul\":14021:14030   */\n      dup2\n        /* \"#utility.yul\":14015:14019   */\n      dup2\n        /* \"#utility.yul\":14011:14031   */\n      sub\n        /* \"#utility.yul\":14006:14008   */\n      0x60\n        /* \"#utility.yul\":13995:14004   */\n      dup4\n        /* \"#utility.yul\":13991:14009   */\n      add\n        /* \"#utility.yul\":13984:14032   */\n      mstore\n        /* \"#utility.yul\":14049:14180   */\n      tag_417\n        /* \"#utility.yul\":14175:14179   */\n      dup2\n        /* \"#utility.yul\":14049:14180   */\n      tag_370\n      jump\t// in\n    tag_417:\n        /* \"#utility.yul\":14041:14180   */\n      swap1\n      pop\n        /* \"#utility.yul\":13479:14187   */\n      swap5\n      swap4\n      pop\n      pop\n      pop\n      pop\n      jump\t// out\n        /* \"#utility.yul\":14193:14612   */\n    tag_186:\n      0x00\n        /* \"#utility.yul\":14397:14399   */\n      0x20\n        /* \"#utility.yul\":14386:14395   */\n      dup3\n        /* \"#utility.yul\":14382:14400   */\n      add\n        /* \"#utility.yul\":14374:14400   */\n      swap1\n      pop\n        /* \"#utility.yul\":14446:14455   */\n      dup2\n        /* \"#utility.yul\":14440:14444   */\n      dup2\n        /* \"#utility.yul\":14436:14456   */\n      sub\n        /* \"#utility.yul\":14432:14433   */\n      0x00\n        /* \"#utility.yul\":14421:14430   */\n      dup4\n        /* \"#utility.yul\":14417:14434   */\n      add\n        /* \"#utility.yul\":14410:14457   */\n      mstore\n        /* \"#utility.yul\":14474:14605   */\n      tag_419\n        /* \"#utility.yul\":14600:14604   */\n      dup2\n        /* \"#utility.yul\":14474:14605   */\n      tag_350\n      jump\t// in\n    tag_419:\n        /* \"#utility.yul\":14466:14605   */\n      swap1\n      pop\n        /* \"#utility.yul\":14364:14612   */\n      swap2\n      swap1\n      pop\n      jump\t// out\n        /* \"#utility.yul\":14618:15037   */\n    tag_193:\n      0x00\n        /* \"#utility.yul\":14822:14824   */\n      0x20\n        /* \"#utility.yul\":14811:14820   */\n      dup3\n        /* \"#utility.yul\":14807:14825   */\n      add\n        /* \"#utility.yul\":14799:14825   */\n      swap1\n      pop\n        /* \"#utility.yul\":14871:14880   */\n      dup2\n        /* \"#utility.yul\":14865:14869   */\n      dup2\n        /* \"#utility.yul\":14861:14881   */\n      sub\n        /* \"#utility.yul\":14857:14858   */\n      0x00\n        /* \"#utility.yul\":14846:14855   */\n      dup4\n        /* \"#utility.yul\":14842:14859   */\n      add\n        /* \"#utility.yul\":14835:14882   */\n      mstore\n        /* \"#utility.yul\":14899:15030   */\n      tag_421\n        /* \"#utility.yul\":15025:15029   */\n      dup2\n        /* \"#utility.yul\":14899:15030   */\n      tag_365\n      jump\t// in\n    tag_421:\n        /* \"#utility.yul\":14891:15030   */\n      swap1\n      pop\n        /* \"#utility.yul\":14789:15037   */\n      swap2\n      swap1\n      pop\n      jump\t// out\n        /* \"#utility.yul\":15043:15462   */\n    tag_141:\n      0x00\n        /* \"#utility.yul\":15247:15249   */\n      0x20\n        /* \"#utility.yul\":15236:15245   */\n      dup3\n        /* \"#utility.yul\":15232:15250   */\n      add\n        /* \"#utility.yul\":15224:15250   */\n      swap1\n      pop\n        /* \"#utility.yul\":15296:15305   */\n      dup2\n        /* \"#utility.yul\":15290:15294   */\n      dup2\n        /* \"#utility.yul\":15286:15306   */\n      sub\n        /* \"#utility.yul\":15282:15283   */\n      0x00\n        /* \"#utility.yul\":15271:15280   */\n      dup4\n        /* \"#utility.yul\":15267:15284   */\n      add\n        /* \"#utility.yul\":15260:15307   */\n      mstore\n        /* \"#utility.yul\":15324:15455   */\n      tag_423\n        /* \"#utility.yul\":15450:15454   */\n      dup2\n        /* \"#utility.yul\":15324:15455   */\n      tag_375\n      jump\t// in\n    tag_423:\n        /* \"#utility.yul\":15316:15455   */\n      swap1\n      pop\n        /* \"#utility.yul\":15214:15462   */\n      swap2\n      swap1\n      pop\n      jump\t// out\n        /* \"#utility.yul\":15468:15597   */\n    tag_288:\n      0x00\n        /* \"#utility.yul\":15529:15549   */\n      tag_425\n      tag_426\n      jump\t// in\n    tag_425:\n        /* \"#utility.yul\":15519:15549   */\n      swap1\n      pop\n        /* \"#utility.yul\":15558:15591   */\n      tag_427\n        /* \"#utility.yul\":15586:15590   */\n      dup3\n        /* \"#utility.yul\":15578:15584   */\n      dup3\n        /* \"#utility.yul\":15558:15591   */\n      tag_428\n      jump\t// in\n    tag_427:\n        /* \"#utility.yul\":15509:15597   */\n      swap2\n      swap1\n      pop\n      jump\t// out\n        /* \"#utility.yul\":15603:15678   */\n    tag_426:\n      0x00\n        /* \"#utility.yul\":15669:15671   */\n      0x40\n        /* \"#utility.yul\":15663:15672   */\n      mload\n        /* \"#utility.yul\":15653:15672   */\n      swap1\n      pop\n        /* \"#utility.yul\":15643:15678   */\n      swap1\n      jump\t// out\n        /* \"#utility.yul\":15684:15992   */\n    tag_287:\n      0x00\n        /* \"#utility.yul\":15836:15854   */\n      0xffffffffffffffff\n        /* \"#utility.yul\":15828:15834   */\n      dup3\n        /* \"#utility.yul\":15825:15855   */\n      gt\n        /* \"#utility.yul\":15822:15824   */\n      iszero\n      tag_431\n      jumpi\n        /* \"#utility.yul\":15858:15876   */\n      tag_432\n      tag_433\n      jump\t// in\n    tag_432:\n        /* \"#utility.yul\":15822:15824   */\n    tag_431:\n        /* \"#utility.yul\":15896:15925   */\n      tag_434\n        /* \"#utility.yul\":15918:15924   */\n      dup3\n        /* \"#utility.yul\":15896:15925   */\n      tag_343\n      jump\t// in\n    tag_434:\n        /* \"#utility.yul\":15888:15925   */\n      swap1\n      pop\n        /* \"#utility.yul\":15980:15984   */\n      0x20\n        /* \"#utility.yul\":15974:15978   */\n      dup2\n        /* \"#utility.yul\":15970:15985   */\n      add\n        /* \"#utility.yul\":15962:15985   */\n      swap1\n      pop\n        /* \"#utility.yul\":15751:15992   */\n      swap2\n      swap1\n      pop\n      jump\t// out\n        /* \"#utility.yul\":15998:16097   */\n    tag_337:\n      0x00\n        /* \"#utility.yul\":16084:16089   */\n      dup2\n        /* \"#utility.yul\":16078:16090   */\n      mload\n        /* \"#utility.yul\":16068:16090   */\n      swap1\n      pop\n        /* \"#utility.yul\":16057:16097   */\n      swap2\n      swap1\n      pop\n      jump\t// out\n        /* \"#utility.yul\":16103:16272   */\n    tag_339:\n      0x00\n        /* \"#utility.yul\":16221:16227   */\n      dup3\n        /* \"#utility.yul\":16216:16219   */\n      dup3\n        /* \"#utility.yul\":16209:16228   */\n      mstore\n        /* \"#utility.yul\":16261:16265   */\n      0x20\n        /* \"#utility.yul\":16256:16259   */\n      dup3\n        /* \"#utility.yul\":16252:16266   */\n      add\n        /* \"#utility.yul\":16237:16266   */\n      swap1\n      pop\n        /* \"#utility.yul\":16199:16272   */\n      swap3\n      swap2\n      pop\n      pop\n      jump\t// out\n        /* \"#utility.yul\":16278:16426   */\n    tag_348:\n      0x00\n        /* \"#utility.yul\":16417:16420   */\n      dup2\n        /* \"#utility.yul\":16402:16420   */\n      swap1\n      pop\n        /* \"#utility.yul\":16392:16426   */\n      swap3\n      swap2\n      pop\n      pop\n      jump\t// out\n        /* \"#utility.yul\":16432:16528   */\n    tag_329:\n      0x00\n        /* \"#utility.yul\":16498:16522   */\n      tag_439\n        /* \"#utility.yul\":16516:16521   */\n      dup3\n        /* \"#utility.yul\":16498:16522   */\n      tag_440\n      jump\t// in\n    tag_439:\n        /* \"#utility.yul\":16487:16522   */\n      swap1\n      pop\n        /* \"#utility.yul\":16477:16528   */\n      swap2\n      swap1\n      pop\n      jump\t// out\n        /* \"#utility.yul\":16534:16624   */\n    tag_333:\n      0x00\n        /* \"#utility.yul\":16611:16616   */\n      dup2\n        /* \"#utility.yul\":16604:16617   */\n      iszero\n        /* \"#utility.yul\":16597:16618   */\n      iszero\n        /* \"#utility.yul\":16586:16618   */\n      swap1\n      pop\n        /* \"#utility.yul\":16576:16624   */\n      swap2\n      swap1\n      pop\n      jump\t// out\n        /* \"#utility.yul\":16630:16756   */\n    tag_440:\n      0x00\n        /* \"#utility.yul\":16707:16749   */\n      0xffffffffffffffffffffffffffffffffffffffff\n        /* \"#utility.yul\":16700:16705   */\n      dup3\n        /* \"#utility.yul\":16696:16750   */\n      and\n        /* \"#utility.yul\":16685:16750   */\n      swap1\n      pop\n        /* \"#utility.yul\":16675:16756   */\n      swap2\n      swap1\n      pop\n      jump\t// out\n        /* \"#utility.yul\":16762:16916   */\n    tag_291:\n        /* \"#utility.yul\":16846:16852   */\n      dup3\n        /* \"#utility.yul\":16841:16844   */\n      dup2\n        /* \"#utility.yul\":16836:16839   */\n      dup4\n        /* \"#utility.yul\":16823:16853   */\n      calldatacopy\n        /* \"#utility.yul\":16908:16909   */\n      0x00\n        /* \"#utility.yul\":16899:16905   */\n      dup4\n        /* \"#utility.yul\":16894:16897   */\n      dup4\n        /* \"#utility.yul\":16890:16906   */\n      add\n        /* \"#utility.yul\":16883:16910   */\n      mstore\n        /* \"#utility.yul\":16813:16916   */\n      pop\n      pop\n      pop\n      jump\t// out\n        /* \"#utility.yul\":16922:17229   */\n    tag_341:\n        /* \"#utility.yul\":16990:16991   */\n      0x00\n        /* \"#utility.yul\":17000:17113   */\n    tag_445:\n        /* \"#utility.yul\":17014:17020   */\n      dup4\n        /* \"#utility.yul\":17011:17012   */\n      dup2\n        /* \"#utility.yul\":17008:17021   */\n      lt\n        /* \"#utility.yul\":17000:17113   */\n      iszero\n      tag_447\n      jumpi\n        /* \"#utility.yul\":17099:17100   */\n      dup1\n        /* \"#utility.yul\":17094:17097   */\n      dup3\n        /* \"#utility.yul\":17090:17101   */\n      add\n        /* \"#utility.yul\":17084:17102   */\n      mload\n        /* \"#utility.yul\":17080:17081   */\n      dup2\n        /* \"#utility.yul\":17075:17078   */\n      dup5\n        /* \"#utility.yul\":17071:17082   */\n      add\n        /* \"#utility.yul\":17064:17103   */\n      mstore\n        /* \"#utility.yul\":17036:17038   */\n      0x20\n        /* \"#utility.yul\":17033:17034   */\n      dup2\n        /* \"#utility.yul\":17029:17039   */\n      add\n        /* \"#utility.yul\":17024:17039   */\n      swap1\n      pop\n        /* \"#utility.yul\":17000:17113   */\n      jump(tag_445)\n    tag_447:\n        /* \"#utility.yul\":17131:17137   */\n      dup4\n        /* \"#utility.yul\":17128:17129   */\n      dup2\n        /* \"#utility.yul\":17125:17138   */\n      gt\n        /* \"#utility.yul\":17122:17124   */\n      iszero\n      tag_448\n      jumpi\n        /* \"#utility.yul\":17211:17212   */\n      0x00\n        /* \"#utility.yul\":17202:17208   */\n      dup5\n        /* \"#utility.yul\":17197:17200   */\n      dup5\n        /* \"#utility.yul\":17193:17209   */\n      add\n        /* \"#utility.yul\":17186:17213   */\n      mstore\n        /* \"#utility.yul\":17122:17124   */\n    tag_448:\n        /* \"#utility.yul\":16971:17229   */\n      pop\n      pop\n      pop\n      pop\n      jump\t// out\n        /* \"#utility.yul\":17235:17555   */\n    tag_79:\n      0x00\n        /* \"#utility.yul\":17316:17317   */\n      0x02\n        /* \"#utility.yul\":17310:17314   */\n      dup3\n        /* \"#utility.yul\":17306:17318   */\n      div\n        /* \"#utility.yul\":17296:17318   */\n      swap1\n      pop\n        /* \"#utility.yul\":17363:17364   */\n      0x01\n        /* \"#utility.yul\":17357:17361   */\n      dup3\n        /* \"#utility.yul\":17353:17365   */\n      and\n        /* \"#utility.yul\":17384:17402   */\n      dup1\n        /* \"#utility.yul\":17374:17376   */\n      tag_450\n      jumpi\n        /* \"#utility.yul\":17440:17444   */\n      0x7f\n        /* \"#utility.yul\":17432:17438   */\n      dup3\n        /* \"#utility.yul\":17428:17445   */\n      and\n        /* \"#utility.yul\":17418:17445   */\n      swap2\n      pop\n        /* \"#utility.yul\":17374:17376   */\n    tag_450:\n        /* \"#utility.yul\":17502:17504   */\n      0x20\n        /* \"#utility.yul\":17494:17500   */\n      dup3\n        /* \"#utility.yul\":17491:17505   */\n      lt\n        /* \"#utility.yul\":17471:17489   */\n      dup2\n        /* \"#utility.yul\":17468:17506   */\n      eq\n        /* \"#utility.yul\":17465:17467   */\n      iszero\n      tag_451\n      jumpi\n        /* \"#utility.yul\":17521:17539   */\n      tag_452\n      tag_453\n      jump\t// in\n    tag_452:\n        /* \"#utility.yul\":17465:17467   */\n    tag_451:\n        /* \"#utility.yul\":17286:17555   */\n      pop\n      swap2\n      swap1\n      pop\n      jump\t// out\n        /* \"#utility.yul\":17561:17842   */\n    tag_428:\n        /* \"#utility.yul\":17644:17671   */\n      tag_455\n        /* \"#utility.yul\":17666:17670   */\n      dup3\n        /* \"#utility.yul\":17644:17671   */\n      tag_343\n      jump\t// in\n    tag_455:\n        /* \"#utility.yul\":17636:17642   */\n      dup2\n        /* \"#utility.yul\":17632:17672   */\n      add\n        /* \"#utility.yul\":17774:17780   */\n      dup2\n        /* \"#utility.yul\":17762:17772   */\n      dup2\n        /* \"#utility.yul\":17759:17781   */\n      lt\n        /* \"#utility.yul\":17738:17756   */\n      0xffffffffffffffff\n        /* \"#utility.yul\":17726:17736   */\n      dup3\n        /* \"#utility.yul\":17723:17757   */\n      gt\n        /* \"#utility.yul\":17720:17782   */\n      or\n        /* \"#utility.yul\":17717:17719   */\n      iszero\n      tag_456\n      jumpi\n        /* \"#utility.yul\":17785:17803   */\n      tag_457\n      tag_433\n      jump\t// in\n    tag_457:\n        /* \"#utility.yul\":17717:17719   */\n    tag_456:\n        /* \"#utility.yul\":17825:17835   */\n      dup1\n        /* \"#utility.yul\":17821:17823   */\n      0x40\n        /* \"#utility.yul\":17814:17836   */\n      mstore\n        /* \"#utility.yul\":17604:17842   */\n      pop\n      pop\n      pop\n      jump\t// out\n        /* \"#utility.yul\":17848:18028   */\n    tag_453:\n        /* \"#utility.yul\":17896:17973   */\n      0x4e487b7100000000000000000000000000000000000000000000000000000000\n        /* \"#utility.yul\":17893:17894   */\n      0x00\n        /* \"#utility.yul\":17886:17974   */\n      mstore\n        /* \"#utility.yul\":17993:17997   */\n      0x22\n        /* \"#utility.yul\":17990:17991   */\n      0x04\n        /* \"#utility.yul\":17983:17998   */\n      mstore\n        /* \"#utility.yul\":18017:18021   */\n      0x24\n        /* \"#utility.yul\":18014:18015   */\n      0x00\n        /* \"#utility.yul\":18007:18022   */\n      revert\n        /* \"#utility.yul\":18034:18214   */\n    tag_433:\n        /* \"#utility.yul\":18082:18159   */\n      0x4e487b7100000000000000000000000000000000000000000000000000000000\n        /* \"#utility.yul\":18079:18080   */\n      0x00\n        /* \"#utility.yul\":18072:18160   */\n      mstore\n        /* \"#utility.yul\":18179:18183   */\n      0x41\n        /* \"#utility.yul\":18176:18177   */\n      0x04\n        /* \"#utility.yul\":18169:18184   */\n      mstore\n        /* \"#utility.yul\":18203:18207   */\n      0x24\n        /* \"#utility.yul\":18200:18201   */\n      0x00\n        /* \"#utility.yul\":18193:18208   */\n      revert\n        /* \"#utility.yul\":18220:18322   */\n    tag_343:\n      0x00\n        /* \"#utility.yul\":18312:18314   */\n      0x1f\n        /* \"#utility.yul\":18308:18315   */\n      not\n        /* \"#utility.yul\":18303:18305   */\n      0x1f\n        /* \"#utility.yul\":18296:18301   */\n      dup4\n        /* \"#utility.yul\":18292:18306   */\n      add\n        /* \"#utility.yul\":18288:18316   */\n      and\n        /* \"#utility.yul\":18278:18316   */\n      swap1\n      pop\n        /* \"#utility.yul\":18268:18322   */\n      swap2\n      swap1\n      pop\n      jump\t// out\n        /* \"#utility.yul\":18328:18560   */\n    tag_354:\n        /* \"#utility.yul\":18468:18502   */\n      0x536f6d657468696e672069732057726f6e672066726f6d204465706f74496e63\n        /* \"#utility.yul\":18464:18465   */\n      0x00\n        /* \"#utility.yul\":18456:18462   */\n      dup3\n        /* \"#utility.yul\":18452:18466   */\n      add\n        /* \"#utility.yul\":18445:18503   */\n      mstore\n        /* \"#utility.yul\":18537:18548   */\n      0x6861726765203a28200000000000000000000000000000000000000000000000\n        /* \"#utility.yul\":18532:18534   */\n      0x20\n        /* \"#utility.yul\":18524:18530   */\n      dup3\n        /* \"#utility.yul\":18520:18535   */\n      add\n        /* \"#utility.yul\":18513:18549   */\n      mstore\n        /* \"#utility.yul\":18434:18560   */\n      pop\n      jump\t// out\n        /* \"#utility.yul\":18570:18743   */\n    tag_359:\n        /* \"#utility.yul\":18714:18731   */\n      0x4465706f7420496e2d6368617267650000000000000000000000000000000000\n        /* \"#utility.yul\":18710:18711   */\n      0x00\n        /* \"#utility.yul\":18702:18708   */\n      dup3\n        /* \"#utility.yul\":18698:18712   */\n      add\n        /* \"#utility.yul\":18691:18732   */\n      mstore\n        /* \"#utility.yul\":18676:18743   */\n      pop\n      jump\t// out\n        /* \"#utility.yul\":18753:18921   */\n    tag_364:\n        /* \"#utility.yul\":18897:18909   */\n      0x506861726d616369737400000000000000000000000000000000000000000000\n        /* \"#utility.yul\":18893:18894   */\n      0x00\n        /* \"#utility.yul\":18885:18891   */\n      dup3\n        /* \"#utility.yul\":18881:18895   */\n      add\n        /* \"#utility.yul\":18874:18910   */\n      mstore\n        /* \"#utility.yul\":18859:18921   */\n      pop\n      jump\t// out\n        /* \"#utility.yul\":18931:19172   */\n    tag_369:\n        /* \"#utility.yul\":19075:19109   */\n      0x536f6d657468696e672069732057726f6e672066726f6d20506861726d616369\n        /* \"#utility.yul\":19071:19072   */\n      0x00\n        /* \"#utility.yul\":19063:19069   */\n      dup3\n        /* \"#utility.yul\":19059:19073   */\n      add\n        /* \"#utility.yul\":19052:19110   */\n      mstore\n        /* \"#utility.yul\":19148:19156   */\n      0x7374203a28200000000000000000000000000000000000000000000000000000\n        /* \"#utility.yul\":19143:19145   */\n      0x20\n        /* \"#utility.yul\":19135:19141   */\n      dup3\n        /* \"#utility.yul\":19131:19146   */\n      add\n        /* \"#utility.yul\":19124:19157   */\n      mstore\n        /* \"#utility.yul\":19037:19172   */\n      pop\n      jump\t// out\n        /* \"#utility.yul\":19186:19364   */\n    tag_374:\n        /* \"#utility.yul\":19334:19348   */\n      0x4d616e7566616374757265720000000000000000000000000000000000000000\n        /* \"#utility.yul\":19330:19331   */\n      0x00\n        /* \"#utility.yul\":19322:19328   */\n      dup3\n        /* \"#utility.yul\":19318:19332   */\n      add\n        /* \"#utility.yul\":19311:19349   */\n      mstore\n        /* \"#utility.yul\":19292:19364   */\n      pop\n      jump\t// out\n        /* \"#utility.yul\":19378:19569   */\n    tag_379:\n        /* \"#utility.yul\":19526:19553   */\n      0x4d6573736167652066726f6d204d616e75666163747572657200000000000000\n        /* \"#utility.yul\":19522:19523   */\n      0x00\n        /* \"#utility.yul\":19514:19520   */\n      dup3\n        /* \"#utility.yul\":19510:19524   */\n      add\n        /* \"#utility.yul\":19503:19554   */\n      mstore\n        /* \"#utility.yul\":19484:19569   */\n      pop\n      jump\t// out\n\n    auxdata: 0xa26469706673582212200800b757c8187f5559b88cb6a2bdbd362382281c90d3f4182ac6ca8e36bfe4e564736f6c63430008030033\n}\n",
				"bytecode": {
					"linkReferences": {},
					"object": "608060405234801561001057600080fd5b5033600660006101000a81548173ffffffffffffffffffffffffffffffffffffffff021916908373ffffffffffffffffffffffffffffffffffffffff16021790555061255a806100616000396000f3fe608060405234801561001057600080fd5b50600436106100f55760003560e01c8063622a072911610097578063b21847a011610066578063b21847a01461026e578063cc728f1f1461028a578063f108067e146102a6578063f2b0597c146102c2576100f5565b8063622a0729146101e45780637150d8ae146102165780637c74d4f3146102345780639755963e14610252576100f5565b806313e62883116100d357806313e628831461015757806323d777341461017557806357c2eb05146101a95780635def9740146101c5576100f5565b806301705ed5146100fa57806301efb6c81461011957806308551a5314610139575b600080fd5b6101026102de565b604051610110929190611f49565b60405180910390f35b610121610405565b60405161013093929190611f80565b60405180910390f35b6101416105bf565b60405161014e9190611f13565b60405180910390f35b61015f6105e5565b60405161016c9190611f2e565b60405180910390f35b61018f600480360381019061018a9190611b6f565b61063d565b6040516101a0959493929190611fcc565b60405180910390f35b6101c360048036038101906101be9190611bb0565b6109b9565b005b6101cd610a7b565b6040516101db929190611f49565b60405180910390f35b6101fe60048036038101906101f99190611b6f565b610ba2565b60405161020d93929190611f80565b60405180910390f35b61021e610dbb565b60405161022b9190611f13565b60405180910390f35b61023c610de1565b6040516102499190611f2e565b60405180910390f35b61026c60048036038101906102679190611cb3565b610e39565b005b61028860048036038101906102839190611c1c565b6111e4565b005b6102a4600480360381019061029f9190611cb3565b61151d565b005b6102c060048036038101906102bb9190611bb0565b6118c8565b005b6102dc60048036038101906102d79190611c1c565b61198a565b005b606080600160038180546102f190612310565b80601f016020809104026020016040519081016040528092919081815260200182805461031d90612310565b801561036a5780601f1061033f5761010080835404028352916020019161036a565b820191906000526020600020905b81548152906001019060200180831161034d57829003601f168201915b5050505050915080805461037d90612310565b80601f01602080910402602001604051908101604052809291908181526020018280546103a990612310565b80156103f65780601f106103cb576101008083540402835291602001916103f6565b820191906000526020600020905b8154815290600101906020018083116103d957829003601f168201915b50505050509050915091509091565b606080606060016002600082805461041c90612310565b80601f016020809104026020016040519081016040528092919081815260200182805461044890612310565b80156104955780601f1061046a57610100808354040283529160200191610495565b820191906000526020600020905b81548152906001019060200180831161047857829003601f168201915b505050505092508180546104a890612310565b80601f01602080910402602001604051908101604052809291908181526020018280546104d490612310565b80156105215780601f106104f657610100808354040283529160200191610521565b820191906000526020600020905b81548152906001019060200180831161050457829003601f168201915b5050505050915080805461053490612310565b80601f016020809104026020016040519081016040528092919081815260200182805461056090612310565b80156105ad5780601f10610582576101008083540402835291602001916105ad565b820191906000526020600020905b81548152906001019060200180831161059057829003601f168201915b50505050509050925092509250909192565b600660009054906101000a900473ffffffffffffffffffffffffffffffffffffffff1681565b6000600760009054906101000a900473ffffffffffffffffffffffffffffffffffffffff1673ffffffffffffffffffffffffffffffffffffffff163373ffffffffffffffffffffffffffffffffffffffff1614905090565b60608060608060606004866040516106559190611efc565b90815260200160405180910390206000016004876040516106769190611efc565b90815260200160405180910390206001016004886040516106979190611efc565b90815260200160405180910390206002016004896040516106b89190611efc565b908152602001604051809103902060030160048a6040516106d99190611efc565b90815260200160405180910390206004018480546106f690612310565b80601f016020809104026020016040519081016040528092919081815260200182805461072290612310565b801561076f5780601f106107445761010080835404028352916020019161076f565b820191906000526020600020905b81548152906001019060200180831161075257829003601f168201915b5050505050945083805461078290612310565b80601f01602080910402602001604051908101604052809291908181526020018280546107ae90612310565b80156107fb5780601f106107d0576101008083540402835291602001916107fb565b820191906000526020600020905b8154815290600101906020018083116107de57829003601f168201915b5050505050935082805461080e90612310565b80601f016020809104026020016040519081016040528092919081815260200182805461083a90612310565b80156108875780601f1061085c57610100808354040283529160200191610887565b820191906000526020600020905b81548152906001019060200180831161086a57829003601f168201915b5050505050925081805461089a90612310565b80601f01602080910402602001604051908101604052809291908181526020018280546108c690612310565b80156109135780601f106108e857610100808354040283529160200191610913565b820191906000526020600020905b8154815290600101906020018083116108f657829003601f168201915b5050505050915080805461092690612310565b80601f016020809104026020016040519081016040528092919081815260200182805461095290612310565b801561099f5780601f106109745761010080835404028352916020019161099f565b820191906000526020600020905b81548152906001019060200180831161098257829003601f168201915b505050505090509450945094509450945091939590929450565b3373ffffffffffffffffffffffffffffffffffffffff16600660009054906101000a900473ffffffffffffffffffffffffffffffffffffffff1673ffffffffffffffffffffffffffffffffffffffff1614610a49576040517f08c379a0000000000000000000000000000000000000000000000000000000008152600401610a40906121f3565b60405180910390fd5b8160019080519060200190610a5f929190611a64565b508060039080519060200190610a76929190611a64565b505050565b60608060016002818054610a8e90612310565b80601f0160208091040260200160405190810160405280929190818152602001828054610aba90612310565b8015610b075780601f10610adc57610100808354040283529160200191610b07565b820191906000526020600020905b815481529060010190602001808311610aea57829003601f168201915b50505050509150808054610b1a90612310565b80601f0160208091040260200160405190810160405280929190818152602001828054610b4690612310565b8015610b935780601f10610b6857610100808354040283529160200191610b93565b820191906000526020600020905b815481529060010190602001808311610b7657829003601f168201915b50505050509050915091509091565b6060806060600584604051610bb79190611efc565b9081526020016040518091039020600001600585604051610bd89190611efc565b9081526020016040518091039020600101600586604051610bf99190611efc565b9081526020016040518091039020600201828054610c1690612310565b80601f0160208091040260200160405190810160405280929190818152602001828054610c4290612310565b8015610c8f5780601f10610c6457610100808354040283529160200191610c8f565b820191906000526020600020905b815481529060010190602001808311610c7257829003601f168201915b50505050509250818054610ca290612310565b80601f0160208091040260200160405190810160405280929190818152602001828054610cce90612310565b8015610d1b5780601f10610cf057610100808354040283529160200191610d1b565b820191906000526020600020905b815481529060010190602001808311610cfe57829003601f168201915b50505050509150808054610d2e90612310565b80601f0160208091040260200160405190810160405280929190818152602001828054610d5a90612310565b8015610da75780601f10610d7c57610100808354040283529160200191610da7565b820191906000526020600020905b815481529060010190602001808311610d8a57829003601f168201915b505050505090509250925092509193909250565b600760009054906101000a900473ffffffffffffffffffffffffffffffffffffffff1681565b6000600660009054906101000a900473ffffffffffffffffffffffffffffffffffffffff1673ffffffffffffffffffffffffffffffffffffffff163373ffffffffffffffffffffffffffffffffffffffff1614905090565b3373ffffffffffffffffffffffffffffffffffffffff16600660009054906101000a900473ffffffffffffffffffffffffffffffffffffffff1673ffffffffffffffffffffffffffffffffffffffff1614610ec9576040517f08c379a0000000000000000000000000000000000000000000000000000000008152600401610ec0906121f3565b60405180910390fd5b8460016002811115610f04577f4e487b7100000000000000000000000000000000000000000000000000000000600052602160045260246000fd5b600482604051610f149190611efc565b908152602001604051809103902060050160009054906101000a900460ff166002811115610f6b577f4e487b7100000000000000000000000000000000000000000000000000000000600052602160045260246000fd5b1415610fac576040517f08c379a0000000000000000000000000000000000000000000000000000000008152600401610fa3906121b3565b60405180910390fd5b85600280811115610fe6577f4e487b7100000000000000000000000000000000000000000000000000000000600052602160045260246000fd5b600482604051610ff69190611efc565b908152602001604051809103902060050160009054906101000a900460ff16600281111561104d577f4e487b7100000000000000000000000000000000000000000000000000000000600052602160045260246000fd5b141561108e576040517f08c379a0000000000000000000000000000000000000000000000000000000008152600401611085906121d3565b60405180910390fd5b8660048860405161109f9190611efc565b908152602001604051809103902060000190805190602001906110c3929190611a64565b50856004886040516110d59190611efc565b908152602001604051809103902060010190805190602001906110f9929190611a64565b508460048860405161110b9190611efc565b9081526020016040518091039020600201908051906020019061112f929190611a64565b50836004886040516111419190611efc565b90815260200160405180910390206003019080519060200190611165929190611a64565b50826004886040516111779190611efc565b9081526020016040518091039020600401908051906020019061119b929190611a64565b507fca01b822d94f4b3dfa45d841ecfe8823af53b351e054ec8aace6ce43ad80b7ef87878787876040516111d3959493929190612042565b60405180910390a150505050505050565b3373ffffffffffffffffffffffffffffffffffffffff16600660009054906101000a900473ffffffffffffffffffffffffffffffffffffffff1673ffffffffffffffffffffffffffffffffffffffff1614611274576040517f08c379a000000000000000000000000000000000000000000000000000000000815260040161126b906121f3565b60405180910390fd5b82600160028111156112af577f4e487b7100000000000000000000000000000000000000000000000000000000600052602160045260246000fd5b6005826040516112bf9190611efc565b908152602001604051809103902060030160009054906101000a900460ff166002811115611316577f4e487b7100000000000000000000000000000000000000000000000000000000600052602160045260246000fd5b1415611357576040517f08c379a000000000000000000000000000000000000000000000000000000000815260040161134e906121b3565b60405180910390fd5b83600280811115611391577f4e487b7100000000000000000000000000000000000000000000000000000000600052602160045260246000fd5b6005826040516113a19190611efc565b908152602001604051809103902060030160009054906101000a900460ff1660028111156113f8577f4e487b7100000000000000000000000000000000000000000000000000000000600052602160045260246000fd5b1415611439576040517f08c379a0000000000000000000000000000000000000000000000000000000008152600401611430906121d3565b60405180910390fd5b8460058660405161144a9190611efc565b9081526020016040518091039020600001908051906020019061146e929190611a64565b50836005866040516114809190611efc565b908152602001604051809103902060010190805190602001906114a4929190611a64565b50826005866040516114b69190611efc565b908152602001604051809103902060020190805190602001906114da929190611a64565b507fa53143509aa93494d734a0869ba24f59543e43a9685b510eff2b10cd7ea085d885858560405161150e93929190612154565b60405180910390a15050505050565b3373ffffffffffffffffffffffffffffffffffffffff16600660009054906101000a900473ffffffffffffffffffffffffffffffffffffffff1673ffffffffffffffffffffffffffffffffffffffff16146115ad576040517f08c379a00000000000000000000000000000000000000000000000000000000081526004016115a4906121f3565b60405180910390fd5b84600160028111156115e8577f4e487b7100000000000000000000000000000000000000000000000000000000600052602160045260246000fd5b6004826040516115f89190611efc565b908152602001604051809103902060050160009054906101000a900460ff16600281111561164f577f4e487b7100000000000000000000000000000000000000000000000000000000600052602160045260246000fd5b1415611690576040517f08c379a0000000000000000000000000000000000000000000000000000000008152600401611687906121b3565b60405180910390fd5b856002808111156116ca577f4e487b7100000000000000000000000000000000000000000000000000000000600052602160045260246000fd5b6004826040516116da9190611efc565b908152602001604051809103902060050160009054906101000a900460ff166002811115611731577f4e487b7100000000000000000000000000000000000000000000000000000000600052602160045260246000fd5b1415611772576040517f08c379a0000000000000000000000000000000000000000000000000000000008152600401611769906121d3565b60405180910390fd5b866004886040516117839190611efc565b908152602001604051809103902060000190805190602001906117a7929190611a64565b50856004886040516117b99190611efc565b908152602001604051809103902060010190805190602001906117dd929190611a64565b50846004886040516117ef9190611efc565b90815260200160405180910390206002019080519060200190611813929190611a64565b50836004886040516118259190611efc565b90815260200160405180910390206003019080519060200190611849929190611a64565b508260048860405161185b9190611efc565b9081526020016040518091039020600401908051906020019061187f929190611a64565b507fca01b822d94f4b3dfa45d841ecfe8823af53b351e054ec8aace6ce43ad80b7ef87878787876040516118b79594939291906120cb565b60405180910390a150505050505050565b3373ffffffffffffffffffffffffffffffffffffffff16600660009054906101000a900473ffffffffffffffffffffffffffffffffffffffff1673ffffffffffffffffffffffffffffffffffffffff1614611958576040517f08c379a000000000000000000000000000000000000000000000000000000000815260040161194f906121f3565b60405180910390fd5b816001908051906020019061196e929190611a64565b508060029080519060200190611985929190611a64565b505050565b3373ffffffffffffffffffffffffffffffffffffffff16600660009054906101000a900473ffffffffffffffffffffffffffffffffffffffff1673ffffffffffffffffffffffffffffffffffffffff1614611a1a576040517f08c379a0000000000000000000000000000000000000000000000000000000008152600401611a11906121f3565b60405180910390fd5b8260019080519060200190611a30929190611a64565b508160029080519060200190611a47929190611a64565b508060009080519060200190611a5e929190611a64565b50505050565b828054611a7090612310565b90600052602060002090601f016020900481019282611a925760008555611ad9565b82601f10611aab57805160ff1916838001178555611ad9565b82800160010185558215611ad9579182015b82811115611ad8578251825591602001919060010190611abd565b5b509050611ae69190611aea565b5090565b5b80821115611b03576000816000905550600101611aeb565b5090565b6000611b1a611b1584612238565b612213565b905082815260208101848484011115611b3257600080fd5b611b3d8482856122ce565b509392505050565b600082601f830112611b5657600080fd5b8135611b66848260208601611b07565b91505092915050565b600060208284031215611b8157600080fd5b600082013567ffffffffffffffff811115611b9b57600080fd5b611ba784828501611b45565b91505092915050565b60008060408385031215611bc357600080fd5b600083013567ffffffffffffffff811115611bdd57600080fd5b611be985828601611b45565b925050602083013567ffffffffffffffff811115611c0657600080fd5b611c1285828601611b45565b9150509250929050565b600080600060608486031215611c3157600080fd5b600084013567ffffffffffffffff811115611c4b57600080fd5b611c5786828701611b45565b935050602084013567ffffffffffffffff811115611c7457600080fd5b611c8086828701611b45565b925050604084013567ffffffffffffffff811115611c9d57600080fd5b611ca986828701611b45565b9150509250925092565b600080600080600060a08688031215611ccb57600080fd5b600086013567ffffffffffffffff811115611ce557600080fd5b611cf188828901611b45565b955050602086013567ffffffffffffffff811115611d0e57600080fd5b611d1a88828901611b45565b945050604086013567ffffffffffffffff811115611d3757600080fd5b611d4388828901611b45565b935050606086013567ffffffffffffffff811115611d6057600080fd5b611d6c88828901611b45565b925050608086013567ffffffffffffffff811115611d8957600080fd5b611d9588828901611b45565b9150509295509295909350565b611dab81612290565b82525050565b611dba816122a2565b82525050565b6000611dcb82612269565b611dd58185612274565b9350611de58185602086016122dd565b611dee816123d1565b840191505092915050565b6000611e0482612269565b611e0e8185612285565b9350611e1e8185602086016122dd565b80840191505092915050565b6000611e37602983612274565b9150611e42826123e2565b604082019050919050565b6000611e5a600f83612274565b9150611e6582612431565b602082019050919050565b6000611e7d600a83612274565b9150611e888261245a565b602082019050919050565b6000611ea0602683612274565b9150611eab82612483565b604082019050919050565b6000611ec3600c83612274565b9150611ece826124d2565b602082019050919050565b6000611ee6601983612274565b9150611ef1826124fb565b602082019050919050565b6000611f088284611df9565b915081905092915050565b6000602082019050611f286000830184611da2565b92915050565b6000602082019050611f436000830184611db1565b92915050565b60006040820190508181036000830152611f638185611dc0565b90508181036020830152611f778184611dc0565b90509392505050565b60006060820190508181036000830152611f9a8186611dc0565b90508181036020830152611fae8185611dc0565b90508181036040830152611fc28184611dc0565b9050949350505050565b600060a0820190508181036000830152611fe68188611dc0565b90508181036020830152611ffa8187611dc0565b9050818103604083015261200e8186611dc0565b905081810360608301526120228185611dc0565b905081810360808301526120368184611dc0565b90509695505050505050565b600060c082019050818103600083015261205c8188611dc0565b905081810360208301526120708187611dc0565b905081810360408301526120848186611dc0565b905081810360608301526120988185611dc0565b905081810360808301526120ac8184611dc0565b905081810360a08301526120bf81611e4d565b90509695505050505050565b600060c08201905081810360008301526120e58188611dc0565b905081810360208301526120f98187611dc0565b9050818103604083015261210d8186611dc0565b905081810360608301526121218185611dc0565b905081810360808301526121358184611dc0565b905081810360a083015261214881611e70565b90509695505050505050565b6000608082019050818103600083015261216e8186611dc0565b905081810360208301526121828185611dc0565b905081810360408301526121968184611dc0565b905081810360608301526121a981611eb6565b9050949350505050565b600060208201905081810360008301526121cc81611e2a565b9050919050565b600060208201905081810360008301526121ec81611e93565b9050919050565b6000602082019050818103600083015261220c81611ed9565b9050919050565b600061221d61222e565b90506122298282612342565b919050565b6000604051905090565b600067ffffffffffffffff821115612253576122526123a2565b5b61225c826123d1565b9050602081019050919050565b600081519050919050565b600082825260208201905092915050565b600081905092915050565b600061229b826122ae565b9050919050565b60008115159050919050565b600073ffffffffffffffffffffffffffffffffffffffff82169050919050565b82818337600083830152505050565b60005b838110156122fb5780820151818401526020810190506122e0565b8381111561230a576000848401525b50505050565b6000600282049050600182168061232857607f821691505b6020821081141561233c5761233b612373565b5b50919050565b61234b826123d1565b810181811067ffffffffffffffff8211171561236a576123696123a2565b5b80604052505050565b7f4e487b7100000000000000000000000000000000000000000000000000000000600052602260045260246000fd5b7f4e487b7100000000000000000000000000000000000000000000000000000000600052604160045260246000fd5b6000601f19601f8301169050919050565b7f536f6d657468696e672069732057726f6e672066726f6d204465706f74496e6360008201527f6861726765203a28200000000000000000000000000000000000000000000000602082015250565b7f4465706f7420496e2d6368617267650000000000000000000000000000000000600082015250565b7f506861726d616369737400000000000000000000000000000000000000000000600082015250565b7f536f6d657468696e672069732057726f6e672066726f6d20506861726d61636960008201527f7374203a28200000000000000000000000000000000000000000000000000000602082015250565b7f4d616e7566616374757265720000000000000000000000000000000000000000600082015250565b7f4d6573736167652066726f6d204d616e7566616374757265720000000000000060008201525056fea26469706673582212200800b757c8187f5559b88cb6a2bdbd362382281c90d3f4182ac6ca8e36bfe4e564736f6c63430008030033",
					"opcodes": "PUSH1 0x80 PUSH1 0x40 MSTORE CALLVALUE DUP1 ISZERO PUSH2 0x10 JUMPI PUSH1 0x0 DUP1 REVERT JUMPDEST POP CALLER PUSH1 0x6 PUSH1 0x0 PUSH2 0x100 EXP DUP2 SLOAD DUP2 PUSH20 0xFFFFFFFFFFFFFFFFFFFFFFFFFFFFFFFFFFFFFFFF MUL NOT AND SWAP1 DUP4 PUSH20 0xFFFFFFFFFFFFFFFFFFFFFFFFFFFFFFFFFFFFFFFF AND MUL OR SWAP1 SSTORE POP PUSH2 0x255A DUP1 PUSH2 0x61 PUSH1 0x0 CODECOPY PUSH1 0x0 RETURN INVALID PUSH1 0x80 PUSH1 0x40 MSTORE CALLVALUE DUP1 ISZERO PUSH2 0x10 JUMPI PUSH1 0x0 DUP1 REVERT JUMPDEST POP PUSH1 0x4 CALLDATASIZE LT PUSH2 0xF5 JUMPI PUSH1 0x0 CALLDATALOAD PUSH1 0xE0 SHR DUP1 PUSH4 0x622A0729 GT PUSH2 0x97 JUMPI DUP1 PUSH4 0xB21847A0 GT PUSH2 0x66 JUMPI DUP1 PUSH4 0xB21847A0 EQ PUSH2 0x26E JUMPI DUP1 PUSH4 0xCC728F1F EQ PUSH2 0x28A JUMPI DUP1 PUSH4 0xF108067E EQ PUSH2 0x2A6 JUMPI DUP1 PUSH4 0xF2B0597C EQ PUSH2 0x2C2 JUMPI PUSH2 0xF5 JUMP JUMPDEST DUP1 PUSH4 0x622A0729 EQ PUSH2 0x1E4 JUMPI DUP1 PUSH4 0x7150D8AE EQ PUSH2 0x216 JUMPI DUP1 PUSH4 0x7C74D4F3 EQ PUSH2 0x234 JUMPI DUP1 PUSH4 0x9755963E EQ PUSH2 0x252 JUMPI PUSH2 0xF5 JUMP JUMPDEST DUP1 PUSH4 0x13E62883 GT PUSH2 0xD3 JUMPI DUP1 PUSH4 0x13E62883 EQ PUSH2 0x157 JUMPI DUP1 PUSH4 0x23D77734 EQ PUSH2 0x175 JUMPI DUP1 PUSH4 0x57C2EB05 EQ PUSH2 0x1A9 JUMPI DUP1 PUSH4 0x5DEF9740 EQ PUSH2 0x1C5 JUMPI PUSH2 0xF5 JUMP JUMPDEST DUP1 PUSH4 0x1705ED5 EQ PUSH2 0xFA JUMPI DUP1 PUSH4 0x1EFB6C8 EQ PUSH2 0x119 JUMPI DUP1 PUSH4 0x8551A53 EQ PUSH2 0x139 JUMPI JUMPDEST PUSH1 0x0 DUP1 REVERT JUMPDEST PUSH2 0x102 PUSH2 0x2DE JUMP JUMPDEST PUSH1 0x40 MLOAD PUSH2 0x110 SWAP3 SWAP2 SWAP1 PUSH2 0x1F49 JUMP JUMPDEST PUSH1 0x40 MLOAD DUP1 SWAP2 SUB SWAP1 RETURN JUMPDEST PUSH2 0x121 PUSH2 0x405 JUMP JUMPDEST PUSH1 0x40 MLOAD PUSH2 0x130 SWAP4 SWAP3 SWAP2 SWAP1 PUSH2 0x1F80 JUMP JUMPDEST PUSH1 0x40 MLOAD DUP1 SWAP2 SUB SWAP1 RETURN JUMPDEST PUSH2 0x141 PUSH2 0x5BF JUMP JUMPDEST PUSH1 0x40 MLOAD PUSH2 0x14E SWAP2 SWAP1 PUSH2 0x1F13 JUMP JUMPDEST PUSH1 0x40 MLOAD DUP1 SWAP2 SUB SWAP1 RETURN JUMPDEST PUSH2 0x15F PUSH2 0x5E5 JUMP JUMPDEST PUSH1 0x40 MLOAD PUSH2 0x16C SWAP2 SWAP1 PUSH2 0x1F2E JUMP JUMPDEST PUSH1 0x40 MLOAD DUP1 SWAP2 SUB SWAP1 RETURN JUMPDEST PUSH2 0x18F PUSH1 0x4 DUP1 CALLDATASIZE SUB DUP2 ADD SWAP1 PUSH2 0x18A SWAP2 SWAP1 PUSH2 0x1B6F JUMP JUMPDEST PUSH2 0x63D JUMP JUMPDEST PUSH1 0x40 MLOAD PUSH2 0x1A0 SWAP6 SWAP5 SWAP4 SWAP3 SWAP2 SWAP1 PUSH2 0x1FCC JUMP JUMPDEST PUSH1 0x40 MLOAD DUP1 SWAP2 SUB SWAP1 RETURN JUMPDEST PUSH2 0x1C3 PUSH1 0x4 DUP1 CALLDATASIZE SUB DUP2 ADD SWAP1 PUSH2 0x1BE SWAP2 SWAP1 PUSH2 0x1BB0 JUMP JUMPDEST PUSH2 0x9B9 JUMP JUMPDEST STOP JUMPDEST PUSH2 0x1CD PUSH2 0xA7B JUMP JUMPDEST PUSH1 0x40 MLOAD PUSH2 0x1DB SWAP3 SWAP2 SWAP1 PUSH2 0x1F49 JUMP JUMPDEST PUSH1 0x40 MLOAD DUP1 SWAP2 SUB SWAP1 RETURN JUMPDEST PUSH2 0x1FE PUSH1 0x4 DUP1 CALLDATASIZE SUB DUP2 ADD SWAP1 PUSH2 0x1F9 SWAP2 SWAP1 PUSH2 0x1B6F JUMP JUMPDEST PUSH2 0xBA2 JUMP JUMPDEST PUSH1 0x40 MLOAD PUSH2 0x20D SWAP4 SWAP3 SWAP2 SWAP1 PUSH2 0x1F80 JUMP JUMPDEST PUSH1 0x40 MLOAD DUP1 SWAP2 SUB SWAP1 RETURN JUMPDEST PUSH2 0x21E PUSH2 0xDBB JUMP JUMPDEST PUSH1 0x40 MLOAD PUSH2 0x22B SWAP2 SWAP1 PUSH2 0x1F13 JUMP JUMPDEST PUSH1 0x40 MLOAD DUP1 SWAP2 SUB SWAP1 RETURN JUMPDEST PUSH2 0x23C PUSH2 0xDE1 JUMP JUMPDEST PUSH1 0x40 MLOAD PUSH2 0x249 SWAP2 SWAP1 PUSH2 0x1F2E JUMP JUMPDEST PUSH1 0x40 MLOAD DUP1 SWAP2 SUB SWAP1 RETURN JUMPDEST PUSH2 0x26C PUSH1 0x4 DUP1 CALLDATASIZE SUB DUP2 ADD SWAP1 PUSH2 0x267 SWAP2 SWAP1 PUSH2 0x1CB3 JUMP JUMPDEST PUSH2 0xE39 JUMP JUMPDEST STOP JUMPDEST PUSH2 0x288 PUSH1 0x4 DUP1 CALLDATASIZE SUB DUP2 ADD SWAP1 PUSH2 0x283 SWAP2 SWAP1 PUSH2 0x1C1C JUMP JUMPDEST PUSH2 0x11E4 JUMP JUMPDEST STOP JUMPDEST PUSH2 0x2A4 PUSH1 0x4 DUP1 CALLDATASIZE SUB DUP2 ADD SWAP1 PUSH2 0x29F SWAP2 SWAP1 PUSH2 0x1CB3 JUMP JUMPDEST PUSH2 0x151D JUMP JUMPDEST STOP JUMPDEST PUSH2 0x2C0 PUSH1 0x4 DUP1 CALLDATASIZE SUB DUP2 ADD SWAP1 PUSH2 0x2BB SWAP2 SWAP1 PUSH2 0x1BB0 JUMP JUMPDEST PUSH2 0x18C8 JUMP JUMPDEST STOP JUMPDEST PUSH2 0x2DC PUSH1 0x4 DUP1 CALLDATASIZE SUB DUP2 ADD SWAP1 PUSH2 0x2D7 SWAP2 SWAP1 PUSH2 0x1C1C JUMP JUMPDEST PUSH2 0x198A JUMP JUMPDEST STOP JUMPDEST PUSH1 0x60 DUP1 PUSH1 0x1 PUSH1 0x3 DUP2 DUP1 SLOAD PUSH2 0x2F1 SWAP1 PUSH2 0x2310 JUMP JUMPDEST DUP1 PUSH1 0x1F ADD PUSH1 0x20 DUP1 SWAP2 DIV MUL PUSH1 0x20 ADD PUSH1 0x40 MLOAD SWAP1 DUP2 ADD PUSH1 0x40 MSTORE DUP1 SWAP3 SWAP2 SWAP1 DUP2 DUP2 MSTORE PUSH1 0x20 ADD DUP3 DUP1 SLOAD PUSH2 0x31D SWAP1 PUSH2 0x2310 JUMP JUMPDEST DUP1 ISZERO PUSH2 0x36A JUMPI DUP1 PUSH1 0x1F LT PUSH2 0x33F JUMPI PUSH2 0x100 DUP1 DUP4 SLOAD DIV MUL DUP4 MSTORE SWAP2 PUSH1 0x20 ADD SWAP2 PUSH2 0x36A JUMP JUMPDEST DUP3 ADD SWAP2 SWAP1 PUSH1 0x0 MSTORE PUSH1 0x20 PUSH1 0x0 KECCAK256 SWAP1 JUMPDEST DUP2 SLOAD DUP2 MSTORE SWAP1 PUSH1 0x1 ADD SWAP1 PUSH1 0x20 ADD DUP1 DUP4 GT PUSH2 0x34D JUMPI DUP3 SWAP1 SUB PUSH1 0x1F AND DUP3 ADD SWAP2 JUMPDEST POP POP POP POP POP SWAP2 POP DUP1 DUP1 SLOAD PUSH2 0x37D SWAP1 PUSH2 0x2310 JUMP JUMPDEST DUP1 PUSH1 0x1F ADD PUSH1 0x20 DUP1 SWAP2 DIV MUL PUSH1 0x20 ADD PUSH1 0x40 MLOAD SWAP1 DUP2 ADD PUSH1 0x40 MSTORE DUP1 SWAP3 SWAP2 SWAP1 DUP2 DUP2 MSTORE PUSH1 0x20 ADD DUP3 DUP1 SLOAD PUSH2 0x3A9 SWAP1 PUSH2 0x2310 JUMP JUMPDEST DUP1 ISZERO PUSH2 0x3F6 JUMPI DUP1 PUSH1 0x1F LT PUSH2 0x3CB JUMPI PUSH2 0x100 DUP1 DUP4 SLOAD DIV MUL DUP4 MSTORE SWAP2 PUSH1 0x20 ADD SWAP2 PUSH2 0x3F6 JUMP JUMPDEST DUP3 ADD SWAP2 SWAP1 PUSH1 0x0 MSTORE PUSH1 0x20 PUSH1 0x0 KECCAK256 SWAP1 JUMPDEST DUP2 SLOAD DUP2 MSTORE SWAP1 PUSH1 0x1 ADD SWAP1 PUSH1 0x20 ADD DUP1 DUP4 GT PUSH2 0x3D9 JUMPI DUP3 SWAP1 SUB PUSH1 0x1F AND DUP3 ADD SWAP2 JUMPDEST POP POP POP POP POP SWAP1 POP SWAP2 POP SWAP2 POP SWAP1 SWAP2 JUMP JUMPDEST PUSH1 0x60 DUP1 PUSH1 0x60 PUSH1 0x1 PUSH1 0x2 PUSH1 0x0 DUP3 DUP1 SLOAD PUSH2 0x41C SWAP1 PUSH2 0x2310 JUMP JUMPDEST DUP1 PUSH1 0x1F ADD PUSH1 0x20 DUP1 SWAP2 DIV MUL PUSH1 0x20 ADD PUSH1 0x40 MLOAD SWAP1 DUP2 ADD PUSH1 0x40 MSTORE DUP1 SWAP3 SWAP2 SWAP1 DUP2 DUP2 MSTORE PUSH1 0x20 ADD DUP3 DUP1 SLOAD PUSH2 0x448 SWAP1 PUSH2 0x2310 JUMP JUMPDEST DUP1 ISZERO PUSH2 0x495 JUMPI DUP1 PUSH1 0x1F LT PUSH2 0x46A JUMPI PUSH2 0x100 DUP1 DUP4 SLOAD DIV MUL DUP4 MSTORE SWAP2 PUSH1 0x20 ADD SWAP2 PUSH2 0x495 JUMP JUMPDEST DUP3 ADD SWAP2 SWAP1 PUSH1 0x0 MSTORE PUSH1 0x20 PUSH1 0x0 KECCAK256 SWAP1 JUMPDEST DUP2 SLOAD DUP2 MSTORE SWAP1 PUSH1 0x1 ADD SWAP1 PUSH1 0x20 ADD DUP1 DUP4 GT PUSH2 0x478 JUMPI DUP3 SWAP1 SUB PUSH1 0x1F AND DUP3 ADD SWAP2 JUMPDEST POP POP POP POP POP SWAP3 POP DUP2 DUP1 SLOAD PUSH2 0x4A8 SWAP1 PUSH2 0x2310 JUMP JUMPDEST DUP1 PUSH1 0x1F ADD PUSH1 0x20 DUP1 SWAP2 DIV MUL PUSH1 0x20 ADD PUSH1 0x40 MLOAD SWAP1 DUP2 ADD PUSH1 0x40 MSTORE DUP1 SWAP3 SWAP2 SWAP1 DUP2 DUP2 MSTORE PUSH1 0x20 ADD DUP3 DUP1 SLOAD PUSH2 0x4D4 SWAP1 PUSH2 0x2310 JUMP JUMPDEST DUP1 ISZERO PUSH2 0x521 JUMPI DUP1 PUSH1 0x1F LT PUSH2 0x4F6 JUMPI PUSH2 0x100 DUP1 DUP4 SLOAD DIV MUL DUP4 MSTORE SWAP2 PUSH1 0x20 ADD SWAP2 PUSH2 0x521 JUMP JUMPDEST DUP3 ADD SWAP2 SWAP1 PUSH1 0x0 MSTORE PUSH1 0x20 PUSH1 0x0 KECCAK256 SWAP1 JUMPDEST DUP2 SLOAD DUP2 MSTORE SWAP1 PUSH1 0x1 ADD SWAP1 PUSH1 0x20 ADD DUP1 DUP4 GT PUSH2 0x504 JUMPI DUP3 SWAP1 SUB PUSH1 0x1F AND DUP3 ADD SWAP2 JUMPDEST POP POP POP POP POP SWAP2 POP DUP1 DUP1 SLOAD PUSH2 0x534 SWAP1 PUSH2 0x2310 JUMP JUMPDEST DUP1 PUSH1 0x1F ADD PUSH1 0x20 DUP1 SWAP2 DIV MUL PUSH1 0x20 ADD PUSH1 0x40 MLOAD SWAP1 DUP2 ADD PUSH1 0x40 MSTORE DUP1 SWAP3 SWAP2 SWAP1 DUP2 DUP2 MSTORE PUSH1 0x20 ADD DUP3 DUP1 SLOAD PUSH2 0x560 SWAP1 PUSH2 0x2310 JUMP JUMPDEST DUP1 ISZERO PUSH2 0x5AD JUMPI DUP1 PUSH1 0x1F LT PUSH2 0x582 JUMPI PUSH2 0x100 DUP1 DUP4 SLOAD DIV MUL DUP4 MSTORE SWAP2 PUSH1 0x20 ADD SWAP2 PUSH2 0x5AD JUMP JUMPDEST DUP3 ADD SWAP2 SWAP1 PUSH1 0x0 MSTORE PUSH1 0x20 PUSH1 0x0 KECCAK256 SWAP1 JUMPDEST DUP2 SLOAD DUP2 MSTORE SWAP1 PUSH1 0x1 ADD SWAP1 PUSH1 0x20 ADD DUP1 DUP4 GT PUSH2 0x590 JUMPI DUP3 SWAP1 SUB PUSH1 0x1F AND DUP3 ADD SWAP2 JUMPDEST POP POP POP POP POP SWAP1 POP SWAP3 POP SWAP3 POP SWAP3 POP SWAP1 SWAP2 SWAP3 JUMP JUMPDEST PUSH1 0x6 PUSH1 0x0 SWAP1 SLOAD SWAP1 PUSH2 0x100 EXP SWAP1 DIV PUSH20 0xFFFFFFFFFFFFFFFFFFFFFFFFFFFFFFFFFFFFFFFF AND DUP2 JUMP JUMPDEST PUSH1 0x0 PUSH1 0x7 PUSH1 0x0 SWAP1 SLOAD SWAP1 PUSH2 0x100 EXP SWAP1 DIV PUSH20 0xFFFFFFFFFFFFFFFFFFFFFFFFFFFFFFFFFFFFFFFF AND PUSH20 0xFFFFFFFFFFFFFFFFFFFFFFFFFFFFFFFFFFFFFFFF AND CALLER PUSH20 0xFFFFFFFFFFFFFFFFFFFFFFFFFFFFFFFFFFFFFFFF AND EQ SWAP1 POP SWAP1 JUMP JUMPDEST PUSH1 0x60 DUP1 PUSH1 0x60 DUP1 PUSH1 0x60 PUSH1 0x4 DUP7 PUSH1 0x40 MLOAD PUSH2 0x655 SWAP2 SWAP1 PUSH2 0x1EFC JUMP JUMPDEST SWAP1 DUP2 MSTORE PUSH1 0x20 ADD PUSH1 0x40 MLOAD DUP1 SWAP2 SUB SWAP1 KECCAK256 PUSH1 0x0 ADD PUSH1 0x4 DUP8 PUSH1 0x40 MLOAD PUSH2 0x676 SWAP2 SWAP1 PUSH2 0x1EFC JUMP JUMPDEST SWAP1 DUP2 MSTORE PUSH1 0x20 ADD PUSH1 0x40 MLOAD DUP1 SWAP2 SUB SWAP1 KECCAK256 PUSH1 0x1 ADD PUSH1 0x4 DUP9 PUSH1 0x40 MLOAD PUSH2 0x697 SWAP2 SWAP1 PUSH2 0x1EFC JUMP JUMPDEST SWAP1 DUP2 MSTORE PUSH1 0x20 ADD PUSH1 0x40 MLOAD DUP1 SWAP2 SUB SWAP1 KECCAK256 PUSH1 0x2 ADD PUSH1 0x4 DUP10 PUSH1 0x40 MLOAD PUSH2 0x6B8 SWAP2 SWAP1 PUSH2 0x1EFC JUMP JUMPDEST SWAP1 DUP2 MSTORE PUSH1 0x20 ADD PUSH1 0x40 MLOAD DUP1 SWAP2 SUB SWAP1 KECCAK256 PUSH1 0x3 ADD PUSH1 0x4 DUP11 PUSH1 0x40 MLOAD PUSH2 0x6D9 SWAP2 SWAP1 PUSH2 0x1EFC JUMP JUMPDEST SWAP1 DUP2 MSTORE PUSH1 0x20 ADD PUSH1 0x40 MLOAD DUP1 SWAP2 SUB SWAP1 KECCAK256 PUSH1 0x4 ADD DUP5 DUP1 SLOAD PUSH2 0x6F6 SWAP1 PUSH2 0x2310 JUMP JUMPDEST DUP1 PUSH1 0x1F ADD PUSH1 0x20 DUP1 SWAP2 DIV MUL PUSH1 0x20 ADD PUSH1 0x40 MLOAD SWAP1 DUP2 ADD PUSH1 0x40 MSTORE DUP1 SWAP3 SWAP2 SWAP1 DUP2 DUP2 MSTORE PUSH1 0x20 ADD DUP3 DUP1 SLOAD PUSH2 0x722 SWAP1 PUSH2 0x2310 JUMP JUMPDEST DUP1 ISZERO PUSH2 0x76F JUMPI DUP1 PUSH1 0x1F LT PUSH2 0x744 JUMPI PUSH2 0x100 DUP1 DUP4 SLOAD DIV MUL DUP4 MSTORE SWAP2 PUSH1 0x20 ADD SWAP2 PUSH2 0x76F JUMP JUMPDEST DUP3 ADD SWAP2 SWAP1 PUSH1 0x0 MSTORE PUSH1 0x20 PUSH1 0x0 KECCAK256 SWAP1 JUMPDEST DUP2 SLOAD DUP2 MSTORE SWAP1 PUSH1 0x1 ADD SWAP1 PUSH1 0x20 ADD DUP1 DUP4 GT PUSH2 0x752 JUMPI DUP3 SWAP1 SUB PUSH1 0x1F AND DUP3 ADD SWAP2 JUMPDEST POP POP POP POP POP SWAP5 POP DUP4 DUP1 SLOAD PUSH2 0x782 SWAP1 PUSH2 0x2310 JUMP JUMPDEST DUP1 PUSH1 0x1F ADD PUSH1 0x20 DUP1 SWAP2 DIV MUL PUSH1 0x20 ADD PUSH1 0x40 MLOAD SWAP1 DUP2 ADD PUSH1 0x40 MSTORE DUP1 SWAP3 SWAP2 SWAP1 DUP2 DUP2 MSTORE PUSH1 0x20 ADD DUP3 DUP1 SLOAD PUSH2 0x7AE SWAP1 PUSH2 0x2310 JUMP JUMPDEST DUP1 ISZERO PUSH2 0x7FB JUMPI DUP1 PUSH1 0x1F LT PUSH2 0x7D0 JUMPI PUSH2 0x100 DUP1 DUP4 SLOAD DIV MUL DUP4 MSTORE SWAP2 PUSH1 0x20 ADD SWAP2 PUSH2 0x7FB JUMP JUMPDEST DUP3 ADD SWAP2 SWAP1 PUSH1 0x0 MSTORE PUSH1 0x20 PUSH1 0x0 KECCAK256 SWAP1 JUMPDEST DUP2 SLOAD DUP2 MSTORE SWAP1 PUSH1 0x1 ADD SWAP1 PUSH1 0x20 ADD DUP1 DUP4 GT PUSH2 0x7DE JUMPI DUP3 SWAP1 SUB PUSH1 0x1F AND DUP3 ADD SWAP2 JUMPDEST POP POP POP POP POP SWAP4 POP DUP3 DUP1 SLOAD PUSH2 0x80E SWAP1 PUSH2 0x2310 JUMP JUMPDEST DUP1 PUSH1 0x1F ADD PUSH1 0x20 DUP1 SWAP2 DIV MUL PUSH1 0x20 ADD PUSH1 0x40 MLOAD SWAP1 DUP2 ADD PUSH1 0x40 MSTORE DUP1 SWAP3 SWAP2 SWAP1 DUP2 DUP2 MSTORE PUSH1 0x20 ADD DUP3 DUP1 SLOAD PUSH2 0x83A SWAP1 PUSH2 0x2310 JUMP JUMPDEST DUP1 ISZERO PUSH2 0x887 JUMPI DUP1 PUSH1 0x1F LT PUSH2 0x85C JUMPI PUSH2 0x100 DUP1 DUP4 SLOAD DIV MUL DUP4 MSTORE SWAP2 PUSH1 0x20 ADD SWAP2 PUSH2 0x887 JUMP JUMPDEST DUP3 ADD SWAP2 SWAP1 PUSH1 0x0 MSTORE PUSH1 0x20 PUSH1 0x0 KECCAK256 SWAP1 JUMPDEST DUP2 SLOAD DUP2 MSTORE SWAP1 PUSH1 0x1 ADD SWAP1 PUSH1 0x20 ADD DUP1 DUP4 GT PUSH2 0x86A JUMPI DUP3 SWAP1 SUB PUSH1 0x1F AND DUP3 ADD SWAP2 JUMPDEST POP POP POP POP POP SWAP3 POP DUP2 DUP1 SLOAD PUSH2 0x89A SWAP1 PUSH2 0x2310 JUMP JUMPDEST DUP1 PUSH1 0x1F ADD PUSH1 0x20 DUP1 SWAP2 DIV MUL PUSH1 0x20 ADD PUSH1 0x40 MLOAD SWAP1 DUP2 ADD PUSH1 0x40 MSTORE DUP1 SWAP3 SWAP2 SWAP1 DUP2 DUP2 MSTORE PUSH1 0x20 ADD DUP3 DUP1 SLOAD PUSH2 0x8C6 SWAP1 PUSH2 0x2310 JUMP JUMPDEST DUP1 ISZERO PUSH2 0x913 JUMPI DUP1 PUSH1 0x1F LT PUSH2 0x8E8 JUMPI PUSH2 0x100 DUP1 DUP4 SLOAD DIV MUL DUP4 MSTORE SWAP2 PUSH1 0x20 ADD SWAP2 PUSH2 0x913 JUMP JUMPDEST DUP3 ADD SWAP2 SWAP1 PUSH1 0x0 MSTORE PUSH1 0x20 PUSH1 0x0 KECCAK256 SWAP1 JUMPDEST DUP2 SLOAD DUP2 MSTORE SWAP1 PUSH1 0x1 ADD SWAP1 PUSH1 0x20 ADD DUP1 DUP4 GT PUSH2 0x8F6 JUMPI DUP3 SWAP1 SUB PUSH1 0x1F AND DUP3 ADD SWAP2 JUMPDEST POP POP POP POP POP SWAP2 POP DUP1 DUP1 SLOAD PUSH2 0x926 SWAP1 PUSH2 0x2310 JUMP JUMPDEST DUP1 PUSH1 0x1F ADD PUSH1 0x20 DUP1 SWAP2 DIV MUL PUSH1 0x20 ADD PUSH1 0x40 MLOAD SWAP1 DUP2 ADD PUSH1 0x40 MSTORE DUP1 SWAP3 SWAP2 SWAP1 DUP2 DUP2 MSTORE PUSH1 0x20 ADD DUP3 DUP1 SLOAD PUSH2 0x952 SWAP1 PUSH2 0x2310 JUMP JUMPDEST DUP1 ISZERO PUSH2 0x99F JUMPI DUP1 PUSH1 0x1F LT PUSH2 0x974 JUMPI PUSH2 0x100 DUP1 DUP4 SLOAD DIV MUL DUP4 MSTORE SWAP2 PUSH1 0x20 ADD SWAP2 PUSH2 0x99F JUMP JUMPDEST DUP3 ADD SWAP2 SWAP1 PUSH1 0x0 MSTORE PUSH1 0x20 PUSH1 0x0 KECCAK256 SWAP1 JUMPDEST DUP2 SLOAD DUP2 MSTORE SWAP1 PUSH1 0x1 ADD SWAP1 PUSH1 0x20 ADD DUP1 DUP4 GT PUSH2 0x982 JUMPI DUP3 SWAP1 SUB PUSH1 0x1F AND DUP3 ADD SWAP2 JUMPDEST POP POP POP POP POP SWAP1 POP SWAP5 POP SWAP5 POP SWAP5 POP SWAP5 POP SWAP5 POP SWAP2 SWAP4 SWAP6 SWAP1 SWAP3 SWAP5 POP JUMP JUMPDEST CALLER PUSH20 0xFFFFFFFFFFFFFFFFFFFFFFFFFFFFFFFFFFFFFFFF AND PUSH1 0x6 PUSH1 0x0 SWAP1 SLOAD SWAP1 PUSH2 0x100 EXP SWAP1 DIV PUSH20 0xFFFFFFFFFFFFFFFFFFFFFFFFFFFFFFFFFFFFFFFF AND PUSH20 0xFFFFFFFFFFFFFFFFFFFFFFFFFFFFFFFFFFFFFFFF AND EQ PUSH2 0xA49 JUMPI PUSH1 0x40 MLOAD PUSH32 0x8C379A000000000000000000000000000000000000000000000000000000000 DUP2 MSTORE PUSH1 0x4 ADD PUSH2 0xA40 SWAP1 PUSH2 0x21F3 JUMP JUMPDEST PUSH1 0x40 MLOAD DUP1 SWAP2 SUB SWAP1 REVERT JUMPDEST DUP2 PUSH1 0x1 SWAP1 DUP1 MLOAD SWAP1 PUSH1 0x20 ADD SWAP1 PUSH2 0xA5F SWAP3 SWAP2 SWAP1 PUSH2 0x1A64 JUMP JUMPDEST POP DUP1 PUSH1 0x3 SWAP1 DUP1 MLOAD SWAP1 PUSH1 0x20 ADD SWAP1 PUSH2 0xA76 SWAP3 SWAP2 SWAP1 PUSH2 0x1A64 JUMP JUMPDEST POP POP POP JUMP JUMPDEST PUSH1 0x60 DUP1 PUSH1 0x1 PUSH1 0x2 DUP2 DUP1 SLOAD PUSH2 0xA8E SWAP1 PUSH2 0x2310 JUMP JUMPDEST DUP1 PUSH1 0x1F ADD PUSH1 0x20 DUP1 SWAP2 DIV MUL PUSH1 0x20 ADD PUSH1 0x40 MLOAD SWAP1 DUP2 ADD PUSH1 0x40 MSTORE DUP1 SWAP3 SWAP2 SWAP1 DUP2 DUP2 MSTORE PUSH1 0x20 ADD DUP3 DUP1 SLOAD PUSH2 0xABA SWAP1 PUSH2 0x2310 JUMP JUMPDEST DUP1 ISZERO PUSH2 0xB07 JUMPI DUP1 PUSH1 0x1F LT PUSH2 0xADC JUMPI PUSH2 0x100 DUP1 DUP4 SLOAD DIV MUL DUP4 MSTORE SWAP2 PUSH1 0x20 ADD SWAP2 PUSH2 0xB07 JUMP JUMPDEST DUP3 ADD SWAP2 SWAP1 PUSH1 0x0 MSTORE PUSH1 0x20 PUSH1 0x0 KECCAK256 SWAP1 JUMPDEST DUP2 SLOAD DUP2 MSTORE SWAP1 PUSH1 0x1 ADD SWAP1 PUSH1 0x20 ADD DUP1 DUP4 GT PUSH2 0xAEA JUMPI DUP3 SWAP1 SUB PUSH1 0x1F AND DUP3 ADD SWAP2 JUMPDEST POP POP POP POP POP SWAP2 POP DUP1 DUP1 SLOAD PUSH2 0xB1A SWAP1 PUSH2 0x2310 JUMP JUMPDEST DUP1 PUSH1 0x1F ADD PUSH1 0x20 DUP1 SWAP2 DIV MUL PUSH1 0x20 ADD PUSH1 0x40 MLOAD SWAP1 DUP2 ADD PUSH1 0x40 MSTORE DUP1 SWAP3 SWAP2 SWAP1 DUP2 DUP2 MSTORE PUSH1 0x20 ADD DUP3 DUP1 SLOAD PUSH2 0xB46 SWAP1 PUSH2 0x2310 JUMP JUMPDEST DUP1 ISZERO PUSH2 0xB93 JUMPI DUP1 PUSH1 0x1F LT PUSH2 0xB68 JUMPI PUSH2 0x100 DUP1 DUP4 SLOAD DIV MUL DUP4 MSTORE SWAP2 PUSH1 0x20 ADD SWAP2 PUSH2 0xB93 JUMP JUMPDEST DUP3 ADD SWAP2 SWAP1 PUSH1 0x0 MSTORE PUSH1 0x20 PUSH1 0x0 KECCAK256 SWAP1 JUMPDEST DUP2 SLOAD DUP2 MSTORE SWAP1 PUSH1 0x1 ADD SWAP1 PUSH1 0x20 ADD DUP1 DUP4 GT PUSH2 0xB76 JUMPI DUP3 SWAP1 SUB PUSH1 0x1F AND DUP3 ADD SWAP2 JUMPDEST POP POP POP POP POP SWAP1 POP SWAP2 POP SWAP2 POP SWAP1 SWAP2 JUMP JUMPDEST PUSH1 0x60 DUP1 PUSH1 0x60 PUSH1 0x5 DUP5 PUSH1 0x40 MLOAD PUSH2 0xBB7 SWAP2 SWAP1 PUSH2 0x1EFC JUMP JUMPDEST SWAP1 DUP2 MSTORE PUSH1 0x20 ADD PUSH1 0x40 MLOAD DUP1 SWAP2 SUB SWAP1 KECCAK256 PUSH1 0x0 ADD PUSH1 0x5 DUP6 PUSH1 0x40 MLOAD PUSH2 0xBD8 SWAP2 SWAP1 PUSH2 0x1EFC JUMP JUMPDEST SWAP1 DUP2 MSTORE PUSH1 0x20 ADD PUSH1 0x40 MLOAD DUP1 SWAP2 SUB SWAP1 KECCAK256 PUSH1 0x1 ADD PUSH1 0x5 DUP7 PUSH1 0x40 MLOAD PUSH2 0xBF9 SWAP2 SWAP1 PUSH2 0x1EFC JUMP JUMPDEST SWAP1 DUP2 MSTORE PUSH1 0x20 ADD PUSH1 0x40 MLOAD DUP1 SWAP2 SUB SWAP1 KECCAK256 PUSH1 0x2 ADD DUP3 DUP1 SLOAD PUSH2 0xC16 SWAP1 PUSH2 0x2310 JUMP JUMPDEST DUP1 PUSH1 0x1F ADD PUSH1 0x20 DUP1 SWAP2 DIV MUL PUSH1 0x20 ADD PUSH1 0x40 MLOAD SWAP1 DUP2 ADD PUSH1 0x40 MSTORE DUP1 SWAP3 SWAP2 SWAP1 DUP2 DUP2 MSTORE PUSH1 0x20 ADD DUP3 DUP1 SLOAD PUSH2 0xC42 SWAP1 PUSH2 0x2310 JUMP JUMPDEST DUP1 ISZERO PUSH2 0xC8F JUMPI DUP1 PUSH1 0x1F LT PUSH2 0xC64 JUMPI PUSH2 0x100 DUP1 DUP4 SLOAD DIV MUL DUP4 MSTORE SWAP2 PUSH1 0x20 ADD SWAP2 PUSH2 0xC8F JUMP JUMPDEST DUP3 ADD SWAP2 SWAP1 PUSH1 0x0 MSTORE PUSH1 0x20 PUSH1 0x0 KECCAK256 SWAP1 JUMPDEST DUP2 SLOAD DUP2 MSTORE SWAP1 PUSH1 0x1 ADD SWAP1 PUSH1 0x20 ADD DUP1 DUP4 GT PUSH2 0xC72 JUMPI DUP3 SWAP1 SUB PUSH1 0x1F AND DUP3 ADD SWAP2 JUMPDEST POP POP POP POP POP SWAP3 POP DUP2 DUP1 SLOAD PUSH2 0xCA2 SWAP1 PUSH2 0x2310 JUMP JUMPDEST DUP1 PUSH1 0x1F ADD PUSH1 0x20 DUP1 SWAP2 DIV MUL PUSH1 0x20 ADD PUSH1 0x40 MLOAD SWAP1 DUP2 ADD PUSH1 0x40 MSTORE DUP1 SWAP3 SWAP2 SWAP1 DUP2 DUP2 MSTORE PUSH1 0x20 ADD DUP3 DUP1 SLOAD PUSH2 0xCCE SWAP1 PUSH2 0x2310 JUMP JUMPDEST DUP1 ISZERO PUSH2 0xD1B JUMPI DUP1 PUSH1 0x1F LT PUSH2 0xCF0 JUMPI PUSH2 0x100 DUP1 DUP4 SLOAD DIV MUL DUP4 MSTORE SWAP2 PUSH1 0x20 ADD SWAP2 PUSH2 0xD1B JUMP JUMPDEST DUP3 ADD SWAP2 SWAP1 PUSH1 0x0 MSTORE PUSH1 0x20 PUSH1 0x0 KECCAK256 SWAP1 JUMPDEST DUP2 SLOAD DUP2 MSTORE SWAP1 PUSH1 0x1 ADD SWAP1 PUSH1 0x20 ADD DUP1 DUP4 GT PUSH2 0xCFE JUMPI DUP3 SWAP1 SUB PUSH1 0x1F AND DUP3 ADD SWAP2 JUMPDEST POP POP POP POP POP SWAP2 POP DUP1 DUP1 SLOAD PUSH2 0xD2E SWAP1 PUSH2 0x2310 JUMP JUMPDEST DUP1 PUSH1 0x1F ADD PUSH1 0x20 DUP1 SWAP2 DIV MUL PUSH1 0x20 ADD PUSH1 0x40 MLOAD SWAP1 DUP2 ADD PUSH1 0x40 MSTORE DUP1 SWAP3 SWAP2 SWAP1 DUP2 DUP2 MSTORE PUSH1 0x20 ADD DUP3 DUP1 SLOAD PUSH2 0xD5A SWAP1 PUSH2 0x2310 JUMP JUMPDEST DUP1 ISZERO PUSH2 0xDA7 JUMPI DUP1 PUSH1 0x1F LT PUSH2 0xD7C JUMPI PUSH2 0x100 DUP1 DUP4 SLOAD DIV MUL DUP4 MSTORE SWAP2 PUSH1 0x20 ADD SWAP2 PUSH2 0xDA7 JUMP JUMPDEST DUP3 ADD SWAP2 SWAP1 PUSH1 0x0 MSTORE PUSH1 0x20 PUSH1 0x0 KECCAK256 SWAP1 JUMPDEST DUP2 SLOAD DUP2 MSTORE SWAP1 PUSH1 0x1 ADD SWAP1 PUSH1 0x20 ADD DUP1 DUP4 GT PUSH2 0xD8A JUMPI DUP3 SWAP1 SUB PUSH1 0x1F AND DUP3 ADD SWAP2 JUMPDEST POP POP POP POP POP SWAP1 POP SWAP3 POP SWAP3 POP SWAP3 POP SWAP2 SWAP4 SWAP1 SWAP3 POP JUMP JUMPDEST PUSH1 0x7 PUSH1 0x0 SWAP1 SLOAD SWAP1 PUSH2 0x100 EXP SWAP1 DIV PUSH20 0xFFFFFFFFFFFFFFFFFFFFFFFFFFFFFFFFFFFFFFFF AND DUP2 JUMP JUMPDEST PUSH1 0x0 PUSH1 0x6 PUSH1 0x0 SWAP1 SLOAD SWAP1 PUSH2 0x100 EXP SWAP1 DIV PUSH20 0xFFFFFFFFFFFFFFFFFFFFFFFFFFFFFFFFFFFFFFFF AND PUSH20 0xFFFFFFFFFFFFFFFFFFFFFFFFFFFFFFFFFFFFFFFF AND CALLER PUSH20 0xFFFFFFFFFFFFFFFFFFFFFFFFFFFFFFFFFFFFFFFF AND EQ SWAP1 POP SWAP1 JUMP JUMPDEST CALLER PUSH20 0xFFFFFFFFFFFFFFFFFFFFFFFFFFFFFFFFFFFFFFFF AND PUSH1 0x6 PUSH1 0x0 SWAP1 SLOAD SWAP1 PUSH2 0x100 EXP SWAP1 DIV PUSH20 0xFFFFFFFFFFFFFFFFFFFFFFFFFFFFFFFFFFFFFFFF AND PUSH20 0xFFFFFFFFFFFFFFFFFFFFFFFFFFFFFFFFFFFFFFFF AND EQ PUSH2 0xEC9 JUMPI PUSH1 0x40 MLOAD PUSH32 0x8C379A000000000000000000000000000000000000000000000000000000000 DUP2 MSTORE PUSH1 0x4 ADD PUSH2 0xEC0 SWAP1 PUSH2 0x21F3 JUMP JUMPDEST PUSH1 0x40 MLOAD DUP1 SWAP2 SUB SWAP1 REVERT JUMPDEST DUP5 PUSH1 0x1 PUSH1 0x2 DUP2 GT ISZERO PUSH2 0xF04 JUMPI PUSH32 0x4E487B7100000000000000000000000000000000000000000000000000000000 PUSH1 0x0 MSTORE PUSH1 0x21 PUSH1 0x4 MSTORE PUSH1 0x24 PUSH1 0x0 REVERT JUMPDEST PUSH1 0x4 DUP3 PUSH1 0x40 MLOAD PUSH2 0xF14 SWAP2 SWAP1 PUSH2 0x1EFC JUMP JUMPDEST SWAP1 DUP2 MSTORE PUSH1 0x20 ADD PUSH1 0x40 MLOAD DUP1 SWAP2 SUB SWAP1 KECCAK256 PUSH1 0x5 ADD PUSH1 0x0 SWAP1 SLOAD SWAP1 PUSH2 0x100 EXP SWAP1 DIV PUSH1 0xFF AND PUSH1 0x2 DUP2 GT ISZERO PUSH2 0xF6B JUMPI PUSH32 0x4E487B7100000000000000000000000000000000000000000000000000000000 PUSH1 0x0 MSTORE PUSH1 0x21 PUSH1 0x4 MSTORE PUSH1 0x24 PUSH1 0x0 REVERT JUMPDEST EQ ISZERO PUSH2 0xFAC JUMPI PUSH1 0x40 MLOAD PUSH32 0x8C379A000000000000000000000000000000000000000000000000000000000 DUP2 MSTORE PUSH1 0x4 ADD PUSH2 0xFA3 SWAP1 PUSH2 0x21B3 JUMP JUMPDEST PUSH1 0x40 MLOAD DUP1 SWAP2 SUB SWAP1 REVERT JUMPDEST DUP6 PUSH1 0x2 DUP1 DUP2 GT ISZERO PUSH2 0xFE6 JUMPI PUSH32 0x4E487B7100000000000000000000000000000000000000000000000000000000 PUSH1 0x0 MSTORE PUSH1 0x21 PUSH1 0x4 MSTORE PUSH1 0x24 PUSH1 0x0 REVERT JUMPDEST PUSH1 0x4 DUP3 PUSH1 0x40 MLOAD PUSH2 0xFF6 SWAP2 SWAP1 PUSH2 0x1EFC JUMP JUMPDEST SWAP1 DUP2 MSTORE PUSH1 0x20 ADD PUSH1 0x40 MLOAD DUP1 SWAP2 SUB SWAP1 KECCAK256 PUSH1 0x5 ADD PUSH1 0x0 SWAP1 SLOAD SWAP1 PUSH2 0x100 EXP SWAP1 DIV PUSH1 0xFF AND PUSH1 0x2 DUP2 GT ISZERO PUSH2 0x104D JUMPI PUSH32 0x4E487B7100000000000000000000000000000000000000000000000000000000 PUSH1 0x0 MSTORE PUSH1 0x21 PUSH1 0x4 MSTORE PUSH1 0x24 PUSH1 0x0 REVERT JUMPDEST EQ ISZERO PUSH2 0x108E JUMPI PUSH1 0x40 MLOAD PUSH32 0x8C379A000000000000000000000000000000000000000000000000000000000 DUP2 MSTORE PUSH1 0x4 ADD PUSH2 0x1085 SWAP1 PUSH2 0x21D3 JUMP JUMPDEST PUSH1 0x40 MLOAD DUP1 SWAP2 SUB SWAP1 REVERT JUMPDEST DUP7 PUSH1 0x4 DUP9 PUSH1 0x40 MLOAD PUSH2 0x109F SWAP2 SWAP1 PUSH2 0x1EFC JUMP JUMPDEST SWAP1 DUP2 MSTORE PUSH1 0x20 ADD PUSH1 0x40 MLOAD DUP1 SWAP2 SUB SWAP1 KECCAK256 PUSH1 0x0 ADD SWAP1 DUP1 MLOAD SWAP1 PUSH1 0x20 ADD SWAP1 PUSH2 0x10C3 SWAP3 SWAP2 SWAP1 PUSH2 0x1A64 JUMP JUMPDEST POP DUP6 PUSH1 0x4 DUP9 PUSH1 0x40 MLOAD PUSH2 0x10D5 SWAP2 SWAP1 PUSH2 0x1EFC JUMP JUMPDEST SWAP1 DUP2 MSTORE PUSH1 0x20 ADD PUSH1 0x40 MLOAD DUP1 SWAP2 SUB SWAP1 KECCAK256 PUSH1 0x1 ADD SWAP1 DUP1 MLOAD SWAP1 PUSH1 0x20 ADD SWAP1 PUSH2 0x10F9 SWAP3 SWAP2 SWAP1 PUSH2 0x1A64 JUMP JUMPDEST POP DUP5 PUSH1 0x4 DUP9 PUSH1 0x40 MLOAD PUSH2 0x110B SWAP2 SWAP1 PUSH2 0x1EFC JUMP JUMPDEST SWAP1 DUP2 MSTORE PUSH1 0x20 ADD PUSH1 0x40 MLOAD DUP1 SWAP2 SUB SWAP1 KECCAK256 PUSH1 0x2 ADD SWAP1 DUP1 MLOAD SWAP1 PUSH1 0x20 ADD SWAP1 PUSH2 0x112F SWAP3 SWAP2 SWAP1 PUSH2 0x1A64 JUMP JUMPDEST POP DUP4 PUSH1 0x4 DUP9 PUSH1 0x40 MLOAD PUSH2 0x1141 SWAP2 SWAP1 PUSH2 0x1EFC JUMP JUMPDEST SWAP1 DUP2 MSTORE PUSH1 0x20 ADD PUSH1 0x40 MLOAD DUP1 SWAP2 SUB SWAP1 KECCAK256 PUSH1 0x3 ADD SWAP1 DUP1 MLOAD SWAP1 PUSH1 0x20 ADD SWAP1 PUSH2 0x1165 SWAP3 SWAP2 SWAP1 PUSH2 0x1A64 JUMP JUMPDEST POP DUP3 PUSH1 0x4 DUP9 PUSH1 0x40 MLOAD PUSH2 0x1177 SWAP2 SWAP1 PUSH2 0x1EFC JUMP JUMPDEST SWAP1 DUP2 MSTORE PUSH1 0x20 ADD PUSH1 0x40 MLOAD DUP1 SWAP2 SUB SWAP1 KECCAK256 PUSH1 0x4 ADD SWAP1 DUP1 MLOAD SWAP1 PUSH1 0x20 ADD SWAP1 PUSH2 0x119B SWAP3 SWAP2 SWAP1 PUSH2 0x1A64 JUMP JUMPDEST POP PUSH32 0xCA01B822D94F4B3DFA45D841ECFE8823AF53B351E054EC8AACE6CE43AD80B7EF DUP8 DUP8 DUP8 DUP8 DUP8 PUSH1 0x40 MLOAD PUSH2 0x11D3 SWAP6 SWAP5 SWAP4 SWAP3 SWAP2 SWAP1 PUSH2 0x2042 JUMP JUMPDEST PUSH1 0x40 MLOAD DUP1 SWAP2 SUB SWAP1 LOG1 POP POP POP POP POP POP POP JUMP JUMPDEST CALLER PUSH20 0xFFFFFFFFFFFFFFFFFFFFFFFFFFFFFFFFFFFFFFFF AND PUSH1 0x6 PUSH1 0x0 SWAP1 SLOAD SWAP1 PUSH2 0x100 EXP SWAP1 DIV PUSH20 0xFFFFFFFFFFFFFFFFFFFFFFFFFFFFFFFFFFFFFFFF AND PUSH20 0xFFFFFFFFFFFFFFFFFFFFFFFFFFFFFFFFFFFFFFFF AND EQ PUSH2 0x1274 JUMPI PUSH1 0x40 MLOAD PUSH32 0x8C379A000000000000000000000000000000000000000000000000000000000 DUP2 MSTORE PUSH1 0x4 ADD PUSH2 0x126B SWAP1 PUSH2 0x21F3 JUMP JUMPDEST PUSH1 0x40 MLOAD DUP1 SWAP2 SUB SWAP1 REVERT JUMPDEST DUP3 PUSH1 0x1 PUSH1 0x2 DUP2 GT ISZERO PUSH2 0x12AF JUMPI PUSH32 0x4E487B7100000000000000000000000000000000000000000000000000000000 PUSH1 0x0 MSTORE PUSH1 0x21 PUSH1 0x4 MSTORE PUSH1 0x24 PUSH1 0x0 REVERT JUMPDEST PUSH1 0x5 DUP3 PUSH1 0x40 MLOAD PUSH2 0x12BF SWAP2 SWAP1 PUSH2 0x1EFC JUMP JUMPDEST SWAP1 DUP2 MSTORE PUSH1 0x20 ADD PUSH1 0x40 MLOAD DUP1 SWAP2 SUB SWAP1 KECCAK256 PUSH1 0x3 ADD PUSH1 0x0 SWAP1 SLOAD SWAP1 PUSH2 0x100 EXP SWAP1 DIV PUSH1 0xFF AND PUSH1 0x2 DUP2 GT ISZERO PUSH2 0x1316 JUMPI PUSH32 0x4E487B7100000000000000000000000000000000000000000000000000000000 PUSH1 0x0 MSTORE PUSH1 0x21 PUSH1 0x4 MSTORE PUSH1 0x24 PUSH1 0x0 REVERT JUMPDEST EQ ISZERO PUSH2 0x1357 JUMPI PUSH1 0x40 MLOAD PUSH32 0x8C379A000000000000000000000000000000000000000000000000000000000 DUP2 MSTORE PUSH1 0x4 ADD PUSH2 0x134E SWAP1 PUSH2 0x21B3 JUMP JUMPDEST PUSH1 0x40 MLOAD DUP1 SWAP2 SUB SWAP1 REVERT JUMPDEST DUP4 PUSH1 0x2 DUP1 DUP2 GT ISZERO PUSH2 0x1391 JUMPI PUSH32 0x4E487B7100000000000000000000000000000000000000000000000000000000 PUSH1 0x0 MSTORE PUSH1 0x21 PUSH1 0x4 MSTORE PUSH1 0x24 PUSH1 0x0 REVERT JUMPDEST PUSH1 0x5 DUP3 PUSH1 0x40 MLOAD PUSH2 0x13A1 SWAP2 SWAP1 PUSH2 0x1EFC JUMP JUMPDEST SWAP1 DUP2 MSTORE PUSH1 0x20 ADD PUSH1 0x40 MLOAD DUP1 SWAP2 SUB SWAP1 KECCAK256 PUSH1 0x3 ADD PUSH1 0x0 SWAP1 SLOAD SWAP1 PUSH2 0x100 EXP SWAP1 DIV PUSH1 0xFF AND PUSH1 0x2 DUP2 GT ISZERO PUSH2 0x13F8 JUMPI PUSH32 0x4E487B7100000000000000000000000000000000000000000000000000000000 PUSH1 0x0 MSTORE PUSH1 0x21 PUSH1 0x4 MSTORE PUSH1 0x24 PUSH1 0x0 REVERT JUMPDEST EQ ISZERO PUSH2 0x1439 JUMPI PUSH1 0x40 MLOAD PUSH32 0x8C379A000000000000000000000000000000000000000000000000000000000 DUP2 MSTORE PUSH1 0x4 ADD PUSH2 0x1430 SWAP1 PUSH2 0x21D3 JUMP JUMPDEST PUSH1 0x40 MLOAD DUP1 SWAP2 SUB SWAP1 REVERT JUMPDEST DUP5 PUSH1 0x5 DUP7 PUSH1 0x40 MLOAD PUSH2 0x144A SWAP2 SWAP1 PUSH2 0x1EFC JUMP JUMPDEST SWAP1 DUP2 MSTORE PUSH1 0x20 ADD PUSH1 0x40 MLOAD DUP1 SWAP2 SUB SWAP1 KECCAK256 PUSH1 0x0 ADD SWAP1 DUP1 MLOAD SWAP1 PUSH1 0x20 ADD SWAP1 PUSH2 0x146E SWAP3 SWAP2 SWAP1 PUSH2 0x1A64 JUMP JUMPDEST POP DUP4 PUSH1 0x5 DUP7 PUSH1 0x40 MLOAD PUSH2 0x1480 SWAP2 SWAP1 PUSH2 0x1EFC JUMP JUMPDEST SWAP1 DUP2 MSTORE PUSH1 0x20 ADD PUSH1 0x40 MLOAD DUP1 SWAP2 SUB SWAP1 KECCAK256 PUSH1 0x1 ADD SWAP1 DUP1 MLOAD SWAP1 PUSH1 0x20 ADD SWAP1 PUSH2 0x14A4 SWAP3 SWAP2 SWAP1 PUSH2 0x1A64 JUMP JUMPDEST POP DUP3 PUSH1 0x5 DUP7 PUSH1 0x40 MLOAD PUSH2 0x14B6 SWAP2 SWAP1 PUSH2 0x1EFC JUMP JUMPDEST SWAP1 DUP2 MSTORE PUSH1 0x20 ADD PUSH1 0x40 MLOAD DUP1 SWAP2 SUB SWAP1 KECCAK256 PUSH1 0x2 ADD SWAP1 DUP1 MLOAD SWAP1 PUSH1 0x20 ADD SWAP1 PUSH2 0x14DA SWAP3 SWAP2 SWAP1 PUSH2 0x1A64 JUMP JUMPDEST POP PUSH32 0xA53143509AA93494D734A0869BA24F59543E43A9685B510EFF2B10CD7EA085D8 DUP6 DUP6 DUP6 PUSH1 0x40 MLOAD PUSH2 0x150E SWAP4 SWAP3 SWAP2 SWAP1 PUSH2 0x2154 JUMP JUMPDEST PUSH1 0x40 MLOAD DUP1 SWAP2 SUB SWAP1 LOG1 POP POP POP POP POP JUMP JUMPDEST CALLER PUSH20 0xFFFFFFFFFFFFFFFFFFFFFFFFFFFFFFFFFFFFFFFF AND PUSH1 0x6 PUSH1 0x0 SWAP1 SLOAD SWAP1 PUSH2 0x100 EXP SWAP1 DIV PUSH20 0xFFFFFFFFFFFFFFFFFFFFFFFFFFFFFFFFFFFFFFFF AND PUSH20 0xFFFFFFFFFFFFFFFFFFFFFFFFFFFFFFFFFFFFFFFF AND EQ PUSH2 0x15AD JUMPI PUSH1 0x40 MLOAD PUSH32 0x8C379A000000000000000000000000000000000000000000000000000000000 DUP2 MSTORE PUSH1 0x4 ADD PUSH2 0x15A4 SWAP1 PUSH2 0x21F3 JUMP JUMPDEST PUSH1 0x40 MLOAD DUP1 SWAP2 SUB SWAP1 REVERT JUMPDEST DUP5 PUSH1 0x1 PUSH1 0x2 DUP2 GT ISZERO PUSH2 0x15E8 JUMPI PUSH32 0x4E487B7100000000000000000000000000000000000000000000000000000000 PUSH1 0x0 MSTORE PUSH1 0x21 PUSH1 0x4 MSTORE PUSH1 0x24 PUSH1 0x0 REVERT JUMPDEST PUSH1 0x4 DUP3 PUSH1 0x40 MLOAD PUSH2 0x15F8 SWAP2 SWAP1 PUSH2 0x1EFC JUMP JUMPDEST SWAP1 DUP2 MSTORE PUSH1 0x20 ADD PUSH1 0x40 MLOAD DUP1 SWAP2 SUB SWAP1 KECCAK256 PUSH1 0x5 ADD PUSH1 0x0 SWAP1 SLOAD SWAP1 PUSH2 0x100 EXP SWAP1 DIV PUSH1 0xFF AND PUSH1 0x2 DUP2 GT ISZERO PUSH2 0x164F JUMPI PUSH32 0x4E487B7100000000000000000000000000000000000000000000000000000000 PUSH1 0x0 MSTORE PUSH1 0x21 PUSH1 0x4 MSTORE PUSH1 0x24 PUSH1 0x0 REVERT JUMPDEST EQ ISZERO PUSH2 0x1690 JUMPI PUSH1 0x40 MLOAD PUSH32 0x8C379A000000000000000000000000000000000000000000000000000000000 DUP2 MSTORE PUSH1 0x4 ADD PUSH2 0x1687 SWAP1 PUSH2 0x21B3 JUMP JUMPDEST PUSH1 0x40 MLOAD DUP1 SWAP2 SUB SWAP1 REVERT JUMPDEST DUP6 PUSH1 0x2 DUP1 DUP2 GT ISZERO PUSH2 0x16CA JUMPI PUSH32 0x4E487B7100000000000000000000000000000000000000000000000000000000 PUSH1 0x0 MSTORE PUSH1 0x21 PUSH1 0x4 MSTORE PUSH1 0x24 PUSH1 0x0 REVERT JUMPDEST PUSH1 0x4 DUP3 PUSH1 0x40 MLOAD PUSH2 0x16DA SWAP2 SWAP1 PUSH2 0x1EFC JUMP JUMPDEST SWAP1 DUP2 MSTORE PUSH1 0x20 ADD PUSH1 0x40 MLOAD DUP1 SWAP2 SUB SWAP1 KECCAK256 PUSH1 0x5 ADD PUSH1 0x0 SWAP1 SLOAD SWAP1 PUSH2 0x100 EXP SWAP1 DIV PUSH1 0xFF AND PUSH1 0x2 DUP2 GT ISZERO PUSH2 0x1731 JUMPI PUSH32 0x4E487B7100000000000000000000000000000000000000000000000000000000 PUSH1 0x0 MSTORE PUSH1 0x21 PUSH1 0x4 MSTORE PUSH1 0x24 PUSH1 0x0 REVERT JUMPDEST EQ ISZERO PUSH2 0x1772 JUMPI PUSH1 0x40 MLOAD PUSH32 0x8C379A000000000000000000000000000000000000000000000000000000000 DUP2 MSTORE PUSH1 0x4 ADD PUSH2 0x1769 SWAP1 PUSH2 0x21D3 JUMP JUMPDEST PUSH1 0x40 MLOAD DUP1 SWAP2 SUB SWAP1 REVERT JUMPDEST DUP7 PUSH1 0x4 DUP9 PUSH1 0x40 MLOAD PUSH2 0x1783 SWAP2 SWAP1 PUSH2 0x1EFC JUMP JUMPDEST SWAP1 DUP2 MSTORE PUSH1 0x20 ADD PUSH1 0x40 MLOAD DUP1 SWAP2 SUB SWAP1 KECCAK256 PUSH1 0x0 ADD SWAP1 DUP1 MLOAD SWAP1 PUSH1 0x20 ADD SWAP1 PUSH2 0x17A7 SWAP3 SWAP2 SWAP1 PUSH2 0x1A64 JUMP JUMPDEST POP DUP6 PUSH1 0x4 DUP9 PUSH1 0x40 MLOAD PUSH2 0x17B9 SWAP2 SWAP1 PUSH2 0x1EFC JUMP JUMPDEST SWAP1 DUP2 MSTORE PUSH1 0x20 ADD PUSH1 0x40 MLOAD DUP1 SWAP2 SUB SWAP1 KECCAK256 PUSH1 0x1 ADD SWAP1 DUP1 MLOAD SWAP1 PUSH1 0x20 ADD SWAP1 PUSH2 0x17DD SWAP3 SWAP2 SWAP1 PUSH2 0x1A64 JUMP JUMPDEST POP DUP5 PUSH1 0x4 DUP9 PUSH1 0x40 MLOAD PUSH2 0x17EF SWAP2 SWAP1 PUSH2 0x1EFC JUMP JUMPDEST SWAP1 DUP2 MSTORE PUSH1 0x20 ADD PUSH1 0x40 MLOAD DUP1 SWAP2 SUB SWAP1 KECCAK256 PUSH1 0x2 ADD SWAP1 DUP1 MLOAD SWAP1 PUSH1 0x20 ADD SWAP1 PUSH2 0x1813 SWAP3 SWAP2 SWAP1 PUSH2 0x1A64 JUMP JUMPDEST POP DUP4 PUSH1 0x4 DUP9 PUSH1 0x40 MLOAD PUSH2 0x1825 SWAP2 SWAP1 PUSH2 0x1EFC JUMP JUMPDEST SWAP1 DUP2 MSTORE PUSH1 0x20 ADD PUSH1 0x40 MLOAD DUP1 SWAP2 SUB SWAP1 KECCAK256 PUSH1 0x3 ADD SWAP1 DUP1 MLOAD SWAP1 PUSH1 0x20 ADD SWAP1 PUSH2 0x1849 SWAP3 SWAP2 SWAP1 PUSH2 0x1A64 JUMP JUMPDEST POP DUP3 PUSH1 0x4 DUP9 PUSH1 0x40 MLOAD PUSH2 0x185B SWAP2 SWAP1 PUSH2 0x1EFC JUMP JUMPDEST SWAP1 DUP2 MSTORE PUSH1 0x20 ADD PUSH1 0x40 MLOAD DUP1 SWAP2 SUB SWAP1 KECCAK256 PUSH1 0x4 ADD SWAP1 DUP1 MLOAD SWAP1 PUSH1 0x20 ADD SWAP1 PUSH2 0x187F SWAP3 SWAP2 SWAP1 PUSH2 0x1A64 JUMP JUMPDEST POP PUSH32 0xCA01B822D94F4B3DFA45D841ECFE8823AF53B351E054EC8AACE6CE43AD80B7EF DUP8 DUP8 DUP8 DUP8 DUP8 PUSH1 0x40 MLOAD PUSH2 0x18B7 SWAP6 SWAP5 SWAP4 SWAP3 SWAP2 SWAP1 PUSH2 0x20CB JUMP JUMPDEST PUSH1 0x40 MLOAD DUP1 SWAP2 SUB SWAP1 LOG1 POP POP POP POP POP POP POP JUMP JUMPDEST CALLER PUSH20 0xFFFFFFFFFFFFFFFFFFFFFFFFFFFFFFFFFFFFFFFF AND PUSH1 0x6 PUSH1 0x0 SWAP1 SLOAD SWAP1 PUSH2 0x100 EXP SWAP1 DIV PUSH20 0xFFFFFFFFFFFFFFFFFFFFFFFFFFFFFFFFFFFFFFFF AND PUSH20 0xFFFFFFFFFFFFFFFFFFFFFFFFFFFFFFFFFFFFFFFF AND EQ PUSH2 0x1958 JUMPI PUSH1 0x40 MLOAD PUSH32 0x8C379A000000000000000000000000000000000000000000000000000000000 DUP2 MSTORE PUSH1 0x4 ADD PUSH2 0x194F SWAP1 PUSH2 0x21F3 JUMP JUMPDEST PUSH1 0x40 MLOAD DUP1 SWAP2 SUB SWAP1 REVERT JUMPDEST DUP2 PUSH1 0x1 SWAP1 DUP1 MLOAD SWAP1 PUSH1 0x20 ADD SWAP1 PUSH2 0x196E SWAP3 SWAP2 SWAP1 PUSH2 0x1A64 JUMP JUMPDEST POP DUP1 PUSH1 0x2 SWAP1 DUP1 MLOAD SWAP1 PUSH1 0x20 ADD SWAP1 PUSH2 0x1985 SWAP3 SWAP2 SWAP1 PUSH2 0x1A64 JUMP JUMPDEST POP POP POP JUMP JUMPDEST CALLER PUSH20 0xFFFFFFFFFFFFFFFFFFFFFFFFFFFFFFFFFFFFFFFF AND PUSH1 0x6 PUSH1 0x0 SWAP1 SLOAD SWAP1 PUSH2 0x100 EXP SWAP1 DIV PUSH20 0xFFFFFFFFFFFFFFFFFFFFFFFFFFFFFFFFFFFFFFFF AND PUSH20 0xFFFFFFFFFFFFFFFFFFFFFFFFFFFFFFFFFFFFFFFF AND EQ PUSH2 0x1A1A JUMPI PUSH1 0x40 MLOAD PUSH32 0x8C379A000000000000000000000000000000000000000000000000000000000 DUP2 MSTORE PUSH1 0x4 ADD PUSH2 0x1A11 SWAP1 PUSH2 0x21F3 JUMP JUMPDEST PUSH1 0x40 MLOAD DUP1 SWAP2 SUB SWAP1 REVERT JUMPDEST DUP3 PUSH1 0x1 SWAP1 DUP1 MLOAD SWAP1 PUSH1 0x20 ADD SWAP1 PUSH2 0x1A30 SWAP3 SWAP2 SWAP1 PUSH2 0x1A64 JUMP JUMPDEST POP DUP2 PUSH1 0x2 SWAP1 DUP1 MLOAD SWAP1 PUSH1 0x20 ADD SWAP1 PUSH2 0x1A47 SWAP3 SWAP2 SWAP1 PUSH2 0x1A64 JUMP JUMPDEST POP DUP1 PUSH1 0x0 SWAP1 DUP1 MLOAD SWAP1 PUSH1 0x20 ADD SWAP1 PUSH2 0x1A5E SWAP3 SWAP2 SWAP1 PUSH2 0x1A64 JUMP JUMPDEST POP POP POP POP JUMP JUMPDEST DUP3 DUP1 SLOAD PUSH2 0x1A70 SWAP1 PUSH2 0x2310 JUMP JUMPDEST SWAP1 PUSH1 0x0 MSTORE PUSH1 0x20 PUSH1 0x0 KECCAK256 SWAP1 PUSH1 0x1F ADD PUSH1 0x20 SWAP1 DIV DUP2 ADD SWAP3 DUP3 PUSH2 0x1A92 JUMPI PUSH1 0x0 DUP6 SSTORE PUSH2 0x1AD9 JUMP JUMPDEST DUP3 PUSH1 0x1F LT PUSH2 0x1AAB JUMPI DUP1 MLOAD PUSH1 0xFF NOT AND DUP4 DUP1 ADD OR DUP6 SSTORE PUSH2 0x1AD9 JUMP JUMPDEST DUP3 DUP1 ADD PUSH1 0x1 ADD DUP6 SSTORE DUP3 ISZERO PUSH2 0x1AD9 JUMPI SWAP2 DUP3 ADD JUMPDEST DUP3 DUP2 GT ISZERO PUSH2 0x1AD8 JUMPI DUP3 MLOAD DUP3 SSTORE SWAP2 PUSH1 0x20 ADD SWAP2 SWAP1 PUSH1 0x1 ADD SWAP1 PUSH2 0x1ABD JUMP JUMPDEST JUMPDEST POP SWAP1 POP PUSH2 0x1AE6 SWAP2 SWAP1 PUSH2 0x1AEA JUMP JUMPDEST POP SWAP1 JUMP JUMPDEST JUMPDEST DUP1 DUP3 GT ISZERO PUSH2 0x1B03 JUMPI PUSH1 0x0 DUP2 PUSH1 0x0 SWAP1 SSTORE POP PUSH1 0x1 ADD PUSH2 0x1AEB JUMP JUMPDEST POP SWAP1 JUMP JUMPDEST PUSH1 0x0 PUSH2 0x1B1A PUSH2 0x1B15 DUP5 PUSH2 0x2238 JUMP JUMPDEST PUSH2 0x2213 JUMP JUMPDEST SWAP1 POP DUP3 DUP2 MSTORE PUSH1 0x20 DUP2 ADD DUP5 DUP5 DUP5 ADD GT ISZERO PUSH2 0x1B32 JUMPI PUSH1 0x0 DUP1 REVERT JUMPDEST PUSH2 0x1B3D DUP5 DUP3 DUP6 PUSH2 0x22CE JUMP JUMPDEST POP SWAP4 SWAP3 POP POP POP JUMP JUMPDEST PUSH1 0x0 DUP3 PUSH1 0x1F DUP4 ADD SLT PUSH2 0x1B56 JUMPI PUSH1 0x0 DUP1 REVERT JUMPDEST DUP2 CALLDATALOAD PUSH2 0x1B66 DUP5 DUP3 PUSH1 0x20 DUP7 ADD PUSH2 0x1B07 JUMP JUMPDEST SWAP2 POP POP SWAP3 SWAP2 POP POP JUMP JUMPDEST PUSH1 0x0 PUSH1 0x20 DUP3 DUP5 SUB SLT ISZERO PUSH2 0x1B81 JUMPI PUSH1 0x0 DUP1 REVERT JUMPDEST PUSH1 0x0 DUP3 ADD CALLDATALOAD PUSH8 0xFFFFFFFFFFFFFFFF DUP2 GT ISZERO PUSH2 0x1B9B JUMPI PUSH1 0x0 DUP1 REVERT JUMPDEST PUSH2 0x1BA7 DUP5 DUP3 DUP6 ADD PUSH2 0x1B45 JUMP JUMPDEST SWAP2 POP POP SWAP3 SWAP2 POP POP JUMP JUMPDEST PUSH1 0x0 DUP1 PUSH1 0x40 DUP4 DUP6 SUB SLT ISZERO PUSH2 0x1BC3 JUMPI PUSH1 0x0 DUP1 REVERT JUMPDEST PUSH1 0x0 DUP4 ADD CALLDATALOAD PUSH8 0xFFFFFFFFFFFFFFFF DUP2 GT ISZERO PUSH2 0x1BDD JUMPI PUSH1 0x0 DUP1 REVERT JUMPDEST PUSH2 0x1BE9 DUP6 DUP3 DUP7 ADD PUSH2 0x1B45 JUMP JUMPDEST SWAP3 POP POP PUSH1 0x20 DUP4 ADD CALLDATALOAD PUSH8 0xFFFFFFFFFFFFFFFF DUP2 GT ISZERO PUSH2 0x1C06 JUMPI PUSH1 0x0 DUP1 REVERT JUMPDEST PUSH2 0x1C12 DUP6 DUP3 DUP7 ADD PUSH2 0x1B45 JUMP JUMPDEST SWAP2 POP POP SWAP3 POP SWAP3 SWAP1 POP JUMP JUMPDEST PUSH1 0x0 DUP1 PUSH1 0x0 PUSH1 0x60 DUP5 DUP7 SUB SLT ISZERO PUSH2 0x1C31 JUMPI PUSH1 0x0 DUP1 REVERT JUMPDEST PUSH1 0x0 DUP5 ADD CALLDATALOAD PUSH8 0xFFFFFFFFFFFFFFFF DUP2 GT ISZERO PUSH2 0x1C4B JUMPI PUSH1 0x0 DUP1 REVERT JUMPDEST PUSH2 0x1C57 DUP7 DUP3 DUP8 ADD PUSH2 0x1B45 JUMP JUMPDEST SWAP4 POP POP PUSH1 0x20 DUP5 ADD CALLDATALOAD PUSH8 0xFFFFFFFFFFFFFFFF DUP2 GT ISZERO PUSH2 0x1C74 JUMPI PUSH1 0x0 DUP1 REVERT JUMPDEST PUSH2 0x1C80 DUP7 DUP3 DUP8 ADD PUSH2 0x1B45 JUMP JUMPDEST SWAP3 POP POP PUSH1 0x40 DUP5 ADD CALLDATALOAD PUSH8 0xFFFFFFFFFFFFFFFF DUP2 GT ISZERO PUSH2 0x1C9D JUMPI PUSH1 0x0 DUP1 REVERT JUMPDEST PUSH2 0x1CA9 DUP7 DUP3 DUP8 ADD PUSH2 0x1B45 JUMP JUMPDEST SWAP2 POP POP SWAP3 POP SWAP3 POP SWAP3 JUMP JUMPDEST PUSH1 0x0 DUP1 PUSH1 0x0 DUP1 PUSH1 0x0 PUSH1 0xA0 DUP7 DUP9 SUB SLT ISZERO PUSH2 0x1CCB JUMPI PUSH1 0x0 DUP1 REVERT JUMPDEST PUSH1 0x0 DUP7 ADD CALLDATALOAD PUSH8 0xFFFFFFFFFFFFFFFF DUP2 GT ISZERO PUSH2 0x1CE5 JUMPI PUSH1 0x0 DUP1 REVERT JUMPDEST PUSH2 0x1CF1 DUP9 DUP3 DUP10 ADD PUSH2 0x1B45 JUMP JUMPDEST SWAP6 POP POP PUSH1 0x20 DUP7 ADD CALLDATALOAD PUSH8 0xFFFFFFFFFFFFFFFF DUP2 GT ISZERO PUSH2 0x1D0E JUMPI PUSH1 0x0 DUP1 REVERT JUMPDEST PUSH2 0x1D1A DUP9 DUP3 DUP10 ADD PUSH2 0x1B45 JUMP JUMPDEST SWAP5 POP POP PUSH1 0x40 DUP7 ADD CALLDATALOAD PUSH8 0xFFFFFFFFFFFFFFFF DUP2 GT ISZERO PUSH2 0x1D37 JUMPI PUSH1 0x0 DUP1 REVERT JUMPDEST PUSH2 0x1D43 DUP9 DUP3 DUP10 ADD PUSH2 0x1B45 JUMP JUMPDEST SWAP4 POP POP PUSH1 0x60 DUP7 ADD CALLDATALOAD PUSH8 0xFFFFFFFFFFFFFFFF DUP2 GT ISZERO PUSH2 0x1D60 JUMPI PUSH1 0x0 DUP1 REVERT JUMPDEST PUSH2 0x1D6C DUP9 DUP3 DUP10 ADD PUSH2 0x1B45 JUMP JUMPDEST SWAP3 POP POP PUSH1 0x80 DUP7 ADD CALLDATALOAD PUSH8 0xFFFFFFFFFFFFFFFF DUP2 GT ISZERO PUSH2 0x1D89 JUMPI PUSH1 0x0 DUP1 REVERT JUMPDEST PUSH2 0x1D95 DUP9 DUP3 DUP10 ADD PUSH2 0x1B45 JUMP JUMPDEST SWAP2 POP POP SWAP3 SWAP6 POP SWAP3 SWAP6 SWAP1 SWAP4 POP JUMP JUMPDEST PUSH2 0x1DAB DUP2 PUSH2 0x2290 JUMP JUMPDEST DUP3 MSTORE POP POP JUMP JUMPDEST PUSH2 0x1DBA DUP2 PUSH2 0x22A2 JUMP JUMPDEST DUP3 MSTORE POP POP JUMP JUMPDEST PUSH1 0x0 PUSH2 0x1DCB DUP3 PUSH2 0x2269 JUMP JUMPDEST PUSH2 0x1DD5 DUP2 DUP6 PUSH2 0x2274 JUMP JUMPDEST SWAP4 POP PUSH2 0x1DE5 DUP2 DUP6 PUSH1 0x20 DUP7 ADD PUSH2 0x22DD JUMP JUMPDEST PUSH2 0x1DEE DUP2 PUSH2 0x23D1 JUMP JUMPDEST DUP5 ADD SWAP2 POP POP SWAP3 SWAP2 POP POP JUMP JUMPDEST PUSH1 0x0 PUSH2 0x1E04 DUP3 PUSH2 0x2269 JUMP JUMPDEST PUSH2 0x1E0E DUP2 DUP6 PUSH2 0x2285 JUMP JUMPDEST SWAP4 POP PUSH2 0x1E1E DUP2 DUP6 PUSH1 0x20 DUP7 ADD PUSH2 0x22DD JUMP JUMPDEST DUP1 DUP5 ADD SWAP2 POP POP SWAP3 SWAP2 POP POP JUMP JUMPDEST PUSH1 0x0 PUSH2 0x1E37 PUSH1 0x29 DUP4 PUSH2 0x2274 JUMP JUMPDEST SWAP2 POP PUSH2 0x1E42 DUP3 PUSH2 0x23E2 JUMP JUMPDEST PUSH1 0x40 DUP3 ADD SWAP1 POP SWAP2 SWAP1 POP JUMP JUMPDEST PUSH1 0x0 PUSH2 0x1E5A PUSH1 0xF DUP4 PUSH2 0x2274 JUMP JUMPDEST SWAP2 POP PUSH2 0x1E65 DUP3 PUSH2 0x2431 JUMP JUMPDEST PUSH1 0x20 DUP3 ADD SWAP1 POP SWAP2 SWAP1 POP JUMP JUMPDEST PUSH1 0x0 PUSH2 0x1E7D PUSH1 0xA DUP4 PUSH2 0x2274 JUMP JUMPDEST SWAP2 POP PUSH2 0x1E88 DUP3 PUSH2 0x245A JUMP JUMPDEST PUSH1 0x20 DUP3 ADD SWAP1 POP SWAP2 SWAP1 POP JUMP JUMPDEST PUSH1 0x0 PUSH2 0x1EA0 PUSH1 0x26 DUP4 PUSH2 0x2274 JUMP JUMPDEST SWAP2 POP PUSH2 0x1EAB DUP3 PUSH2 0x2483 JUMP JUMPDEST PUSH1 0x40 DUP3 ADD SWAP1 POP SWAP2 SWAP1 POP JUMP JUMPDEST PUSH1 0x0 PUSH2 0x1EC3 PUSH1 0xC DUP4 PUSH2 0x2274 JUMP JUMPDEST SWAP2 POP PUSH2 0x1ECE DUP3 PUSH2 0x24D2 JUMP JUMPDEST PUSH1 0x20 DUP3 ADD SWAP1 POP SWAP2 SWAP1 POP JUMP JUMPDEST PUSH1 0x0 PUSH2 0x1EE6 PUSH1 0x19 DUP4 PUSH2 0x2274 JUMP JUMPDEST SWAP2 POP PUSH2 0x1EF1 DUP3 PUSH2 0x24FB JUMP JUMPDEST PUSH1 0x20 DUP3 ADD SWAP1 POP SWAP2 SWAP1 POP JUMP JUMPDEST PUSH1 0x0 PUSH2 0x1F08 DUP3 DUP5 PUSH2 0x1DF9 JUMP JUMPDEST SWAP2 POP DUP2 SWAP1 POP SWAP3 SWAP2 POP POP JUMP JUMPDEST PUSH1 0x0 PUSH1 0x20 DUP3 ADD SWAP1 POP PUSH2 0x1F28 PUSH1 0x0 DUP4 ADD DUP5 PUSH2 0x1DA2 JUMP JUMPDEST SWAP3 SWAP2 POP POP JUMP JUMPDEST PUSH1 0x0 PUSH1 0x20 DUP3 ADD SWAP1 POP PUSH2 0x1F43 PUSH1 0x0 DUP4 ADD DUP5 PUSH2 0x1DB1 JUMP JUMPDEST SWAP3 SWAP2 POP POP JUMP JUMPDEST PUSH1 0x0 PUSH1 0x40 DUP3 ADD SWAP1 POP DUP2 DUP2 SUB PUSH1 0x0 DUP4 ADD MSTORE PUSH2 0x1F63 DUP2 DUP6 PUSH2 0x1DC0 JUMP JUMPDEST SWAP1 POP DUP2 DUP2 SUB PUSH1 0x20 DUP4 ADD MSTORE PUSH2 0x1F77 DUP2 DUP5 PUSH2 0x1DC0 JUMP JUMPDEST SWAP1 POP SWAP4 SWAP3 POP POP POP JUMP JUMPDEST PUSH1 0x0 PUSH1 0x60 DUP3 ADD SWAP1 POP DUP2 DUP2 SUB PUSH1 0x0 DUP4 ADD MSTORE PUSH2 0x1F9A DUP2 DUP7 PUSH2 0x1DC0 JUMP JUMPDEST SWAP1 POP DUP2 DUP2 SUB PUSH1 0x20 DUP4 ADD MSTORE PUSH2 0x1FAE DUP2 DUP6 PUSH2 0x1DC0 JUMP JUMPDEST SWAP1 POP DUP2 DUP2 SUB PUSH1 0x40 DUP4 ADD MSTORE PUSH2 0x1FC2 DUP2 DUP5 PUSH2 0x1DC0 JUMP JUMPDEST SWAP1 POP SWAP5 SWAP4 POP POP POP POP JUMP JUMPDEST PUSH1 0x0 PUSH1 0xA0 DUP3 ADD SWAP1 POP DUP2 DUP2 SUB PUSH1 0x0 DUP4 ADD MSTORE PUSH2 0x1FE6 DUP2 DUP9 PUSH2 0x1DC0 JUMP JUMPDEST SWAP1 POP DUP2 DUP2 SUB PUSH1 0x20 DUP4 ADD MSTORE PUSH2 0x1FFA DUP2 DUP8 PUSH2 0x1DC0 JUMP JUMPDEST SWAP1 POP DUP2 DUP2 SUB PUSH1 0x40 DUP4 ADD MSTORE PUSH2 0x200E DUP2 DUP7 PUSH2 0x1DC0 JUMP JUMPDEST SWAP1 POP DUP2 DUP2 SUB PUSH1 0x60 DUP4 ADD MSTORE PUSH2 0x2022 DUP2 DUP6 PUSH2 0x1DC0 JUMP JUMPDEST SWAP1 POP DUP2 DUP2 SUB PUSH1 0x80 DUP4 ADD MSTORE PUSH2 0x2036 DUP2 DUP5 PUSH2 0x1DC0 JUMP JUMPDEST SWAP1 POP SWAP7 SWAP6 POP POP POP POP POP POP JUMP JUMPDEST PUSH1 0x0 PUSH1 0xC0 DUP3 ADD SWAP1 POP DUP2 DUP2 SUB PUSH1 0x0 DUP4 ADD MSTORE PUSH2 0x205C DUP2 DUP9 PUSH2 0x1DC0 JUMP JUMPDEST SWAP1 POP DUP2 DUP2 SUB PUSH1 0x20 DUP4 ADD MSTORE PUSH2 0x2070 DUP2 DUP8 PUSH2 0x1DC0 JUMP JUMPDEST SWAP1 POP DUP2 DUP2 SUB PUSH1 0x40 DUP4 ADD MSTORE PUSH2 0x2084 DUP2 DUP7 PUSH2 0x1DC0 JUMP JUMPDEST SWAP1 POP DUP2 DUP2 SUB PUSH1 0x60 DUP4 ADD MSTORE PUSH2 0x2098 DUP2 DUP6 PUSH2 0x1DC0 JUMP JUMPDEST SWAP1 POP DUP2 DUP2 SUB PUSH1 0x80 DUP4 ADD MSTORE PUSH2 0x20AC DUP2 DUP5 PUSH2 0x1DC0 JUMP JUMPDEST SWAP1 POP DUP2 DUP2 SUB PUSH1 0xA0 DUP4 ADD MSTORE PUSH2 0x20BF DUP2 PUSH2 0x1E4D JUMP JUMPDEST SWAP1 POP SWAP7 SWAP6 POP POP POP POP POP POP JUMP JUMPDEST PUSH1 0x0 PUSH1 0xC0 DUP3 ADD SWAP1 POP DUP2 DUP2 SUB PUSH1 0x0 DUP4 ADD MSTORE PUSH2 0x20E5 DUP2 DUP9 PUSH2 0x1DC0 JUMP JUMPDEST SWAP1 POP DUP2 DUP2 SUB PUSH1 0x20 DUP4 ADD MSTORE PUSH2 0x20F9 DUP2 DUP8 PUSH2 0x1DC0 JUMP JUMPDEST SWAP1 POP DUP2 DUP2 SUB PUSH1 0x40 DUP4 ADD MSTORE PUSH2 0x210D DUP2 DUP7 PUSH2 0x1DC0 JUMP JUMPDEST SWAP1 POP DUP2 DUP2 SUB PUSH1 0x60 DUP4 ADD MSTORE PUSH2 0x2121 DUP2 DUP6 PUSH2 0x1DC0 JUMP JUMPDEST SWAP1 POP DUP2 DUP2 SUB PUSH1 0x80 DUP4 ADD MSTORE PUSH2 0x2135 DUP2 DUP5 PUSH2 0x1DC0 JUMP JUMPDEST SWAP1 POP DUP2 DUP2 SUB PUSH1 0xA0 DUP4 ADD MSTORE PUSH2 0x2148 DUP2 PUSH2 0x1E70 JUMP JUMPDEST SWAP1 POP SWAP7 SWAP6 POP POP POP POP POP POP JUMP JUMPDEST PUSH1 0x0 PUSH1 0x80 DUP3 ADD SWAP1 POP DUP2 DUP2 SUB PUSH1 0x0 DUP4 ADD MSTORE PUSH2 0x216E DUP2 DUP7 PUSH2 0x1DC0 JUMP JUMPDEST SWAP1 POP DUP2 DUP2 SUB PUSH1 0x20 DUP4 ADD MSTORE PUSH2 0x2182 DUP2 DUP6 PUSH2 0x1DC0 JUMP JUMPDEST SWAP1 POP DUP2 DUP2 SUB PUSH1 0x40 DUP4 ADD MSTORE PUSH2 0x2196 DUP2 DUP5 PUSH2 0x1DC0 JUMP JUMPDEST SWAP1 POP DUP2 DUP2 SUB PUSH1 0x60 DUP4 ADD MSTORE PUSH2 0x21A9 DUP2 PUSH2 0x1EB6 JUMP JUMPDEST SWAP1 POP SWAP5 SWAP4 POP POP POP POP JUMP JUMPDEST PUSH1 0x0 PUSH1 0x20 DUP3 ADD SWAP1 POP DUP2 DUP2 SUB PUSH1 0x0 DUP4 ADD MSTORE PUSH2 0x21CC DUP2 PUSH2 0x1E2A JUMP JUMPDEST SWAP1 POP SWAP2 SWAP1 POP JUMP JUMPDEST PUSH1 0x0 PUSH1 0x20 DUP3 ADD SWAP1 POP DUP2 DUP2 SUB PUSH1 0x0 DUP4 ADD MSTORE PUSH2 0x21EC DUP2 PUSH2 0x1E93 JUMP JUMPDEST SWAP1 POP SWAP2 SWAP1 POP JUMP JUMPDEST PUSH1 0x0 PUSH1 0x20 DUP3 ADD SWAP1 POP DUP2 DUP2 SUB PUSH1 0x0 DUP4 ADD MSTORE PUSH2 0x220C DUP2 PUSH2 0x1ED9 JUMP JUMPDEST SWAP1 POP SWAP2 SWAP1 POP JUMP JUMPDEST PUSH1 0x0 PUSH2 0x221D PUSH2 0x222E JUMP JUMPDEST SWAP1 POP PUSH2 0x2229 DUP3 DUP3 PUSH2 0x2342 JUMP JUMPDEST SWAP2 SWAP1 POP JUMP JUMPDEST PUSH1 0x0 PUSH1 0x40 MLOAD SWAP1 POP SWAP1 JUMP JUMPDEST PUSH1 0x0 PUSH8 0xFFFFFFFFFFFFFFFF DUP3 GT ISZERO PUSH2 0x2253 JUMPI PUSH2 0x2252 PUSH2 0x23A2 JUMP JUMPDEST JUMPDEST PUSH2 0x225C DUP3 PUSH2 0x23D1 JUMP JUMPDEST SWAP1 POP PUSH1 0x20 DUP2 ADD SWAP1 POP SWAP2 SWAP1 POP JUMP JUMPDEST PUSH1 0x0 DUP2 MLOAD SWAP1 POP SWAP2 SWAP1 POP JUMP JUMPDEST PUSH1 0x0 DUP3 DUP3 MSTORE PUSH1 0x20 DUP3 ADD SWAP1 POP SWAP3 SWAP2 POP POP JUMP JUMPDEST PUSH1 0x0 DUP2 SWAP1 POP SWAP3 SWAP2 POP POP JUMP JUMPDEST PUSH1 0x0 PUSH2 0x229B DUP3 PUSH2 0x22AE JUMP JUMPDEST SWAP1 POP SWAP2 SWAP1 POP JUMP JUMPDEST PUSH1 0x0 DUP2 ISZERO ISZERO SWAP1 POP SWAP2 SWAP1 POP JUMP JUMPDEST PUSH1 0x0 PUSH20 0xFFFFFFFFFFFFFFFFFFFFFFFFFFFFFFFFFFFFFFFF DUP3 AND SWAP1 POP SWAP2 SWAP1 POP JUMP JUMPDEST DUP3 DUP2 DUP4 CALLDATACOPY PUSH1 0x0 DUP4 DUP4 ADD MSTORE POP POP POP JUMP JUMPDEST PUSH1 0x0 JUMPDEST DUP4 DUP2 LT ISZERO PUSH2 0x22FB JUMPI DUP1 DUP3 ADD MLOAD DUP2 DUP5 ADD MSTORE PUSH1 0x20 DUP2 ADD SWAP1 POP PUSH2 0x22E0 JUMP JUMPDEST DUP4 DUP2 GT ISZERO PUSH2 0x230A JUMPI PUSH1 0x0 DUP5 DUP5 ADD MSTORE JUMPDEST POP POP POP POP JUMP JUMPDEST PUSH1 0x0 PUSH1 0x2 DUP3 DIV SWAP1 POP PUSH1 0x1 DUP3 AND DUP1 PUSH2 0x2328 JUMPI PUSH1 0x7F DUP3 AND SWAP2 POP JUMPDEST PUSH1 0x20 DUP3 LT DUP2 EQ ISZERO PUSH2 0x233C JUMPI PUSH2 0x233B PUSH2 0x2373 JUMP JUMPDEST JUMPDEST POP SWAP2 SWAP1 POP JUMP JUMPDEST PUSH2 0x234B DUP3 PUSH2 0x23D1 JUMP JUMPDEST DUP2 ADD DUP2 DUP2 LT PUSH8 0xFFFFFFFFFFFFFFFF DUP3 GT OR ISZERO PUSH2 0x236A JUMPI PUSH2 0x2369 PUSH2 0x23A2 JUMP JUMPDEST JUMPDEST DUP1 PUSH1 0x40 MSTORE POP POP POP JUMP JUMPDEST PUSH32 0x4E487B7100000000000000000000000000000000000000000000000000000000 PUSH1 0x0 MSTORE PUSH1 0x22 PUSH1 0x4 MSTORE PUSH1 0x24 PUSH1 0x0 REVERT JUMPDEST PUSH32 0x4E487B7100000000000000000000000000000000000000000000000000000000 PUSH1 0x0 MSTORE PUSH1 0x41 PUSH1 0x4 MSTORE PUSH1 0x24 PUSH1 0x0 REVERT JUMPDEST PUSH1 0x0 PUSH1 0x1F NOT PUSH1 0x1F DUP4 ADD AND SWAP1 POP SWAP2 SWAP1 POP JUMP JUMPDEST PUSH32 0x536F6D657468696E672069732057726F6E672066726F6D204465706F74496E63 PUSH1 0x0 DUP3 ADD MSTORE PUSH32 0x6861726765203A28200000000000000000000000000000000000000000000000 PUSH1 0x20 DUP3 ADD MSTORE POP JUMP JUMPDEST PUSH32 0x4465706F7420496E2D6368617267650000000000000000000000000000000000 PUSH1 0x0 DUP3 ADD MSTORE POP JUMP JUMPDEST PUSH32 0x506861726D616369737400000000000000000000000000000000000000000000 PUSH1 0x0 DUP3 ADD MSTORE POP JUMP JUMPDEST PUSH32 0x536F6D657468696E672069732057726F6E672066726F6D20506861726D616369 PUSH1 0x0 DUP3 ADD MSTORE PUSH32 0x7374203A28200000000000000000000000000000000000000000000000000000 PUSH1 0x20 DUP3 ADD MSTORE POP JUMP JUMPDEST PUSH32 0x4D616E7566616374757265720000000000000000000000000000000000000000 PUSH1 0x0 DUP3 ADD MSTORE POP JUMP JUMPDEST PUSH32 0x4D6573736167652066726F6D204D616E75666163747572657200000000000000 PUSH1 0x0 DUP3 ADD MSTORE POP JUMP INVALID LOG2 PUSH5 0x6970667358 0x22 SLT KECCAK256 ADDMOD STOP 0xB7 JUMPI 0xC8 XOR PUSH32 0x5559B88CB6A2BDBD362382281C90D3F4182AC6CA8E36BFE4E564736F6C634300 ADDMOD SUB STOP CALLER "
				},
				"gasEstimates": {
					"creation": {
						"codeDepositCost": "1912400",
						"executionCost": "22885",
						"totalCost": "1935285"
					},
					"external": {
						"buyer()": "1259",
						"createQR(string,string,string)": "infinite",
						"getOrderDAR()": "infinite",
						"getOrderInfo()": "infinite",
						"getOrderStatusInfo()": "infinite",
						"getQRInfo(string)": "infinite",
						"getStoreDrugs(string)": "infinite",
						"isBuyer_()": "1219",
						"isSeller_()": "1263",
						"seller()": "1282",
						"setOrderDAR(string,string)": "infinite",
						"setOrderInfo(string,string,string)": "infinite",
						"setOrderStatusInfo(string,string)": "infinite",
						"storeDrugs(string,string,string,string,string)": "infinite",
						"storeDrugsAgain(string,string,string,string,string)": "infinite"
					}
				},
				"methodIdentifiers": {
					"buyer()": "7150d8ae",
					"createQR(string,string,string)": "b21847a0",
					"getOrderDAR()": "01705ed5",
					"getOrderInfo()": "01efb6c8",
					"getOrderStatusInfo()": "5def9740",
					"getQRInfo(string)": "622a0729",
					"getStoreDrugs(string)": "23d77734",
					"isBuyer_()": "13e62883",
					"isSeller_()": "7c74d4f3",
					"seller()": "08551a53",
					"setOrderDAR(string,string)": "57c2eb05",
					"setOrderInfo(string,string,string)": "f2b0597c",
					"setOrderStatusInfo(string,string)": "f108067e",
					"storeDrugs(string,string,string,string,string)": "9755963e",
					"storeDrugsAgain(string,string,string,string,string)": "cc728f1f"
				}
			},
			"userdoc": {
				"kind": "user",
				"methods": {},
				"version": 1
			}
		}
	}
}